{
  "_format": "hh-sol-artifact-1",
  "contractName": "GreenFiCore",
  "sourceName": "contracts/GreenFiCore.sol",
  "abi": [
    {
      "inputs": [
        {
          "internalType": "address",
          "name": "_stakingToken",
          "type": "address"
        },
        {
          "internalType": "uint256",
          "name": "_aprBps",
          "type": "uint256"
        },
        {
          "internalType": "uint256",
          "name": "_minStakeAmount",
          "type": "uint256"
        },
        {
          "internalType": "uint256",
          "name": "_lockPeriod",
          "type": "uint256"
        }
      ],
      "stateMutability": "nonpayable",
      "type": "constructor"
    },
    {
      "anonymous": false,
      "inputs": [
        {
          "indexed": true,
          "internalType": "address",
          "name": "owner",
          "type": "address"
        },
        {
          "indexed": true,
          "internalType": "address",
          "name": "approved",
          "type": "address"
        },
        {
          "indexed": true,
          "internalType": "uint256",
          "name": "tokenId",
          "type": "uint256"
        }
      ],
      "name": "Approval",
      "type": "event"
    },
    {
      "anonymous": false,
      "inputs": [
        {
          "indexed": true,
          "internalType": "address",
          "name": "owner",
          "type": "address"
        },
        {
          "indexed": true,
          "internalType": "address",
          "name": "operator",
          "type": "address"
        },
        {
          "indexed": false,
          "internalType": "bool",
          "name": "approved",
          "type": "bool"
        }
      ],
      "name": "ApprovalForAll",
      "type": "event"
    },
    {
      "anonymous": false,
      "inputs": [
        {
          "indexed": false,
          "internalType": "uint256",
          "name": "_fromTokenId",
          "type": "uint256"
        },
        {
          "indexed": false,
          "internalType": "uint256",
          "name": "_toTokenId",
          "type": "uint256"
        }
      ],
      "name": "BatchMetadataUpdate",
      "type": "event"
    },
    {
      "anonymous": false,
      "inputs": [
        {
          "indexed": true,
          "internalType": "address",
          "name": "user",
          "type": "address"
        },
        {
          "indexed": false,
          "internalType": "uint256",
          "name": "reward",
          "type": "uint256"
        },
        {
          "indexed": false,
          "internalType": "uint256",
          "name": "timestamp",
          "type": "uint256"
        }
      ],
      "name": "ClaimReward",
      "type": "event"
    },
    {
      "anonymous": false,
      "inputs": [
        {
          "indexed": false,
          "internalType": "uint256",
          "name": "_tokenId",
          "type": "uint256"
        }
      ],
      "name": "MetadataUpdate",
      "type": "event"
    },
    {
      "anonymous": false,
      "inputs": [
        {
          "indexed": true,
          "internalType": "address",
          "name": "user",
          "type": "address"
        },
        {
          "indexed": true,
          "internalType": "uint256",
          "name": "tokenId",
          "type": "uint256"
        },
        {
          "indexed": false,
          "internalType": "uint256",
          "name": "carbonOffset",
          "type": "uint256"
        },
        {
          "indexed": false,
          "internalType": "string",
          "name": "projectName",
          "type": "string"
        },
        {
          "indexed": false,
          "internalType": "string",
          "name": "date",
          "type": "string"
        },
        {
          "indexed": false,
          "internalType": "string",
          "name": "badgeTier",
          "type": "string"
        }
      ],
      "name": "MintImpactNFT",
      "type": "event"
    },
    {
      "anonymous": false,
      "inputs": [
        {
          "indexed": true,
          "internalType": "address",
          "name": "previousOwner",
          "type": "address"
        },
        {
          "indexed": true,
          "internalType": "address",
          "name": "newOwner",
          "type": "address"
        }
      ],
      "name": "OwnershipTransferred",
      "type": "event"
    },
    {
      "anonymous": false,
      "inputs": [
        {
          "indexed": false,
          "internalType": "address",
          "name": "account",
          "type": "address"
        }
      ],
      "name": "Paused",
      "type": "event"
    },
    {
      "anonymous": false,
      "inputs": [
        {
          "indexed": true,
          "internalType": "uint256",
          "name": "projectId",
          "type": "uint256"
        },
        {
          "indexed": false,
          "internalType": "uint256",
          "name": "amount",
          "type": "uint256"
        },
        {
          "indexed": false,
          "internalType": "string",
          "name": "projectName",
          "type": "string"
        }
      ],
      "name": "ProjectFunded",
      "type": "event"
    },
    {
      "anonymous": false,
      "inputs": [
        {
          "indexed": true,
          "internalType": "address",
          "name": "user",
          "type": "address"
        },
        {
          "indexed": false,
          "internalType": "uint256",
          "name": "amount",
          "type": "uint256"
        },
        {
          "indexed": false,
          "internalType": "uint256",
          "name": "timestamp",
          "type": "uint256"
        }
      ],
      "name": "Stake",
      "type": "event"
    },
    {
      "anonymous": false,
      "inputs": [
        {
          "indexed": true,
          "internalType": "address",
          "name": "from",
          "type": "address"
        },
        {
          "indexed": true,
          "internalType": "address",
          "name": "to",
          "type": "address"
        },
        {
          "indexed": true,
          "internalType": "uint256",
          "name": "tokenId",
          "type": "uint256"
        }
      ],
      "name": "Transfer",
      "type": "event"
    },
    {
      "anonymous": false,
      "inputs": [
        {
          "indexed": false,
          "internalType": "address",
          "name": "account",
          "type": "address"
        }
      ],
      "name": "Unpaused",
      "type": "event"
    },
    {
      "anonymous": false,
      "inputs": [
        {
          "indexed": true,
          "internalType": "address",
          "name": "user",
          "type": "address"
        },
        {
          "indexed": false,
          "internalType": "uint256",
          "name": "amount",
          "type": "uint256"
        },
        {
          "indexed": false,
          "internalType": "uint256",
          "name": "reward",
          "type": "uint256"
        },
        {
          "indexed": false,
          "internalType": "uint256",
          "name": "timestamp",
          "type": "uint256"
        }
      ],
      "name": "Unstake",
      "type": "event"
    },
    {
      "inputs": [
        {
          "internalType": "address",
          "name": "to",
          "type": "address"
        },
        {
          "internalType": "uint256",
          "name": "tokenId",
          "type": "uint256"
        }
      ],
      "name": "approve",
      "outputs": [],
      "stateMutability": "nonpayable",
      "type": "function"
    },
    {
      "inputs": [],
      "name": "aprBps",
      "outputs": [
        {
          "internalType": "uint256",
          "name": "",
          "type": "uint256"
        }
      ],
      "stateMutability": "view",
      "type": "function"
    },
    {
      "inputs": [
        {
          "internalType": "address",
          "name": "owner",
          "type": "address"
        }
      ],
      "name": "balanceOf",
      "outputs": [
        {
          "internalType": "uint256",
          "name": "",
          "type": "uint256"
        }
      ],
      "stateMutability": "view",
      "type": "function"
    },
    {
      "inputs": [],
      "name": "claimReward",
      "outputs": [],
      "stateMutability": "nonpayable",
      "type": "function"
    },
    {
      "inputs": [
        {
          "internalType": "uint256",
          "name": "_projectId",
          "type": "uint256"
        },
        {
          "internalType": "uint256",
          "name": "_amount",
          "type": "uint256"
        },
        {
          "internalType": "string",
          "name": "_projectName",
          "type": "string"
        }
      ],
      "name": "emitProjectFunded",
      "outputs": [],
      "stateMutability": "nonpayable",
      "type": "function"
    },
    {
      "inputs": [
        {
          "internalType": "uint256",
          "name": "tokenId",
          "type": "uint256"
        }
      ],
      "name": "getApproved",
      "outputs": [
        {
          "internalType": "address",
          "name": "",
          "type": "address"
        }
      ],
      "stateMutability": "view",
      "type": "function"
    },
    {
      "inputs": [
        {
          "internalType": "uint256",
          "name": "",
          "type": "uint256"
        }
      ],
      "name": "impactMetadataByTokenId",
      "outputs": [
        {
          "internalType": "uint256",
          "name": "carbonOffset",
          "type": "uint256"
        },
        {
          "internalType": "string",
          "name": "projectName",
          "type": "string"
        },
        {
          "internalType": "string",
          "name": "date",
          "type": "string"
        },
        {
          "internalType": "string",
          "name": "badgeTier",
          "type": "string"
        }
      ],
      "stateMutability": "view",
      "type": "function"
    },
    {
      "inputs": [
        {
          "internalType": "address",
          "name": "owner",
          "type": "address"
        },
        {
          "internalType": "address",
          "name": "operator",
          "type": "address"
        }
      ],
      "name": "isApprovedForAll",
      "outputs": [
        {
          "internalType": "bool",
          "name": "",
          "type": "bool"
        }
      ],
      "stateMutability": "view",
      "type": "function"
    },
    {
      "inputs": [],
      "name": "lockPeriod",
      "outputs": [
        {
          "internalType": "uint256",
          "name": "",
          "type": "uint256"
        }
      ],
      "stateMutability": "view",
      "type": "function"
    },
    {
      "inputs": [],
      "name": "minStakeAmount",
      "outputs": [
        {
          "internalType": "uint256",
          "name": "",
          "type": "uint256"
        }
      ],
      "stateMutability": "view",
      "type": "function"
    },
    {
      "inputs": [
        {
          "internalType": "address",
          "name": "_user",
          "type": "address"
        },
        {
          "internalType": "uint256",
          "name": "_carbonOffset",
          "type": "uint256"
        },
        {
          "internalType": "string",
          "name": "_projectName",
          "type": "string"
        },
        {
          "internalType": "string",
          "name": "_date",
          "type": "string"
        },
        {
          "internalType": "string",
          "name": "_badgeTier",
          "type": "string"
        },
        {
          "internalType": "string",
          "name": "_tokenURI",
          "type": "string"
        }
      ],
      "name": "mintImpactNFTForUser",
      "outputs": [
        {
          "internalType": "uint256",
          "name": "",
          "type": "uint256"
        }
      ],
      "stateMutability": "nonpayable",
      "type": "function"
    },
    {
      "inputs": [],
      "name": "name",
      "outputs": [
        {
          "internalType": "string",
          "name": "",
          "type": "string"
        }
      ],
      "stateMutability": "view",
      "type": "function"
    },
    {
      "inputs": [],
      "name": "nextTokenId",
      "outputs": [
        {
          "internalType": "uint256",
          "name": "",
          "type": "uint256"
        }
      ],
      "stateMutability": "view",
      "type": "function"
    },
    {
      "inputs": [],
      "name": "owner",
      "outputs": [
        {
          "internalType": "address",
          "name": "",
          "type": "address"
        }
      ],
      "stateMutability": "view",
      "type": "function"
    },
    {
      "inputs": [
        {
          "internalType": "uint256",
          "name": "tokenId",
          "type": "uint256"
        }
      ],
      "name": "ownerOf",
      "outputs": [
        {
          "internalType": "address",
          "name": "",
          "type": "address"
        }
      ],
      "stateMutability": "view",
      "type": "function"
    },
    {
      "inputs": [],
      "name": "pause",
      "outputs": [],
      "stateMutability": "nonpayable",
      "type": "function"
    },
    {
      "inputs": [],
      "name": "paused",
      "outputs": [
        {
          "internalType": "bool",
          "name": "",
          "type": "bool"
        }
      ],
      "stateMutability": "view",
      "type": "function"
    },
    {
      "inputs": [
        {
          "internalType": "address",
          "name": "_user",
          "type": "address"
        }
      ],
      "name": "pendingReward",
      "outputs": [
        {
          "internalType": "uint256",
          "name": "",
          "type": "uint256"
        }
      ],
      "stateMutability": "view",
      "type": "function"
    },
    {
      "inputs": [],
      "name": "renounceOwnership",
      "outputs": [],
      "stateMutability": "nonpayable",
      "type": "function"
    },
    {
      "inputs": [
        {
          "internalType": "address",
          "name": "from",
          "type": "address"
        },
        {
          "internalType": "address",
          "name": "to",
          "type": "address"
        },
        {
          "internalType": "uint256",
          "name": "tokenId",
          "type": "uint256"
        }
      ],
      "name": "safeTransferFrom",
      "outputs": [],
      "stateMutability": "nonpayable",
      "type": "function"
    },
    {
      "inputs": [
        {
          "internalType": "address",
          "name": "from",
          "type": "address"
        },
        {
          "internalType": "address",
          "name": "to",
          "type": "address"
        },
        {
          "internalType": "uint256",
          "name": "tokenId",
          "type": "uint256"
        },
        {
          "internalType": "bytes",
          "name": "data",
          "type": "bytes"
        }
      ],
      "name": "safeTransferFrom",
      "outputs": [],
      "stateMutability": "nonpayable",
      "type": "function"
    },
    {
      "inputs": [
        {
          "internalType": "uint256",
          "name": "_aprBps",
          "type": "uint256"
        }
      ],
      "name": "setAPR",
      "outputs": [],
      "stateMutability": "nonpayable",
      "type": "function"
    },
    {
      "inputs": [
        {
          "internalType": "address",
          "name": "operator",
          "type": "address"
        },
        {
          "internalType": "bool",
          "name": "approved",
          "type": "bool"
        }
      ],
      "name": "setApprovalForAll",
      "outputs": [],
      "stateMutability": "nonpayable",
      "type": "function"
    },
    {
      "inputs": [
        {
          "internalType": "uint256",
          "name": "_lockPeriod",
          "type": "uint256"
        }
      ],
      "name": "setLockPeriod",
      "outputs": [],
      "stateMutability": "nonpayable",
      "type": "function"
    },
    {
      "inputs": [
        {
          "internalType": "uint256",
          "name": "_minStakeAmount",
          "type": "uint256"
        }
      ],
      "name": "setMinStakeAmount",
      "outputs": [],
      "stateMutability": "nonpayable",
      "type": "function"
    },
    {
      "inputs": [
        {
          "internalType": "uint256",
          "name": "_amount",
          "type": "uint256"
        }
      ],
      "name": "stake",
      "outputs": [],
      "stateMutability": "nonpayable",
      "type": "function"
    },
    {
      "inputs": [
        {
          "internalType": "address",
          "name": "",
          "type": "address"
        }
      ],
      "name": "stakes",
      "outputs": [
        {
          "internalType": "uint256",
          "name": "amount",
          "type": "uint256"
        },
        {
          "internalType": "uint256",
          "name": "rewardDebt",
          "type": "uint256"
        },
        {
          "internalType": "uint256",
          "name": "lastUpdated",
          "type": "uint256"
        },
        {
          "internalType": "uint256",
          "name": "startTime",
          "type": "uint256"
        }
      ],
      "stateMutability": "view",
      "type": "function"
    },
    {
      "inputs": [],
      "name": "stakingToken",
      "outputs": [
        {
          "internalType": "contract IERC20",
          "name": "",
          "type": "address"
        }
      ],
      "stateMutability": "view",
      "type": "function"
    },
    {
      "inputs": [
        {
          "internalType": "bytes4",
          "name": "interfaceId",
          "type": "bytes4"
        }
      ],
      "name": "supportsInterface",
      "outputs": [
        {
          "internalType": "bool",
          "name": "",
          "type": "bool"
        }
      ],
      "stateMutability": "view",
      "type": "function"
    },
    {
      "inputs": [],
      "name": "symbol",
      "outputs": [
        {
          "internalType": "string",
          "name": "",
          "type": "string"
        }
      ],
      "stateMutability": "view",
      "type": "function"
    },
    {
      "inputs": [
        {
          "internalType": "uint256",
          "name": "tokenId",
          "type": "uint256"
        }
      ],
      "name": "tokenURI",
      "outputs": [
        {
          "internalType": "string",
          "name": "",
          "type": "string"
        }
      ],
      "stateMutability": "view",
      "type": "function"
    },
    {
      "inputs": [
        {
          "internalType": "address",
          "name": "from",
          "type": "address"
        },
        {
          "internalType": "address",
          "name": "to",
          "type": "address"
        },
        {
          "internalType": "uint256",
          "name": "tokenId",
          "type": "uint256"
        }
      ],
      "name": "transferFrom",
      "outputs": [],
      "stateMutability": "nonpayable",
      "type": "function"
    },
    {
      "inputs": [
        {
          "internalType": "address",
          "name": "newOwner",
          "type": "address"
        }
      ],
      "name": "transferOwnership",
      "outputs": [],
      "stateMutability": "nonpayable",
      "type": "function"
    },
    {
      "inputs": [],
      "name": "unpause",
      "outputs": [],
      "stateMutability": "nonpayable",
      "type": "function"
    },
    {
      "inputs": [
        {
          "internalType": "uint256",
          "name": "_amount",
          "type": "uint256"
        }
      ],
      "name": "unstake",
      "outputs": [],
      "stateMutability": "nonpayable",
      "type": "function"
    },
    {
      "inputs": [
        {
          "internalType": "uint256",
          "name": "_amount",
          "type": "uint256"
        },
        {
          "internalType": "address",
          "name": "_to",
          "type": "address"
        }
      ],
      "name": "withdrawPlatformFunds",
      "outputs": [],
      "stateMutability": "nonpayable",
      "type": "function"
    }
  ],
  "bytecode": "0x60a06040526001600d553480156200001657600080fd5b506040516200563d3803806200563d83398181016040528101906200003c919062000346565b6040518060400160405280601281526020017f477265656e466920496d70616374204e465400000000000000000000000000008152506040518060400160405280600881526020017f4746494d50414354000000000000000000000000000000000000000000000000815250620000c8620000bc620001d560201b60201c565b620001dd60201b60201c565b600180819055506000600260006101000a81548160ff0219169083151502179055508160039081620000fb919062000628565b5080600490816200010d919062000628565b505050600073ffffffffffffffffffffffffffffffffffffffff168473ffffffffffffffffffffffffffffffffffffffff160362000182576040517f08c379a0000000000000000000000000000000000000000000000000000000008152600401620001799062000770565b60405180910390fd5b8373ffffffffffffffffffffffffffffffffffffffff1660808173ffffffffffffffffffffffffffffffffffffffff168152505082600a8190555081600b8190555080600c819055505050505062000792565b600033905090565b60008060009054906101000a900473ffffffffffffffffffffffffffffffffffffffff169050816000806101000a81548173ffffffffffffffffffffffffffffffffffffffff021916908373ffffffffffffffffffffffffffffffffffffffff1602179055508173ffffffffffffffffffffffffffffffffffffffff168173ffffffffffffffffffffffffffffffffffffffff167f8be0079c531659141344cd1fd0a4f28419497f9722a3daafe3b4186f6b6457e060405160405180910390a35050565b600080fd5b600073ffffffffffffffffffffffffffffffffffffffff82169050919050565b6000620002d382620002a6565b9050919050565b620002e581620002c6565b8114620002f157600080fd5b50565b6000815190506200030581620002da565b92915050565b6000819050919050565b62000320816200030b565b81146200032c57600080fd5b50565b600081519050620003408162000315565b92915050565b60008060008060808587031215620003635762000362620002a1565b5b60006200037387828801620002f4565b945050602062000386878288016200032f565b935050604062000399878288016200032f565b9250506060620003ac878288016200032f565b91505092959194509250565b600081519050919050565b7f4e487b7100000000000000000000000000000000000000000000000000000000600052604160045260246000fd5b7f4e487b7100000000000000000000000000000000000000000000000000000000600052602260045260246000fd5b600060028204905060018216806200043a57607f821691505b60208210810362000450576200044f620003f2565b5b50919050565b60008190508160005260206000209050919050565b60006020601f8301049050919050565b600082821b905092915050565b600060088302620004ba7fffffffffffffffffffffffffffffffffffffffffffffffffffffffffffffffff826200047b565b620004c686836200047b565b95508019841693508086168417925050509392505050565b6000819050919050565b60006200050962000503620004fd846200030b565b620004de565b6200030b565b9050919050565b6000819050919050565b6200052583620004e8565b6200053d620005348262000510565b84845462000488565b825550505050565b600090565b6200055462000545565b620005618184846200051a565b505050565b5b8181101562000589576200057d6000826200054a565b60018101905062000567565b5050565b601f821115620005d857620005a28162000456565b620005ad846200046b565b81016020851015620005bd578190505b620005d5620005cc856200046b565b83018262000566565b50505b505050565b600082821c905092915050565b6000620005fd60001984600802620005dd565b1980831691505092915050565b6000620006188383620005ea565b9150826002028217905092915050565b6200063382620003b8565b67ffffffffffffffff8111156200064f576200064e620003c3565b5b6200065b825462000421565b620006688282856200058d565b600060209050601f831160018114620006a057600084156200068b578287015190505b6200069785826200060a565b86555062000707565b601f198416620006b08662000456565b60005b82811015620006da57848901518255600182019150602085019450602081019050620006b3565b86831015620006fa5784890151620006f6601f891682620005ea565b8355505b6001600288020188555050505b505050505050565b600082825260208201905092915050565b7f496e76616c696420746f6b656e00000000000000000000000000000000000000600082015250565b600062000758600d836200070f565b9150620007658262000720565b602082019050919050565b600060208201905081810360008301526200078b8162000749565b9050919050565b608051614e6c620007d160003960008181610c7e01528181610d64015281816112090152818161143f015281816116c10152611b260152614e6c6000f3fe608060405234801561001057600080fd5b506004361061021c5760003560e01c806372f702f311610125578063b88a802f116100ad578063eb4af0451161007c578063eb4af04514610607578063f188768414610623578063f2fde38b14610641578063f40f0f521461065d578063f58421461461068d5761021c565b8063b88a802f14610581578063b88d4fde1461058b578063c87b56dd146105a7578063e985e9c5146105d75761021c565b8063854303cf116100f4578063854303cf146104f15780638da5cb5b1461050d57806395d89b411461052b578063a22cb46514610549578063a694fc3a146105655761021c565b806372f702f31461048f57806375794a3c146104ad578063779972da146104cb5780638456cb59146104e75761021c565b80632e17de78116101a857806342842e0e1161017757806342842e0e146103eb5780635c975abb146104075780636352211e1461042557806370a0823114610455578063715018a6146104855761021c565b80632e17de7814610374578063358bc434146103905780633f4ba83a146103c35780633fd8b02f146103cd5761021c565b806309417787116101ef57806309417787146102cf578063095ea7b3146102eb57806316934fc41461030757806323b872dd1461033a57806325ac1df2146103565761021c565b806301ffc9a71461022157806306fdde031461025157806307dcd9f91461026f578063081812fc1461029f575b600080fd5b61023b6004803603810190610236919061318c565b6106a9565b60405161024891906131d4565b60405180910390f35b61025961070a565b604051610266919061327f565b60405180910390f35b6102896004803603810190610284919061339a565b61079c565b60405161029691906134b9565b60405180910390f35b6102b960048036038101906102b491906134d4565b6108d4565b6040516102c69190613510565b60405180910390f35b6102e960048036038101906102e4919061352b565b61091a565b005b6103056004803603810190610300919061359f565b610964565b005b610321600480360381019061031c91906135df565b610a7b565b604051610331949392919061360c565b60405180910390f35b610354600480360381019061034f9190613651565b610aab565b005b61035e610b0b565b60405161036b91906134b9565b60405180910390f35b61038e600480360381019061038991906134d4565b610b11565b005b6103aa60048036038101906103a591906134d4565b610e9f565b6040516103ba94939291906136a4565b60405180910390f35b6103cb611067565b005b6103d5611079565b6040516103e291906134b9565b60405180910390f35b61040560048036038101906104009190613651565b61107f565b005b61040f61109f565b60405161041c91906131d4565b60405180910390f35b61043f600480360381019061043a91906134d4565b6110b6565b60405161044c9190613510565b60405180910390f35b61046f600480360381019061046a91906135df565b61113c565b60405161047c91906134b9565b60405180910390f35b61048d6111f3565b005b610497611207565b6040516104a4919061375d565b60405180910390f35b6104b561122b565b6040516104c291906134b9565b60405180910390f35b6104e560048036038101906104e091906134d4565b611231565b005b6104ef611243565b005b61050b600480360381019061050691906134d4565b611255565b005b6105156112ac565b6040516105229190613510565b60405180910390f35b6105336112d5565b604051610540919061327f565b60405180910390f35b610563600480360381019061055e91906137a4565b611367565b005b61057f600480360381019061057a91906134d4565b61137d565b005b6105896115b3565b005b6105a560048036038101906105a09190613914565b6117f8565b005b6105c160048036038101906105bc91906134d4565b61185a565b6040516105ce919061327f565b60405180910390f35b6105f160048036038101906105ec9190613997565b61196c565b6040516105fe91906131d4565b60405180910390f35b610621600480360381019061061c91906134d4565b611a00565b005b61062b611a12565b60405161063891906134b9565b60405180910390f35b61065b600480360381019061065691906135df565b611a18565b005b610677600480360381019061067291906135df565b611a9b565b60405161068491906134b9565b60405180910390f35b6106a760048036038101906106a291906139d7565b611aad565b005b6000634906490660e01b7bffffffffffffffffffffffffffffffffffffffffffffffffffffffff1916827bffffffffffffffffffffffffffffffffffffffffffffffffffffffff19161480610703575061070282611c05565b5b9050919050565b60606003805461071990613a46565b80601f016020809104026020016040519081016040528092919081815260200182805461074590613a46565b80156107925780601f1061076757610100808354040283529160200191610792565b820191906000526020600020905b81548152906001019060200180831161077557829003601f168201915b5050505050905090565b60006107a6611ce7565b6108c48b8b8b8b8080601f016020809104026020016040519081016040528093929190818152602001838380828437600081840152601f19601f820116905080830192505050505050508a8a8080601f016020809104026020016040519081016040528093929190818152602001838380828437600081840152601f19601f8201169050808301925050505050505089898080601f016020809104026020016040519081016040528093929190818152602001838380828437600081840152601f19601f8201169050808301925050505050505088888080601f016020809104026020016040519081016040528093929190818152602001838380828437600081840152601f19601f82011690508083019250505050505050611d65565b90509a9950505050505050505050565b60006108df82611e81565b6007600083815260200190815260200160002060009054906101000a900473ffffffffffffffffffffffffffffffffffffffff169050919050565b610922611ce7565b837fcafdfee2d98eb48494b3c4812d3e553fcb4e8648361fb6ca7e23e42e9d6e198f84848460405161095693929190613aa4565b60405180910390a250505050565b600061096f826110b6565b90508073ffffffffffffffffffffffffffffffffffffffff168373ffffffffffffffffffffffffffffffffffffffff16036109df576040517f08c379a00000000000000000000000000000000000000000000000000000000081526004016109d690613b48565b60405180910390fd5b8073ffffffffffffffffffffffffffffffffffffffff166109fe611ecc565b73ffffffffffffffffffffffffffffffffffffffff161480610a2d5750610a2c81610a27611ecc565b61196c565b5b610a6c576040517f08c379a0000000000000000000000000000000000000000000000000000000008152600401610a6390613bda565b60405180910390fd5b610a768383611ed4565b505050565b600e6020528060005260406000206000915090508060000154908060010154908060020154908060030154905084565b610abc610ab6611ecc565b82611f8d565b610afb576040517f08c379a0000000000000000000000000000000000000000000000000000000008152600401610af290613c6c565b60405180910390fd5b610b06838383612022565b505050565b600a5481565b610b1961231b565b610b2161236a565b6000600e60003373ffffffffffffffffffffffffffffffffffffffff1673ffffffffffffffffffffffffffffffffffffffff168152602001908152602001600020905081816000015410158015610b785750600082115b610bb7576040517f08c379a0000000000000000000000000000000000000000000000000000000008152600401610bae90613cd8565b60405180910390fd5b610bf3816040518060800160405290816000820154815260200160018201548152602001600282015481526020016003820154815250506123b4565b610c32576040517f08c379a0000000000000000000000000000000000000000000000000000000008152600401610c2990613d44565b60405180910390fd5b60008160010154610c42336123fa565b610c4c9190613d93565b905082826000016000828254610c629190613dc7565b92505081905550600082600101819055504282600201819055507f000000000000000000000000000000000000000000000000000000000000000073ffffffffffffffffffffffffffffffffffffffff1663a9059cbb33856040518363ffffffff1660e01b8152600401610cd7929190613dfb565b6020604051808303816000875af1158015610cf6573d6000803e3d6000fd5b505050506040513d601f19601f82011682018060405250810190610d1a9190613e39565b610d59576040517f08c379a0000000000000000000000000000000000000000000000000000000008152600401610d5090613eb2565b60405180910390fd5b6000811115610e40577f000000000000000000000000000000000000000000000000000000000000000073ffffffffffffffffffffffffffffffffffffffff1663a9059cbb33836040518363ffffffff1660e01b8152600401610dbd929190613dfb565b6020604051808303816000875af1158015610ddc573d6000803e3d6000fd5b505050506040513d601f19601f82011682018060405250810190610e009190613e39565b610e3f576040517f08c379a0000000000000000000000000000000000000000000000000000000008152600401610e3690613f1e565b60405180910390fd5b5b3373ffffffffffffffffffffffffffffffffffffffff167ffbd65cfd6de1493db337385c0712095397ecbd0504df64b861cdfceb80c7b422848342604051610e8a93929190613f3e565b60405180910390a25050610e9c6124ea565b50565b600f602052806000526040600020600091509050806000015490806001018054610ec890613a46565b80601f0160208091040260200160405190810160405280929190818152602001828054610ef490613a46565b8015610f415780601f10610f1657610100808354040283529160200191610f41565b820191906000526020600020905b815481529060010190602001808311610f2457829003601f168201915b505050505090806002018054610f5690613a46565b80601f0160208091040260200160405190810160405280929190818152602001828054610f8290613a46565b8015610fcf5780601f10610fa457610100808354040283529160200191610fcf565b820191906000526020600020905b815481529060010190602001808311610fb257829003601f168201915b505050505090806003018054610fe490613a46565b80601f016020809104026020016040519081016040528092919081815260200182805461101090613a46565b801561105d5780601f106110325761010080835404028352916020019161105d565b820191906000526020600020905b81548152906001019060200180831161104057829003601f168201915b5050505050905084565b61106f611ce7565b6110776124f3565b565b600c5481565b61109a838383604051806020016040528060008152506117f8565b505050565b6000600260009054906101000a900460ff16905090565b6000806110c283612556565b9050600073ffffffffffffffffffffffffffffffffffffffff168173ffffffffffffffffffffffffffffffffffffffff1603611133576040517f08c379a000000000000000000000000000000000000000000000000000000000815260040161112a90613fc1565b60405180910390fd5b80915050919050565b60008073ffffffffffffffffffffffffffffffffffffffff168273ffffffffffffffffffffffffffffffffffffffff16036111ac576040517f08c379a00000000000000000000000000000000000000000000000000000000081526004016111a390614053565b60405180910390fd5b600660008373ffffffffffffffffffffffffffffffffffffffff1673ffffffffffffffffffffffffffffffffffffffff168152602001908152602001600020549050919050565b6111fb611ce7565b6112056000612593565b565b7f000000000000000000000000000000000000000000000000000000000000000081565b600d5481565b611239611ce7565b80600c8190555050565b61124b611ce7565b611253612657565b565b61125d611ce7565b6113888111156112a2576040517f08c379a0000000000000000000000000000000000000000000000000000000008152600401611299906140bf565b60405180910390fd5b80600a8190555050565b60008060009054906101000a900473ffffffffffffffffffffffffffffffffffffffff16905090565b6060600480546112e490613a46565b80601f016020809104026020016040519081016040528092919081815260200182805461131090613a46565b801561135d5780601f106113325761010080835404028352916020019161135d565b820191906000526020600020905b81548152906001019060200180831161134057829003601f168201915b5050505050905090565b611379611372611ecc565b83836126ba565b5050565b61138561231b565b61138d61236a565b600b548110156113d2576040517f08c379a00000000000000000000000000000000000000000000000000000000081526004016113c99061412b565b60405180910390fd5b6000600e60003373ffffffffffffffffffffffffffffffffffffffff1673ffffffffffffffffffffffffffffffffffffffff16815260200190815260200160002090506000611420336123fa565b9050808260010160008282546114369190613d93565b925050819055507f000000000000000000000000000000000000000000000000000000000000000073ffffffffffffffffffffffffffffffffffffffff166323b872dd3330866040518463ffffffff1660e01b815260040161149a9392919061414b565b6020604051808303816000875af11580156114b9573d6000803e3d6000fd5b505050506040513d601f19601f820116820180604052508101906114dd9190613e39565b61151c576040517f08c379a0000000000000000000000000000000000000000000000000000000008152600401611513906141ce565b60405180910390fd5b828260000160008282546115309190613d93565b925050819055504282600201819055506000826003015403611556574282600301819055505b3373ffffffffffffffffffffffffffffffffffffffff167f5af417134f72a9d41143ace85b0a26dce6f550f894f2cbc1eeee8810603d91b6844260405161159e9291906141ee565b60405180910390a250506115b06124ea565b50565b6115bb61231b565b6115c361236a565b6000600e60003373ffffffffffffffffffffffffffffffffffffffff1673ffffffffffffffffffffffffffffffffffffffff1681526020019081526020016000209050600081600001541161164d576040517f08c379a000000000000000000000000000000000000000000000000000000000815260040161164490614263565b60405180910390fd5b6000816001015461165d336123fa565b6116679190613d93565b9050600081116116ac576040517f08c379a00000000000000000000000000000000000000000000000000000000081526004016116a3906142cf565b60405180910390fd5b600082600101819055504282600201819055507f000000000000000000000000000000000000000000000000000000000000000073ffffffffffffffffffffffffffffffffffffffff1663a9059cbb33836040518363ffffffff1660e01b815260040161171a929190613dfb565b6020604051808303816000875af1158015611739573d6000803e3d6000fd5b505050506040513d601f19601f8201168201806040525081019061175d9190613e39565b61179c576040517f08c379a000000000000000000000000000000000000000000000000000000000815260040161179390613f1e565b60405180910390fd5b3373ffffffffffffffffffffffffffffffffffffffff167fe74e5c9d4ac1fc33412485f18c159a0a391efe287ab3fd271123f30e6bacf4e382426040516117e49291906141ee565b60405180910390a250506117f66124ea565b565b611809611803611ecc565b83611f8d565b611848576040517f08c379a000000000000000000000000000000000000000000000000000000000815260040161183f90613c6c565b60405180910390fd5b61185484848484612826565b50505050565b606061186582611e81565b600060096000848152602001908152602001600020805461188590613a46565b80601f01602080910402602001604051908101604052809291908181526020018280546118b190613a46565b80156118fe5780601f106118d3576101008083540402835291602001916118fe565b820191906000526020600020905b8154815290600101906020018083116118e157829003601f168201915b50505050509050600061190f612882565b90506000815103611924578192505050611967565b60008251111561195957808260405160200161194192919061432b565b60405160208183030381529060405292505050611967565b61196284612899565b925050505b919050565b6000600860008473ffffffffffffffffffffffffffffffffffffffff1673ffffffffffffffffffffffffffffffffffffffff16815260200190815260200160002060008373ffffffffffffffffffffffffffffffffffffffff1673ffffffffffffffffffffffffffffffffffffffff16815260200190815260200160002060009054906101000a900460ff16905092915050565b611a08611ce7565b80600b8190555050565b600b5481565b611a20611ce7565b600073ffffffffffffffffffffffffffffffffffffffff168173ffffffffffffffffffffffffffffffffffffffff1603611a8f576040517f08c379a0000000000000000000000000000000000000000000000000000000008152600401611a86906143c1565b60405180910390fd5b611a9881612593565b50565b6000611aa6826123fa565b9050919050565b611ab5611ce7565b600073ffffffffffffffffffffffffffffffffffffffff168173ffffffffffffffffffffffffffffffffffffffff1603611b24576040517f08c379a0000000000000000000000000000000000000000000000000000000008152600401611b1b9061442d565b60405180910390fd5b7f000000000000000000000000000000000000000000000000000000000000000073ffffffffffffffffffffffffffffffffffffffff1663a9059cbb82846040518363ffffffff1660e01b8152600401611b7f929190613dfb565b6020604051808303816000875af1158015611b9e573d6000803e3d6000fd5b505050506040513d601f19601f82011682018060405250810190611bc29190613e39565b611c01576040517f08c379a0000000000000000000000000000000000000000000000000000000008152600401611bf890614499565b60405180910390fd5b5050565b60007f80ac58cd000000000000000000000000000000000000000000000000000000007bffffffffffffffffffffffffffffffffffffffffffffffffffffffff1916827bffffffffffffffffffffffffffffffffffffffffffffffffffffffff19161480611cd057507f5b5e139f000000000000000000000000000000000000000000000000000000007bffffffffffffffffffffffffffffffffffffffffffffffffffffffff1916827bffffffffffffffffffffffffffffffffffffffffffffffffffffffff1916145b80611ce05750611cdf82612901565b5b9050919050565b611cef611ecc565b73ffffffffffffffffffffffffffffffffffffffff16611d0d6112ac565b73ffffffffffffffffffffffffffffffffffffffff1614611d63576040517f08c379a0000000000000000000000000000000000000000000000000000000008152600401611d5a90614505565b60405180910390fd5b565b6000600d6000815480929190611d7a90614525565b919050559050611d8a878261296b565b600082511115611d9f57611d9e8183612989565b5b604051806080016040528087815260200186815260200185815260200184815250600f6000838152602001908152602001600020600082015181600001556020820151816001019081611df2919061470f565b506040820151816002019081611e08919061470f565b506060820151816003019081611e1e919061470f565b50905050808773ffffffffffffffffffffffffffffffffffffffff167f417c648c4c0fc0ecf1a1da71e54833a7ebb64a7b97f01788f732592e09589a4b88888888604051611e6f94939291906136a4565b60405180910390a39695505050505050565b611e8a81612a2d565b611ec9576040517f08c379a0000000000000000000000000000000000000000000000000000000008152600401611ec090613fc1565b60405180910390fd5b50565b600033905090565b816007600083815260200190815260200160002060006101000a81548173ffffffffffffffffffffffffffffffffffffffff021916908373ffffffffffffffffffffffffffffffffffffffff160217905550808273ffffffffffffffffffffffffffffffffffffffff16611f47836110b6565b73ffffffffffffffffffffffffffffffffffffffff167f8c5be1e5ebec7d5bd14f71427d1e84f3dd0314c0f7b2291e5b200ac8c7c3b92560405160405180910390a45050565b600080611f99836110b6565b90508073ffffffffffffffffffffffffffffffffffffffff168473ffffffffffffffffffffffffffffffffffffffff161480611fdb5750611fda818561196c565b5b8061201957508373ffffffffffffffffffffffffffffffffffffffff16612001846108d4565b73ffffffffffffffffffffffffffffffffffffffff16145b91505092915050565b8273ffffffffffffffffffffffffffffffffffffffff16612042826110b6565b73ffffffffffffffffffffffffffffffffffffffff1614612098576040517f08c379a000000000000000000000000000000000000000000000000000000000815260040161208f90614853565b60405180910390fd5b600073ffffffffffffffffffffffffffffffffffffffff168273ffffffffffffffffffffffffffffffffffffffff1603612107576040517f08c379a00000000000000000000000000000000000000000000000000000000081526004016120fe906148e5565b60405180910390fd5b6121148383836001612a6e565b8273ffffffffffffffffffffffffffffffffffffffff16612134826110b6565b73ffffffffffffffffffffffffffffffffffffffff161461218a576040517f08c379a000000000000000000000000000000000000000000000000000000000815260040161218190614853565b60405180910390fd5b6007600082815260200190815260200160002060006101000a81549073ffffffffffffffffffffffffffffffffffffffff02191690556001600660008573ffffffffffffffffffffffffffffffffffffffff1673ffffffffffffffffffffffffffffffffffffffff168152602001908152602001600020600082825403925050819055506001600660008473ffffffffffffffffffffffffffffffffffffffff1673ffffffffffffffffffffffffffffffffffffffff16815260200190815260200160002060008282540192505081905550816005600083815260200190815260200160002060006101000a81548173ffffffffffffffffffffffffffffffffffffffff021916908373ffffffffffffffffffffffffffffffffffffffff160217905550808273ffffffffffffffffffffffffffffffffffffffff168473ffffffffffffffffffffffffffffffffffffffff167fddf252ad1be2c89b69c2b068fc378daa952ba7f163c4a11628f55a4df523b3ef60405160405180910390a46123168383836001612a88565b505050565b600260015403612360576040517f08c379a000000000000000000000000000000000000000000000000000000000815260040161235790614951565b60405180910390fd5b6002600181905550565b61237261109f565b156123b2576040517f08c379a00000000000000000000000000000000000000000000000000000000081526004016123a9906149bd565b60405180910390fd5b565b600080600c54036123c857600190506123f5565b60008260600151036123dd57600190506123f5565b600c5482606001516123ef9190613d93565b42101590505b919050565b600080600e60008473ffffffffffffffffffffffffffffffffffffffff1673ffffffffffffffffffffffffffffffffffffffff168152602001908152602001600020604051806080016040529081600082015481526020016001820154815260200160028201548152602001600382015481525050905060008160000151036124875760009150506124e5565b60008160400151426124999190613dc7565b90506000612710600a5484600001516124b291906149dd565b6124bc9190614a4e565b905060006301e1338083836124d191906149dd565b6124db9190614a4e565b9050809450505050505b919050565b60018081905550565b6124fb612a8e565b6000600260006101000a81548160ff0219169083151502179055507f5db9ee0a495bf2e6ff9c91a7834c1ba4fdd244a5e8aa4e537bd38aeae4b073aa61253f611ecc565b60405161254c9190613510565b60405180910390a1565b60006005600083815260200190815260200160002060009054906101000a900473ffffffffffffffffffffffffffffffffffffffff169050919050565b60008060009054906101000a900473ffffffffffffffffffffffffffffffffffffffff169050816000806101000a81548173ffffffffffffffffffffffffffffffffffffffff021916908373ffffffffffffffffffffffffffffffffffffffff1602179055508173ffffffffffffffffffffffffffffffffffffffff168173ffffffffffffffffffffffffffffffffffffffff167f8be0079c531659141344cd1fd0a4f28419497f9722a3daafe3b4186f6b6457e060405160405180910390a35050565b61265f61236a565b6001600260006101000a81548160ff0219169083151502179055507f62e78cea01bee320cd4e420270b5ea74000d11b0c9f74754ebdbfc544b05a2586126a3611ecc565b6040516126b09190613510565b60405180910390a1565b8173ffffffffffffffffffffffffffffffffffffffff168373ffffffffffffffffffffffffffffffffffffffff1603612728576040517f08c379a000000000000000000000000000000000000000000000000000000000815260040161271f90614acb565b60405180910390fd5b80600860008573ffffffffffffffffffffffffffffffffffffffff1673ffffffffffffffffffffffffffffffffffffffff16815260200190815260200160002060008473ffffffffffffffffffffffffffffffffffffffff1673ffffffffffffffffffffffffffffffffffffffff16815260200190815260200160002060006101000a81548160ff0219169083151502179055508173ffffffffffffffffffffffffffffffffffffffff168373ffffffffffffffffffffffffffffffffffffffff167f17307eab39ab6107e8899845ad3d59bd9653f200f220920489ca2b5937696c318360405161281991906131d4565b60405180910390a3505050565b612831848484612022565b61283d84848484612ad7565b61287c576040517f08c379a000000000000000000000000000000000000000000000000000000000815260040161287390614b5d565b60405180910390fd5b50505050565b606060405180602001604052806000815250905090565b60606128a482611e81565b60006128ae612882565b905060008151116128ce57604051806020016040528060008152506128f9565b806128d884612c5e565b6040516020016128e992919061432b565b6040516020818303038152906040525b915050919050565b60007f01ffc9a7000000000000000000000000000000000000000000000000000000007bffffffffffffffffffffffffffffffffffffffffffffffffffffffff1916827bffffffffffffffffffffffffffffffffffffffffffffffffffffffff1916149050919050565b612985828260405180602001604052806000815250612d2c565b5050565b61299282612a2d565b6129d1576040517f08c379a00000000000000000000000000000000000000000000000000000000081526004016129c890614bef565b60405180910390fd5b806009600084815260200190815260200160002090816129f1919061470f565b507ff8e1a15aba9398e019f0b49df1a4fde98ee17ae345cb5f6b5e2c27f5033e8ce782604051612a2191906134b9565b60405180910390a15050565b60008073ffffffffffffffffffffffffffffffffffffffff16612a4f83612556565b73ffffffffffffffffffffffffffffffffffffffff1614159050919050565b612a7661236a565b612a8284848484612d87565b50505050565b50505050565b612a9661109f565b612ad5576040517f08c379a0000000000000000000000000000000000000000000000000000000008152600401612acc90614c5b565b60405180910390fd5b565b6000612af88473ffffffffffffffffffffffffffffffffffffffff16612d8d565b15612c51578373ffffffffffffffffffffffffffffffffffffffff1663150b7a02612b21611ecc565b8786866040518563ffffffff1660e01b8152600401612b439493929190614cd0565b6020604051808303816000875af1925050508015612b7f57506040513d601f19601f82011682018060405250810190612b7c9190614d31565b60015b612c01573d8060008114612baf576040519150601f19603f3d011682016040523d82523d6000602084013e612bb4565b606091505b506000815103612bf9576040517f08c379a0000000000000000000000000000000000000000000000000000000008152600401612bf090614b5d565b60405180910390fd5b805181602001fd5b63150b7a0260e01b7bffffffffffffffffffffffffffffffffffffffffffffffffffffffff1916817bffffffffffffffffffffffffffffffffffffffffffffffffffffffff191614915050612c56565b600190505b949350505050565b606060006001612c6d84612db0565b01905060008167ffffffffffffffff811115612c8c57612c8b6137e9565b5b6040519080825280601f01601f191660200182016040528015612cbe5781602001600182028036833780820191505090505b509050600082602001820190505b600115612d21578080600190039150507f3031323334353637383961626364656600000000000000000000000000000000600a86061a8153600a8581612d1557612d14614a1f565b5b04945060008503612ccc575b819350505050919050565b612d368383612f03565b612d436000848484612ad7565b612d82576040517f08c379a0000000000000000000000000000000000000000000000000000000008152600401612d7990614b5d565b60405180910390fd5b505050565b50505050565b6000808273ffffffffffffffffffffffffffffffffffffffff163b119050919050565b600080600090507a184f03e93ff9f4daa797ed6e38ed64bf6a1f0100000000000000008310612e0e577a184f03e93ff9f4daa797ed6e38ed64bf6a1f0100000000000000008381612e0457612e03614a1f565b5b0492506040810190505b6d04ee2d6d415b85acef81000000008310612e4b576d04ee2d6d415b85acef81000000008381612e4157612e40614a1f565b5b0492506020810190505b662386f26fc100008310612e7a57662386f26fc100008381612e7057612e6f614a1f565b5b0492506010810190505b6305f5e1008310612ea3576305f5e1008381612e9957612e98614a1f565b5b0492506008810190505b6127108310612ec8576127108381612ebe57612ebd614a1f565b5b0492506004810190505b60648310612eeb5760648381612ee157612ee0614a1f565b5b0492506002810190505b600a8310612efa576001810190505b80915050919050565b600073ffffffffffffffffffffffffffffffffffffffff168273ffffffffffffffffffffffffffffffffffffffff1603612f72576040517f08c379a0000000000000000000000000000000000000000000000000000000008152600401612f6990614daa565b60405180910390fd5b612f7b81612a2d565b15612fbb576040517f08c379a0000000000000000000000000000000000000000000000000000000008152600401612fb290614e16565b60405180910390fd5b612fc9600083836001612a6e565b612fd281612a2d565b15613012576040517f08c379a000000000000000000000000000000000000000000000000000000000815260040161300990614e16565b60405180910390fd5b6001600660008473ffffffffffffffffffffffffffffffffffffffff1673ffffffffffffffffffffffffffffffffffffffff16815260200190815260200160002060008282540192505081905550816005600083815260200190815260200160002060006101000a81548173ffffffffffffffffffffffffffffffffffffffff021916908373ffffffffffffffffffffffffffffffffffffffff160217905550808273ffffffffffffffffffffffffffffffffffffffff16600073ffffffffffffffffffffffffffffffffffffffff167fddf252ad1be2c89b69c2b068fc378daa952ba7f163c4a11628f55a4df523b3ef60405160405180910390a461311c600083836001612a88565b5050565b6000604051905090565b600080fd5b600080fd5b60007fffffffff0000000000000000000000000000000000000000000000000000000082169050919050565b61316981613134565b811461317457600080fd5b50565b60008135905061318681613160565b92915050565b6000602082840312156131a2576131a161312a565b5b60006131b084828501613177565b91505092915050565b60008115159050919050565b6131ce816131b9565b82525050565b60006020820190506131e960008301846131c5565b92915050565b600081519050919050565b600082825260208201905092915050565b60005b8381101561322957808201518184015260208101905061320e565b60008484015250505050565b6000601f19601f8301169050919050565b6000613251826131ef565b61325b81856131fa565b935061326b81856020860161320b565b61327481613235565b840191505092915050565b600060208201905081810360008301526132998184613246565b905092915050565b600073ffffffffffffffffffffffffffffffffffffffff82169050919050565b60006132cc826132a1565b9050919050565b6132dc816132c1565b81146132e757600080fd5b50565b6000813590506132f9816132d3565b92915050565b6000819050919050565b613312816132ff565b811461331d57600080fd5b50565b60008135905061332f81613309565b92915050565b600080fd5b600080fd5b600080fd5b60008083601f84011261335a57613359613335565b5b8235905067ffffffffffffffff8111156133775761337661333a565b5b6020830191508360018202830111156133935761339261333f565b5b9250929050565b60008060008060008060008060008060c08b8d0312156133bd576133bc61312a565b5b60006133cb8d828e016132ea565b9a505060206133dc8d828e01613320565b99505060408b013567ffffffffffffffff8111156133fd576133fc61312f565b5b6134098d828e01613344565b985098505060608b013567ffffffffffffffff81111561342c5761342b61312f565b5b6134388d828e01613344565b965096505060808b013567ffffffffffffffff81111561345b5761345a61312f565b5b6134678d828e01613344565b945094505060a08b013567ffffffffffffffff81111561348a5761348961312f565b5b6134968d828e01613344565b92509250509295989b9194979a5092959850565b6134b3816132ff565b82525050565b60006020820190506134ce60008301846134aa565b92915050565b6000602082840312156134ea576134e961312a565b5b60006134f884828501613320565b91505092915050565b61350a816132c1565b82525050565b60006020820190506135256000830184613501565b92915050565b600080600080606085870312156135455761354461312a565b5b600061355387828801613320565b945050602061356487828801613320565b935050604085013567ffffffffffffffff8111156135855761358461312f565b5b61359187828801613344565b925092505092959194509250565b600080604083850312156135b6576135b561312a565b5b60006135c4858286016132ea565b92505060206135d585828601613320565b9150509250929050565b6000602082840312156135f5576135f461312a565b5b6000613603848285016132ea565b91505092915050565b600060808201905061362160008301876134aa565b61362e60208301866134aa565b61363b60408301856134aa565b61364860608301846134aa565b95945050505050565b60008060006060848603121561366a5761366961312a565b5b6000613678868287016132ea565b9350506020613689868287016132ea565b925050604061369a86828701613320565b9150509250925092565b60006080820190506136b960008301876134aa565b81810360208301526136cb8186613246565b905081810360408301526136df8185613246565b905081810360608301526136f38184613246565b905095945050505050565b6000819050919050565b600061372361371e613719846132a1565b6136fe565b6132a1565b9050919050565b600061373582613708565b9050919050565b60006137478261372a565b9050919050565b6137578161373c565b82525050565b6000602082019050613772600083018461374e565b92915050565b613781816131b9565b811461378c57600080fd5b50565b60008135905061379e81613778565b92915050565b600080604083850312156137bb576137ba61312a565b5b60006137c9858286016132ea565b92505060206137da8582860161378f565b9150509250929050565b600080fd5b7f4e487b7100000000000000000000000000000000000000000000000000000000600052604160045260246000fd5b61382182613235565b810181811067ffffffffffffffff821117156138405761383f6137e9565b5b80604052505050565b6000613853613120565b905061385f8282613818565b919050565b600067ffffffffffffffff82111561387f5761387e6137e9565b5b61388882613235565b9050602081019050919050565b82818337600083830152505050565b60006138b76138b284613864565b613849565b9050828152602081018484840111156138d3576138d26137e4565b5b6138de848285613895565b509392505050565b600082601f8301126138fb576138fa613335565b5b813561390b8482602086016138a4565b91505092915050565b6000806000806080858703121561392e5761392d61312a565b5b600061393c878288016132ea565b945050602061394d878288016132ea565b935050604061395e87828801613320565b925050606085013567ffffffffffffffff81111561397f5761397e61312f565b5b61398b878288016138e6565b91505092959194509250565b600080604083850312156139ae576139ad61312a565b5b60006139bc858286016132ea565b92505060206139cd858286016132ea565b9150509250929050565b600080604083850312156139ee576139ed61312a565b5b60006139fc85828601613320565b9250506020613a0d858286016132ea565b9150509250929050565b7f4e487b7100000000000000000000000000000000000000000000000000000000600052602260045260246000fd5b60006002820490506001821680613a5e57607f821691505b602082108103613a7157613a70613a17565b5b50919050565b6000613a8383856131fa565b9350613a90838584613895565b613a9983613235565b840190509392505050565b6000604082019050613ab960008301866134aa565b8181036020830152613acc818486613a77565b9050949350505050565b7f4552433732313a20617070726f76616c20746f2063757272656e74206f776e6560008201527f7200000000000000000000000000000000000000000000000000000000000000602082015250565b6000613b326021836131fa565b9150613b3d82613ad6565b604082019050919050565b60006020820190508181036000830152613b6181613b25565b9050919050565b7f4552433732313a20617070726f76652063616c6c6572206973206e6f7420746f60008201527f6b656e206f776e6572206f7220617070726f76656420666f7220616c6c000000602082015250565b6000613bc4603d836131fa565b9150613bcf82613b68565b604082019050919050565b60006020820190508181036000830152613bf381613bb7565b9050919050565b7f4552433732313a2063616c6c6572206973206e6f7420746f6b656e206f776e6560008201527f72206f7220617070726f76656400000000000000000000000000000000000000602082015250565b6000613c56602d836131fa565b9150613c6182613bfa565b604082019050919050565b60006020820190508181036000830152613c8581613c49565b9050919050565b7f496e76616c696420616d6f756e74000000000000000000000000000000000000600082015250565b6000613cc2600e836131fa565b9150613ccd82613c8c565b602082019050919050565b60006020820190508181036000830152613cf181613cb5565b9050919050565b7f5374616b65206c6f636b65640000000000000000000000000000000000000000600082015250565b6000613d2e600c836131fa565b9150613d3982613cf8565b602082019050919050565b60006020820190508181036000830152613d5d81613d21565b9050919050565b7f4e487b7100000000000000000000000000000000000000000000000000000000600052601160045260246000fd5b6000613d9e826132ff565b9150613da9836132ff565b9250828201905080821115613dc157613dc0613d64565b5b92915050565b6000613dd2826132ff565b9150613ddd836132ff565b9250828203905081811115613df557613df4613d64565b5b92915050565b6000604082019050613e106000830185613501565b613e1d60208301846134aa565b9392505050565b600081519050613e3381613778565b92915050565b600060208284031215613e4f57613e4e61312a565b5b6000613e5d84828501613e24565b91505092915050565b7f556e7374616b65207472616e73666572206661696c6564000000000000000000600082015250565b6000613e9c6017836131fa565b9150613ea782613e66565b602082019050919050565b60006020820190508181036000830152613ecb81613e8f565b9050919050565b7f526577617264207472616e73666572206661696c656400000000000000000000600082015250565b6000613f086016836131fa565b9150613f1382613ed2565b602082019050919050565b60006020820190508181036000830152613f3781613efb565b9050919050565b6000606082019050613f5360008301866134aa565b613f6060208301856134aa565b613f6d60408301846134aa565b949350505050565b7f4552433732313a20696e76616c696420746f6b656e2049440000000000000000600082015250565b6000613fab6018836131fa565b9150613fb682613f75565b602082019050919050565b60006020820190508181036000830152613fda81613f9e565b9050919050565b7f4552433732313a2061646472657373207a65726f206973206e6f74206120766160008201527f6c6964206f776e65720000000000000000000000000000000000000000000000602082015250565b600061403d6029836131fa565b915061404882613fe1565b604082019050919050565b6000602082019050818103600083015261406c81614030565b9050919050565b7f41505220746f6f20686967680000000000000000000000000000000000000000600082015250565b60006140a9600c836131fa565b91506140b482614073565b602082019050919050565b600060208201905081810360008301526140d88161409c565b9050919050565b7f416d6f756e7420746f6f206c6f77000000000000000000000000000000000000600082015250565b6000614115600e836131fa565b9150614120826140df565b602082019050919050565b6000602082019050818103600083015261414481614108565b9050919050565b60006060820190506141606000830186613501565b61416d6020830185613501565b61417a60408301846134aa565b949350505050565b7f5472616e73666572206661696c65640000000000000000000000000000000000600082015250565b60006141b8600f836131fa565b91506141c382614182565b602082019050919050565b600060208201905081810360008301526141e7816141ab565b9050919050565b600060408201905061420360008301856134aa565b61421060208301846134aa565b9392505050565b7f4e6f207374616b65000000000000000000000000000000000000000000000000600082015250565b600061424d6008836131fa565b915061425882614217565b602082019050919050565b6000602082019050818103600083015261427c81614240565b9050919050565b7f4e6f207265776172647300000000000000000000000000000000000000000000600082015250565b60006142b9600a836131fa565b91506142c482614283565b602082019050919050565b600060208201905081810360008301526142e8816142ac565b9050919050565b600081905092915050565b6000614305826131ef565b61430f81856142ef565b935061431f81856020860161320b565b80840191505092915050565b600061433782856142fa565b915061434382846142fa565b91508190509392505050565b7f4f776e61626c653a206e6577206f776e657220697320746865207a65726f206160008201527f6464726573730000000000000000000000000000000000000000000000000000602082015250565b60006143ab6026836131fa565b91506143b68261434f565b604082019050919050565b600060208201905081810360008301526143da8161439e565b9050919050565b7f496e76616c696420746f00000000000000000000000000000000000000000000600082015250565b6000614417600a836131fa565b9150614422826143e1565b602082019050919050565b600060208201905081810360008301526144468161440a565b9050919050565b7f5769746864726177206661696c65640000000000000000000000000000000000600082015250565b6000614483600f836131fa565b915061448e8261444d565b602082019050919050565b600060208201905081810360008301526144b281614476565b9050919050565b7f4f776e61626c653a2063616c6c6572206973206e6f7420746865206f776e6572600082015250565b60006144ef6020836131fa565b91506144fa826144b9565b602082019050919050565b6000602082019050818103600083015261451e816144e2565b9050919050565b6000614530826132ff565b91507fffffffffffffffffffffffffffffffffffffffffffffffffffffffffffffffff820361456257614561613d64565b5b600182019050919050565b60008190508160005260206000209050919050565b60006020601f8301049050919050565b600082821b905092915050565b6000600883026145cf7fffffffffffffffffffffffffffffffffffffffffffffffffffffffffffffffff82614592565b6145d98683614592565b95508019841693508086168417925050509392505050565b600061460c614607614602846132ff565b6136fe565b6132ff565b9050919050565b6000819050919050565b614626836145f1565b61463a61463282614613565b84845461459f565b825550505050565b600090565b61464f614642565b61465a81848461461d565b505050565b5b8181101561467e57614673600082614647565b600181019050614660565b5050565b601f8211156146c3576146948161456d565b61469d84614582565b810160208510156146ac578190505b6146c06146b885614582565b83018261465f565b50505b505050565b600082821c905092915050565b60006146e6600019846008026146c8565b1980831691505092915050565b60006146ff83836146d5565b9150826002028217905092915050565b614718826131ef565b67ffffffffffffffff811115614731576147306137e9565b5b61473b8254613a46565b614746828285614682565b600060209050601f8311600181146147795760008415614767578287015190505b61477185826146f3565b8655506147d9565b601f1984166147878661456d565b60005b828110156147af5784890151825560018201915060208501945060208101905061478a565b868310156147cc57848901516147c8601f8916826146d5565b8355505b6001600288020188555050505b505050505050565b7f4552433732313a207472616e736665722066726f6d20696e636f72726563742060008201527f6f776e6572000000000000000000000000000000000000000000000000000000602082015250565b600061483d6025836131fa565b9150614848826147e1565b604082019050919050565b6000602082019050818103600083015261486c81614830565b9050919050565b7f4552433732313a207472616e7366657220746f20746865207a65726f2061646460008201527f7265737300000000000000000000000000000000000000000000000000000000602082015250565b60006148cf6024836131fa565b91506148da82614873565b604082019050919050565b600060208201905081810360008301526148fe816148c2565b9050919050565b7f5265656e7472616e637947756172643a207265656e7472616e742063616c6c00600082015250565b600061493b601f836131fa565b915061494682614905565b602082019050919050565b6000602082019050818103600083015261496a8161492e565b9050919050565b7f5061757361626c653a2070617573656400000000000000000000000000000000600082015250565b60006149a76010836131fa565b91506149b282614971565b602082019050919050565b600060208201905081810360008301526149d68161499a565b9050919050565b60006149e8826132ff565b91506149f3836132ff565b9250828202614a01816132ff565b91508282048414831517614a1857614a17613d64565b5b5092915050565b7f4e487b7100000000000000000000000000000000000000000000000000000000600052601260045260246000fd5b6000614a59826132ff565b9150614a64836132ff565b925082614a7457614a73614a1f565b5b828204905092915050565b7f4552433732313a20617070726f766520746f2063616c6c657200000000000000600082015250565b6000614ab56019836131fa565b9150614ac082614a7f565b602082019050919050565b60006020820190508181036000830152614ae481614aa8565b9050919050565b7f4552433732313a207472616e7366657220746f206e6f6e20455243373231526560008201527f63656976657220696d706c656d656e7465720000000000000000000000000000602082015250565b6000614b476032836131fa565b9150614b5282614aeb565b604082019050919050565b60006020820190508181036000830152614b7681614b3a565b9050919050565b7f45524337323155524953746f726167653a2055524920736574206f66206e6f6e60008201527f6578697374656e7420746f6b656e000000000000000000000000000000000000602082015250565b6000614bd9602e836131fa565b9150614be482614b7d565b604082019050919050565b60006020820190508181036000830152614c0881614bcc565b9050919050565b7f5061757361626c653a206e6f7420706175736564000000000000000000000000600082015250565b6000614c456014836131fa565b9150614c5082614c0f565b602082019050919050565b60006020820190508181036000830152614c7481614c38565b9050919050565b600081519050919050565b600082825260208201905092915050565b6000614ca282614c7b565b614cac8185614c86565b9350614cbc81856020860161320b565b614cc581613235565b840191505092915050565b6000608082019050614ce56000830187613501565b614cf26020830186613501565b614cff60408301856134aa565b8181036060830152614d118184614c97565b905095945050505050565b600081519050614d2b81613160565b92915050565b600060208284031215614d4757614d4661312a565b5b6000614d5584828501614d1c565b91505092915050565b7f4552433732313a206d696e7420746f20746865207a65726f2061646472657373600082015250565b6000614d946020836131fa565b9150614d9f82614d5e565b602082019050919050565b60006020820190508181036000830152614dc381614d87565b9050919050565b7f4552433732313a20746f6b656e20616c7265616479206d696e74656400000000600082015250565b6000614e00601c836131fa565b9150614e0b82614dca565b602082019050919050565b60006020820190508181036000830152614e2f81614df3565b905091905056fea26469706673582212206c49a8422d3dd5cb119bfa6f1c7c5a72dc8402052f6fd93449d46b1a60df44da64736f6c63430008140033",
  "linkReferences": {},
  "deployedLinkReferences": {}
}