{"contracts/GreenFiCore.sol":{"GreenFiCore":{"abi":[{"inputs":[{"internalType":"address","name":"_stakingToken","type":"address"},{"internalType":"uint256","name":"_aprBps","type":"uint256"},{"internalType":"uint256","name":"_minStakeAmount","type":"uint256"},{"internalType":"uint256","name":"_lockPeriod","type":"uint256"}],"stateMutability":"nonpayable","type":"constructor"},{"anonymous":false,"inputs":[{"indexed":true,"internalType":"address","name":"owner","type":"address"},{"indexed":true,"internalType":"address","name":"approved","type":"address"},{"indexed":true,"internalType":"uint256","name":"tokenId","type":"uint256"}],"name":"Approval","type":"event"},{"anonymous":false,"inputs":[{"indexed":true,"internalType":"address","name":"owner","type":"address"},{"indexed":true,"internalType":"address","name":"operator","type":"address"},{"indexed":false,"internalType":"bool","name":"approved","type":"bool"}],"name":"ApprovalForAll","type":"event"},{"anonymous":false,"inputs":[{"indexed":false,"internalType":"uint256","name":"_fromTokenId","type":"uint256"},{"indexed":false,"internalType":"uint256","name":"_toTokenId","type":"uint256"}],"name":"BatchMetadataUpdate","type":"event"},{"anonymous":false,"inputs":[{"indexed":true,"internalType":"address","name":"user","type":"address"},{"indexed":false,"internalType":"uint256","name":"reward","type":"uint256"},{"indexed":false,"internalType":"uint256","name":"timestamp","type":"uint256"}],"name":"ClaimReward","type":"event"},{"anonymous":false,"inputs":[{"indexed":false,"internalType":"uint256","name":"_tokenId","type":"uint256"}],"name":"MetadataUpdate","type":"event"},{"anonymous":false,"inputs":[{"indexed":true,"internalType":"address","name":"user","type":"address"},{"indexed":true,"internalType":"uint256","name":"tokenId","type":"uint256"},{"indexed":false,"internalType":"uint256","name":"carbonOffset","type":"uint256"},{"indexed":false,"internalType":"string","name":"projectName","type":"string"},{"indexed":false,"internalType":"string","name":"date","type":"string"},{"indexed":false,"internalType":"string","name":"badgeTier","type":"string"}],"name":"MintImpactNFT","type":"event"},{"anonymous":false,"inputs":[{"indexed":true,"internalType":"address","name":"previousOwner","type":"address"},{"indexed":true,"internalType":"address","name":"newOwner","type":"address"}],"name":"OwnershipTransferred","type":"event"},{"anonymous":false,"inputs":[{"indexed":false,"internalType":"address","name":"account","type":"address"}],"name":"Paused","type":"event"},{"anonymous":false,"inputs":[{"indexed":true,"internalType":"uint256","name":"projectId","type":"uint256"},{"indexed":false,"internalType":"uint256","name":"amount","type":"uint256"},{"indexed":false,"internalType":"string","name":"projectName","type":"string"}],"name":"ProjectFunded","type":"event"},{"anonymous":false,"inputs":[{"indexed":true,"internalType":"address","name":"user","type":"address"},{"indexed":false,"internalType":"uint256","name":"amount","type":"uint256"},{"indexed":false,"internalType":"uint256","name":"timestamp","type":"uint256"}],"name":"Stake","type":"event"},{"anonymous":false,"inputs":[{"indexed":true,"internalType":"address","name":"from","type":"address"},{"indexed":true,"internalType":"address","name":"to","type":"address"},{"indexed":true,"internalType":"uint256","name":"tokenId","type":"uint256"}],"name":"Transfer","type":"event"},{"anonymous":false,"inputs":[{"indexed":false,"internalType":"address","name":"account","type":"address"}],"name":"Unpaused","type":"event"},{"anonymous":false,"inputs":[{"indexed":true,"internalType":"address","name":"user","type":"address"},{"indexed":false,"internalType":"uint256","name":"amount","type":"uint256"},{"indexed":false,"internalType":"uint256","name":"reward","type":"uint256"},{"indexed":false,"internalType":"uint256","name":"timestamp","type":"uint256"}],"name":"Unstake","type":"event"},{"inputs":[{"internalType":"address","name":"to","type":"address"},{"internalType":"uint256","name":"tokenId","type":"uint256"}],"name":"approve","outputs":[],"stateMutability":"nonpayable","type":"function"},{"inputs":[],"name":"aprBps","outputs":[{"internalType":"uint256","name":"","type":"uint256"}],"stateMutability":"view","type":"function"},{"inputs":[{"internalType":"address","name":"owner","type":"address"}],"name":"balanceOf","outputs":[{"internalType":"uint256","name":"","type":"uint256"}],"stateMutability":"view","type":"function"},{"inputs":[],"name":"claimReward","outputs":[],"stateMutability":"nonpayable","type":"function"},{"inputs":[{"internalType":"uint256","name":"_projectId","type":"uint256"},{"internalType":"uint256","name":"_amount","type":"uint256"},{"internalType":"string","name":"_projectName","type":"string"}],"name":"emitProjectFunded","outputs":[],"stateMutability":"nonpayable","type":"function"},{"inputs":[{"internalType":"uint256","name":"tokenId","type":"uint256"}],"name":"getApproved","outputs":[{"internalType":"address","name":"","type":"address"}],"stateMutability":"view","type":"function"},{"inputs":[{"internalType":"uint256","name":"","type":"uint256"}],"name":"impactMetadataByTokenId","outputs":[{"internalType":"uint256","name":"carbonOffset","type":"uint256"},{"internalType":"string","name":"projectName","type":"string"},{"internalType":"string","name":"date","type":"string"},{"internalType":"string","name":"badgeTier","type":"string"}],"stateMutability":"view","type":"function"},{"inputs":[{"internalType":"address","name":"owner","type":"address"},{"internalType":"address","name":"operator","type":"address"}],"name":"isApprovedForAll","outputs":[{"internalType":"bool","name":"","type":"bool"}],"stateMutability":"view","type":"function"},{"inputs":[],"name":"lockPeriod","outputs":[{"internalType":"uint256","name":"","type":"uint256"}],"stateMutability":"view","type":"function"},{"inputs":[],"name":"minStakeAmount","outputs":[{"internalType":"uint256","name":"","type":"uint256"}],"stateMutability":"view","type":"function"},{"inputs":[{"internalType":"address","name":"_user","type":"address"},{"internalType":"uint256","name":"_carbonOffset","type":"uint256"},{"internalType":"string","name":"_projectName","type":"string"},{"internalType":"string","name":"_date","type":"string"},{"internalType":"string","name":"_badgeTier","type":"string"},{"internalType":"string","name":"_tokenURI","type":"string"}],"name":"mintImpactNFTForUser","outputs":[{"internalType":"uint256","name":"","type":"uint256"}],"stateMutability":"nonpayable","type":"function"},{"inputs":[],"name":"name","outputs":[{"internalType":"string","name":"","type":"string"}],"stateMutability":"view","type":"function"},{"inputs":[],"name":"nextTokenId","outputs":[{"internalType":"uint256","name":"","type":"uint256"}],"stateMutability":"view","type":"function"},{"inputs":[],"name":"owner","outputs":[{"internalType":"address","name":"","type":"address"}],"stateMutability":"view","type":"function"},{"inputs":[{"internalType":"uint256","name":"tokenId","type":"uint256"}],"name":"ownerOf","outputs":[{"internalType":"address","name":"","type":"address"}],"stateMutability":"view","type":"function"},{"inputs":[],"name":"pause","outputs":[],"stateMutability":"nonpayable","type":"function"},{"inputs":[],"name":"paused","outputs":[{"internalType":"bool","name":"","type":"bool"}],"stateMutability":"view","type":"function"},{"inputs":[{"internalType":"address","name":"_user","type":"address"}],"name":"pendingReward","outputs":[{"internalType":"uint256","name":"","type":"uint256"}],"stateMutability":"view","type":"function"},{"inputs":[],"name":"renounceOwnership","outputs":[],"stateMutability":"nonpayable","type":"function"},{"inputs":[{"internalType":"address","name":"from","type":"address"},{"internalType":"address","name":"to","type":"address"},{"internalType":"uint256","name":"tokenId","type":"uint256"}],"name":"safeTransferFrom","outputs":[],"stateMutability":"nonpayable","type":"function"},{"inputs":[{"internalType":"address","name":"from","type":"address"},{"internalType":"address","name":"to","type":"address"},{"internalType":"uint256","name":"tokenId","type":"uint256"},{"internalType":"bytes","name":"data","type":"bytes"}],"name":"safeTransferFrom","outputs":[],"stateMutability":"nonpayable","type":"function"},{"inputs":[{"internalType":"uint256","name":"_aprBps","type":"uint256"}],"name":"setAPR","outputs":[],"stateMutability":"nonpayable","type":"function"},{"inputs":[{"internalType":"address","name":"operator","type":"address"},{"internalType":"bool","name":"approved","type":"bool"}],"name":"setApprovalForAll","outputs":[],"stateMutability":"nonpayable","type":"function"},{"inputs":[{"internalType":"uint256","name":"_lockPeriod","type":"uint256"}],"name":"setLockPeriod","outputs":[],"stateMutability":"nonpayable","type":"function"},{"inputs":[{"internalType":"uint256","name":"_minStakeAmount","type":"uint256"}],"name":"setMinStakeAmount","outputs":[],"stateMutability":"nonpayable","type":"function"},{"inputs":[{"internalType":"uint256","name":"_amount","type":"uint256"}],"name":"stake","outputs":[],"stateMutability":"nonpayable","type":"function"},{"inputs":[{"internalType":"address","name":"","type":"address"}],"name":"stakes","outputs":[{"internalType":"uint256","name":"amount","type":"uint256"},{"internalType":"uint256","name":"rewardDebt","type":"uint256"},{"internalType":"uint256","name":"lastUpdated","type":"uint256"},{"internalType":"uint256","name":"startTime","type":"uint256"}],"stateMutability":"view","type":"function"},{"inputs":[],"name":"stakingToken","outputs":[{"internalType":"contract IERC20","name":"","type":"address"}],"stateMutability":"view","type":"function"},{"inputs":[{"internalType":"bytes4","name":"interfaceId","type":"bytes4"}],"name":"supportsInterface","outputs":[{"internalType":"bool","name":"","type":"bool"}],"stateMutability":"view","type":"function"},{"inputs":[],"name":"symbol","outputs":[{"internalType":"string","name":"","type":"string"}],"stateMutability":"view","type":"function"},{"inputs":[{"internalType":"uint256","name":"tokenId","type":"uint256"}],"name":"tokenURI","outputs":[{"internalType":"string","name":"","type":"string"}],"stateMutability":"view","type":"function"},{"inputs":[{"internalType":"address","name":"from","type":"address"},{"internalType":"address","name":"to","type":"address"},{"internalType":"uint256","name":"tokenId","type":"uint256"}],"name":"transferFrom","outputs":[],"stateMutability":"nonpayable","type":"function"},{"inputs":[{"internalType":"address","name":"newOwner","type":"address"}],"name":"transferOwnership","outputs":[],"stateMutability":"nonpayable","type":"function"},{"inputs":[],"name":"unpause","outputs":[],"stateMutability":"nonpayable","type":"function"},{"inputs":[{"internalType":"uint256","name":"_amount","type":"uint256"}],"name":"unstake","outputs":[],"stateMutability":"nonpayable","type":"function"},{"inputs":[{"internalType":"uint256","name":"_amount","type":"uint256"},{"internalType":"address","name":"_to","type":"address"}],"name":"withdrawPlatformFunds","outputs":[],"stateMutability":"nonpayable","type":"function"}],"evm":{"bytecode":{"linkReferences":{},"object":"60a06040526001600d553480156200001657600080fd5b506040516200563d3803806200563d83398181016040528101906200003c919062000346565b6040518060400160405280601281526020017f477265656e466920496d70616374204e465400000000000000000000000000008152506040518060400160405280600881526020017f4746494d50414354000000000000000000000000000000000000000000000000815250620000c8620000bc620001d560201b60201c565b620001dd60201b60201c565b600180819055506000600260006101000a81548160ff0219169083151502179055508160039081620000fb919062000628565b5080600490816200010d919062000628565b505050600073ffffffffffffffffffffffffffffffffffffffff168473ffffffffffffffffffffffffffffffffffffffff160362000182576040517f08c379a0000000000000000000000000000000000000000000000000000000008152600401620001799062000770565b60405180910390fd5b8373ffffffffffffffffffffffffffffffffffffffff1660808173ffffffffffffffffffffffffffffffffffffffff168152505082600a8190555081600b8190555080600c819055505050505062000792565b600033905090565b60008060009054906101000a900473ffffffffffffffffffffffffffffffffffffffff169050816000806101000a81548173ffffffffffffffffffffffffffffffffffffffff021916908373ffffffffffffffffffffffffffffffffffffffff1602179055508173ffffffffffffffffffffffffffffffffffffffff168173ffffffffffffffffffffffffffffffffffffffff167f8be0079c531659141344cd1fd0a4f28419497f9722a3daafe3b4186f6b6457e060405160405180910390a35050565b600080fd5b600073ffffffffffffffffffffffffffffffffffffffff82169050919050565b6000620002d382620002a6565b9050919050565b620002e581620002c6565b8114620002f157600080fd5b50565b6000815190506200030581620002da565b92915050565b6000819050919050565b62000320816200030b565b81146200032c57600080fd5b50565b600081519050620003408162000315565b92915050565b60008060008060808587031215620003635762000362620002a1565b5b60006200037387828801620002f4565b945050602062000386878288016200032f565b935050604062000399878288016200032f565b9250506060620003ac878288016200032f565b91505092959194509250565b600081519050919050565b7f4e487b7100000000000000000000000000000000000000000000000000000000600052604160045260246000fd5b7f4e487b7100000000000000000000000000000000000000000000000000000000600052602260045260246000fd5b600060028204905060018216806200043a57607f821691505b60208210810362000450576200044f620003f2565b5b50919050565b60008190508160005260206000209050919050565b60006020601f8301049050919050565b600082821b905092915050565b600060088302620004ba7fffffffffffffffffffffffffffffffffffffffffffffffffffffffffffffffff826200047b565b620004c686836200047b565b95508019841693508086168417925050509392505050565b6000819050919050565b60006200050962000503620004fd846200030b565b620004de565b6200030b565b9050919050565b6000819050919050565b6200052583620004e8565b6200053d620005348262000510565b84845462000488565b825550505050565b600090565b6200055462000545565b620005618184846200051a565b505050565b5b8181101562000589576200057d6000826200054a565b60018101905062000567565b5050565b601f821115620005d857620005a28162000456565b620005ad846200046b565b81016020851015620005bd578190505b620005d5620005cc856200046b565b83018262000566565b50505b505050565b600082821c905092915050565b6000620005fd60001984600802620005dd565b1980831691505092915050565b6000620006188383620005ea565b9150826002028217905092915050565b6200063382620003b8565b67ffffffffffffffff8111156200064f576200064e620003c3565b5b6200065b825462000421565b620006688282856200058d565b600060209050601f831160018114620006a057600084156200068b578287015190505b6200069785826200060a565b86555062000707565b601f198416620006b08662000456565b60005b82811015620006da57848901518255600182019150602085019450602081019050620006b3565b86831015620006fa5784890151620006f6601f891682620005ea565b8355505b6001600288020188555050505b505050505050565b600082825260208201905092915050565b7f496e76616c696420746f6b656e00000000000000000000000000000000000000600082015250565b600062000758600d836200070f565b9150620007658262000720565b602082019050919050565b600060208201905081810360008301526200078b8162000749565b9050919050565b608051614e6c620007d160003960008181610c7e01528181610d64015281816112090152818161143f015281816116c10152611b260152614e6c6000f3fe608060405234801561001057600080fd5b506004361061021c5760003560e01c806372f702f311610125578063b88a802f116100ad578063eb4af0451161007c578063eb4af04514610607578063f188768414610623578063f2fde38b14610641578063f40f0f521461065d578063f58421461461068d5761021c565b8063b88a802f14610581578063b88d4fde1461058b578063c87b56dd146105a7578063e985e9c5146105d75761021c565b8063854303cf116100f4578063854303cf146104f15780638da5cb5b1461050d57806395d89b411461052b578063a22cb46514610549578063a694fc3a146105655761021c565b806372f702f31461048f57806375794a3c146104ad578063779972da146104cb5780638456cb59146104e75761021c565b80632e17de78116101a857806342842e0e1161017757806342842e0e146103eb5780635c975abb146104075780636352211e1461042557806370a0823114610455578063715018a6146104855761021c565b80632e17de7814610374578063358bc434146103905780633f4ba83a146103c35780633fd8b02f146103cd5761021c565b806309417787116101ef57806309417787146102cf578063095ea7b3146102eb57806316934fc41461030757806323b872dd1461033a57806325ac1df2146103565761021c565b806301ffc9a71461022157806306fdde031461025157806307dcd9f91461026f578063081812fc1461029f575b600080fd5b61023b6004803603810190610236919061318c565b6106a9565b60405161024891906131d4565b60405180910390f35b61025961070a565b604051610266919061327f565b60405180910390f35b6102896004803603810190610284919061339a565b61079c565b60405161029691906134b9565b60405180910390f35b6102b960048036038101906102b491906134d4565b6108d4565b6040516102c69190613510565b60405180910390f35b6102e960048036038101906102e4919061352b565b61091a565b005b6103056004803603810190610300919061359f565b610964565b005b610321600480360381019061031c91906135df565b610a7b565b604051610331949392919061360c565b60405180910390f35b610354600480360381019061034f9190613651565b610aab565b005b61035e610b0b565b60405161036b91906134b9565b60405180910390f35b61038e600480360381019061038991906134d4565b610b11565b005b6103aa60048036038101906103a591906134d4565b610e9f565b6040516103ba94939291906136a4565b60405180910390f35b6103cb611067565b005b6103d5611079565b6040516103e291906134b9565b60405180910390f35b61040560048036038101906104009190613651565b61107f565b005b61040f61109f565b60405161041c91906131d4565b60405180910390f35b61043f600480360381019061043a91906134d4565b6110b6565b60405161044c9190613510565b60405180910390f35b61046f600480360381019061046a91906135df565b61113c565b60405161047c91906134b9565b60405180910390f35b61048d6111f3565b005b610497611207565b6040516104a4919061375d565b60405180910390f35b6104b561122b565b6040516104c291906134b9565b60405180910390f35b6104e560048036038101906104e091906134d4565b611231565b005b6104ef611243565b005b61050b600480360381019061050691906134d4565b611255565b005b6105156112ac565b6040516105229190613510565b60405180910390f35b6105336112d5565b604051610540919061327f565b60405180910390f35b610563600480360381019061055e91906137a4565b611367565b005b61057f600480360381019061057a91906134d4565b61137d565b005b6105896115b3565b005b6105a560048036038101906105a09190613914565b6117f8565b005b6105c160048036038101906105bc91906134d4565b61185a565b6040516105ce919061327f565b60405180910390f35b6105f160048036038101906105ec9190613997565b61196c565b6040516105fe91906131d4565b60405180910390f35b610621600480360381019061061c91906134d4565b611a00565b005b61062b611a12565b60405161063891906134b9565b60405180910390f35b61065b600480360381019061065691906135df565b611a18565b005b610677600480360381019061067291906135df565b611a9b565b60405161068491906134b9565b60405180910390f35b6106a760048036038101906106a291906139d7565b611aad565b005b6000634906490660e01b7bffffffffffffffffffffffffffffffffffffffffffffffffffffffff1916827bffffffffffffffffffffffffffffffffffffffffffffffffffffffff19161480610703575061070282611c05565b5b9050919050565b60606003805461071990613a46565b80601f016020809104026020016040519081016040528092919081815260200182805461074590613a46565b80156107925780601f1061076757610100808354040283529160200191610792565b820191906000526020600020905b81548152906001019060200180831161077557829003601f168201915b5050505050905090565b60006107a6611ce7565b6108c48b8b8b8b8080601f016020809104026020016040519081016040528093929190818152602001838380828437600081840152601f19601f820116905080830192505050505050508a8a8080601f016020809104026020016040519081016040528093929190818152602001838380828437600081840152601f19601f8201169050808301925050505050505089898080601f016020809104026020016040519081016040528093929190818152602001838380828437600081840152601f19601f8201169050808301925050505050505088888080601f016020809104026020016040519081016040528093929190818152602001838380828437600081840152601f19601f82011690508083019250505050505050611d65565b90509a9950505050505050505050565b60006108df82611e81565b6007600083815260200190815260200160002060009054906101000a900473ffffffffffffffffffffffffffffffffffffffff169050919050565b610922611ce7565b837fcafdfee2d98eb48494b3c4812d3e553fcb4e8648361fb6ca7e23e42e9d6e198f84848460405161095693929190613aa4565b60405180910390a250505050565b600061096f826110b6565b90508073ffffffffffffffffffffffffffffffffffffffff168373ffffffffffffffffffffffffffffffffffffffff16036109df576040517f08c379a00000000000000000000000000000000000000000000000000000000081526004016109d690613b48565b60405180910390fd5b8073ffffffffffffffffffffffffffffffffffffffff166109fe611ecc565b73ffffffffffffffffffffffffffffffffffffffff161480610a2d5750610a2c81610a27611ecc565b61196c565b5b610a6c576040517f08c379a0000000000000000000000000000000000000000000000000000000008152600401610a6390613bda565b60405180910390fd5b610a768383611ed4565b505050565b600e6020528060005260406000206000915090508060000154908060010154908060020154908060030154905084565b610abc610ab6611ecc565b82611f8d565b610afb576040517f08c379a0000000000000000000000000000000000000000000000000000000008152600401610af290613c6c565b60405180910390fd5b610b06838383612022565b505050565b600a5481565b610b1961231b565b610b2161236a565b6000600e60003373ffffffffffffffffffffffffffffffffffffffff1673ffffffffffffffffffffffffffffffffffffffff168152602001908152602001600020905081816000015410158015610b785750600082115b610bb7576040517f08c379a0000000000000000000000000000000000000000000000000000000008152600401610bae90613cd8565b60405180910390fd5b610bf3816040518060800160405290816000820154815260200160018201548152602001600282015481526020016003820154815250506123b4565b610c32576040517f08c379a0000000000000000000000000000000000000000000000000000000008152600401610c2990613d44565b60405180910390fd5b60008160010154610c42336123fa565b610c4c9190613d93565b905082826000016000828254610c629190613dc7565b92505081905550600082600101819055504282600201819055507f000000000000000000000000000000000000000000000000000000000000000073ffffffffffffffffffffffffffffffffffffffff1663a9059cbb33856040518363ffffffff1660e01b8152600401610cd7929190613dfb565b6020604051808303816000875af1158015610cf6573d6000803e3d6000fd5b505050506040513d601f19601f82011682018060405250810190610d1a9190613e39565b610d59576040517f08c379a0000000000000000000000000000000000000000000000000000000008152600401610d5090613eb2565b60405180910390fd5b6000811115610e40577f000000000000000000000000000000000000000000000000000000000000000073ffffffffffffffffffffffffffffffffffffffff1663a9059cbb33836040518363ffffffff1660e01b8152600401610dbd929190613dfb565b6020604051808303816000875af1158015610ddc573d6000803e3d6000fd5b505050506040513d601f19601f82011682018060405250810190610e009190613e39565b610e3f576040517f08c379a0000000000000000000000000000000000000000000000000000000008152600401610e3690613f1e565b60405180910390fd5b5b3373ffffffffffffffffffffffffffffffffffffffff167ffbd65cfd6de1493db337385c0712095397ecbd0504df64b861cdfceb80c7b422848342604051610e8a93929190613f3e565b60405180910390a25050610e9c6124ea565b50565b600f602052806000526040600020600091509050806000015490806001018054610ec890613a46565b80601f0160208091040260200160405190810160405280929190818152602001828054610ef490613a46565b8015610f415780601f10610f1657610100808354040283529160200191610f41565b820191906000526020600020905b815481529060010190602001808311610f2457829003601f168201915b505050505090806002018054610f5690613a46565b80601f0160208091040260200160405190810160405280929190818152602001828054610f8290613a46565b8015610fcf5780601f10610fa457610100808354040283529160200191610fcf565b820191906000526020600020905b815481529060010190602001808311610fb257829003601f168201915b505050505090806003018054610fe490613a46565b80601f016020809104026020016040519081016040528092919081815260200182805461101090613a46565b801561105d5780601f106110325761010080835404028352916020019161105d565b820191906000526020600020905b81548152906001019060200180831161104057829003601f168201915b5050505050905084565b61106f611ce7565b6110776124f3565b565b600c5481565b61109a838383604051806020016040528060008152506117f8565b505050565b6000600260009054906101000a900460ff16905090565b6000806110c283612556565b9050600073ffffffffffffffffffffffffffffffffffffffff168173ffffffffffffffffffffffffffffffffffffffff1603611133576040517f08c379a000000000000000000000000000000000000000000000000000000000815260040161112a90613fc1565b60405180910390fd5b80915050919050565b60008073ffffffffffffffffffffffffffffffffffffffff168273ffffffffffffffffffffffffffffffffffffffff16036111ac576040517f08c379a00000000000000000000000000000000000000000000000000000000081526004016111a390614053565b60405180910390fd5b600660008373ffffffffffffffffffffffffffffffffffffffff1673ffffffffffffffffffffffffffffffffffffffff168152602001908152602001600020549050919050565b6111fb611ce7565b6112056000612593565b565b7f000000000000000000000000000000000000000000000000000000000000000081565b600d5481565b611239611ce7565b80600c8190555050565b61124b611ce7565b611253612657565b565b61125d611ce7565b6113888111156112a2576040517f08c379a0000000000000000000000000000000000000000000000000000000008152600401611299906140bf565b60405180910390fd5b80600a8190555050565b60008060009054906101000a900473ffffffffffffffffffffffffffffffffffffffff16905090565b6060600480546112e490613a46565b80601f016020809104026020016040519081016040528092919081815260200182805461131090613a46565b801561135d5780601f106113325761010080835404028352916020019161135d565b820191906000526020600020905b81548152906001019060200180831161134057829003601f168201915b5050505050905090565b611379611372611ecc565b83836126ba565b5050565b61138561231b565b61138d61236a565b600b548110156113d2576040517f08c379a00000000000000000000000000000000000000000000000000000000081526004016113c99061412b565b60405180910390fd5b6000600e60003373ffffffffffffffffffffffffffffffffffffffff1673ffffffffffffffffffffffffffffffffffffffff16815260200190815260200160002090506000611420336123fa565b9050808260010160008282546114369190613d93565b925050819055507f000000000000000000000000000000000000000000000000000000000000000073ffffffffffffffffffffffffffffffffffffffff166323b872dd3330866040518463ffffffff1660e01b815260040161149a9392919061414b565b6020604051808303816000875af11580156114b9573d6000803e3d6000fd5b505050506040513d601f19601f820116820180604052508101906114dd9190613e39565b61151c576040517f08c379a0000000000000000000000000000000000000000000000000000000008152600401611513906141ce565b60405180910390fd5b828260000160008282546115309190613d93565b925050819055504282600201819055506000826003015403611556574282600301819055505b3373ffffffffffffffffffffffffffffffffffffffff167f5af417134f72a9d41143ace85b0a26dce6f550f894f2cbc1eeee8810603d91b6844260405161159e9291906141ee565b60405180910390a250506115b06124ea565b50565b6115bb61231b565b6115c361236a565b6000600e60003373ffffffffffffffffffffffffffffffffffffffff1673ffffffffffffffffffffffffffffffffffffffff1681526020019081526020016000209050600081600001541161164d576040517f08c379a000000000000000000000000000000000000000000000000000000000815260040161164490614263565b60405180910390fd5b6000816001015461165d336123fa565b6116679190613d93565b9050600081116116ac576040517f08c379a00000000000000000000000000000000000000000000000000000000081526004016116a3906142cf565b60405180910390fd5b600082600101819055504282600201819055507f000000000000000000000000000000000000000000000000000000000000000073ffffffffffffffffffffffffffffffffffffffff1663a9059cbb33836040518363ffffffff1660e01b815260040161171a929190613dfb565b6020604051808303816000875af1158015611739573d6000803e3d6000fd5b505050506040513d601f19601f8201168201806040525081019061175d9190613e39565b61179c576040517f08c379a000000000000000000000000000000000000000000000000000000000815260040161179390613f1e565b60405180910390fd5b3373ffffffffffffffffffffffffffffffffffffffff167fe74e5c9d4ac1fc33412485f18c159a0a391efe287ab3fd271123f30e6bacf4e382426040516117e49291906141ee565b60405180910390a250506117f66124ea565b565b611809611803611ecc565b83611f8d565b611848576040517f08c379a000000000000000000000000000000000000000000000000000000000815260040161183f90613c6c565b60405180910390fd5b61185484848484612826565b50505050565b606061186582611e81565b600060096000848152602001908152602001600020805461188590613a46565b80601f01602080910402602001604051908101604052809291908181526020018280546118b190613a46565b80156118fe5780601f106118d3576101008083540402835291602001916118fe565b820191906000526020600020905b8154815290600101906020018083116118e157829003601f168201915b50505050509050600061190f612882565b90506000815103611924578192505050611967565b60008251111561195957808260405160200161194192919061432b565b60405160208183030381529060405292505050611967565b61196284612899565b925050505b919050565b6000600860008473ffffffffffffffffffffffffffffffffffffffff1673ffffffffffffffffffffffffffffffffffffffff16815260200190815260200160002060008373ffffffffffffffffffffffffffffffffffffffff1673ffffffffffffffffffffffffffffffffffffffff16815260200190815260200160002060009054906101000a900460ff16905092915050565b611a08611ce7565b80600b8190555050565b600b5481565b611a20611ce7565b600073ffffffffffffffffffffffffffffffffffffffff168173ffffffffffffffffffffffffffffffffffffffff1603611a8f576040517f08c379a0000000000000000000000000000000000000000000000000000000008152600401611a86906143c1565b60405180910390fd5b611a9881612593565b50565b6000611aa6826123fa565b9050919050565b611ab5611ce7565b600073ffffffffffffffffffffffffffffffffffffffff168173ffffffffffffffffffffffffffffffffffffffff1603611b24576040517f08c379a0000000000000000000000000000000000000000000000000000000008152600401611b1b9061442d565b60405180910390fd5b7f000000000000000000000000000000000000000000000000000000000000000073ffffffffffffffffffffffffffffffffffffffff1663a9059cbb82846040518363ffffffff1660e01b8152600401611b7f929190613dfb565b6020604051808303816000875af1158015611b9e573d6000803e3d6000fd5b505050506040513d601f19601f82011682018060405250810190611bc29190613e39565b611c01576040517f08c379a0000000000000000000000000000000000000000000000000000000008152600401611bf890614499565b60405180910390fd5b5050565b60007f80ac58cd000000000000000000000000000000000000000000000000000000007bffffffffffffffffffffffffffffffffffffffffffffffffffffffff1916827bffffffffffffffffffffffffffffffffffffffffffffffffffffffff19161480611cd057507f5b5e139f000000000000000000000000000000000000000000000000000000007bffffffffffffffffffffffffffffffffffffffffffffffffffffffff1916827bffffffffffffffffffffffffffffffffffffffffffffffffffffffff1916145b80611ce05750611cdf82612901565b5b9050919050565b611cef611ecc565b73ffffffffffffffffffffffffffffffffffffffff16611d0d6112ac565b73ffffffffffffffffffffffffffffffffffffffff1614611d63576040517f08c379a0000000000000000000000000000000000000000000000000000000008152600401611d5a90614505565b60405180910390fd5b565b6000600d6000815480929190611d7a90614525565b919050559050611d8a878261296b565b600082511115611d9f57611d9e8183612989565b5b604051806080016040528087815260200186815260200185815260200184815250600f6000838152602001908152602001600020600082015181600001556020820151816001019081611df2919061470f565b506040820151816002019081611e08919061470f565b506060820151816003019081611e1e919061470f565b50905050808773ffffffffffffffffffffffffffffffffffffffff167f417c648c4c0fc0ecf1a1da71e54833a7ebb64a7b97f01788f732592e09589a4b88888888604051611e6f94939291906136a4565b60405180910390a39695505050505050565b611e8a81612a2d565b611ec9576040517f08c379a0000000000000000000000000000000000000000000000000000000008152600401611ec090613fc1565b60405180910390fd5b50565b600033905090565b816007600083815260200190815260200160002060006101000a81548173ffffffffffffffffffffffffffffffffffffffff021916908373ffffffffffffffffffffffffffffffffffffffff160217905550808273ffffffffffffffffffffffffffffffffffffffff16611f47836110b6565b73ffffffffffffffffffffffffffffffffffffffff167f8c5be1e5ebec7d5bd14f71427d1e84f3dd0314c0f7b2291e5b200ac8c7c3b92560405160405180910390a45050565b600080611f99836110b6565b90508073ffffffffffffffffffffffffffffffffffffffff168473ffffffffffffffffffffffffffffffffffffffff161480611fdb5750611fda818561196c565b5b8061201957508373ffffffffffffffffffffffffffffffffffffffff16612001846108d4565b73ffffffffffffffffffffffffffffffffffffffff16145b91505092915050565b8273ffffffffffffffffffffffffffffffffffffffff16612042826110b6565b73ffffffffffffffffffffffffffffffffffffffff1614612098576040517f08c379a000000000000000000000000000000000000000000000000000000000815260040161208f90614853565b60405180910390fd5b600073ffffffffffffffffffffffffffffffffffffffff168273ffffffffffffffffffffffffffffffffffffffff1603612107576040517f08c379a00000000000000000000000000000000000000000000000000000000081526004016120fe906148e5565b60405180910390fd5b6121148383836001612a6e565b8273ffffffffffffffffffffffffffffffffffffffff16612134826110b6565b73ffffffffffffffffffffffffffffffffffffffff161461218a576040517f08c379a000000000000000000000000000000000000000000000000000000000815260040161218190614853565b60405180910390fd5b6007600082815260200190815260200160002060006101000a81549073ffffffffffffffffffffffffffffffffffffffff02191690556001600660008573ffffffffffffffffffffffffffffffffffffffff1673ffffffffffffffffffffffffffffffffffffffff168152602001908152602001600020600082825403925050819055506001600660008473ffffffffffffffffffffffffffffffffffffffff1673ffffffffffffffffffffffffffffffffffffffff16815260200190815260200160002060008282540192505081905550816005600083815260200190815260200160002060006101000a81548173ffffffffffffffffffffffffffffffffffffffff021916908373ffffffffffffffffffffffffffffffffffffffff160217905550808273ffffffffffffffffffffffffffffffffffffffff168473ffffffffffffffffffffffffffffffffffffffff167fddf252ad1be2c89b69c2b068fc378daa952ba7f163c4a11628f55a4df523b3ef60405160405180910390a46123168383836001612a88565b505050565b600260015403612360576040517f08c379a000000000000000000000000000000000000000000000000000000000815260040161235790614951565b60405180910390fd5b6002600181905550565b61237261109f565b156123b2576040517f08c379a00000000000000000000000000000000000000000000000000000000081526004016123a9906149bd565b60405180910390fd5b565b600080600c54036123c857600190506123f5565b60008260600151036123dd57600190506123f5565b600c5482606001516123ef9190613d93565b42101590505b919050565b600080600e60008473ffffffffffffffffffffffffffffffffffffffff1673ffffffffffffffffffffffffffffffffffffffff168152602001908152602001600020604051806080016040529081600082015481526020016001820154815260200160028201548152602001600382015481525050905060008160000151036124875760009150506124e5565b60008160400151426124999190613dc7565b90506000612710600a5484600001516124b291906149dd565b6124bc9190614a4e565b905060006301e1338083836124d191906149dd565b6124db9190614a4e565b9050809450505050505b919050565b60018081905550565b6124fb612a8e565b6000600260006101000a81548160ff0219169083151502179055507f5db9ee0a495bf2e6ff9c91a7834c1ba4fdd244a5e8aa4e537bd38aeae4b073aa61253f611ecc565b60405161254c9190613510565b60405180910390a1565b60006005600083815260200190815260200160002060009054906101000a900473ffffffffffffffffffffffffffffffffffffffff169050919050565b60008060009054906101000a900473ffffffffffffffffffffffffffffffffffffffff169050816000806101000a81548173ffffffffffffffffffffffffffffffffffffffff021916908373ffffffffffffffffffffffffffffffffffffffff1602179055508173ffffffffffffffffffffffffffffffffffffffff168173ffffffffffffffffffffffffffffffffffffffff167f8be0079c531659141344cd1fd0a4f28419497f9722a3daafe3b4186f6b6457e060405160405180910390a35050565b61265f61236a565b6001600260006101000a81548160ff0219169083151502179055507f62e78cea01bee320cd4e420270b5ea74000d11b0c9f74754ebdbfc544b05a2586126a3611ecc565b6040516126b09190613510565b60405180910390a1565b8173ffffffffffffffffffffffffffffffffffffffff168373ffffffffffffffffffffffffffffffffffffffff1603612728576040517f08c379a000000000000000000000000000000000000000000000000000000000815260040161271f90614acb565b60405180910390fd5b80600860008573ffffffffffffffffffffffffffffffffffffffff1673ffffffffffffffffffffffffffffffffffffffff16815260200190815260200160002060008473ffffffffffffffffffffffffffffffffffffffff1673ffffffffffffffffffffffffffffffffffffffff16815260200190815260200160002060006101000a81548160ff0219169083151502179055508173ffffffffffffffffffffffffffffffffffffffff168373ffffffffffffffffffffffffffffffffffffffff167f17307eab39ab6107e8899845ad3d59bd9653f200f220920489ca2b5937696c318360405161281991906131d4565b60405180910390a3505050565b612831848484612022565b61283d84848484612ad7565b61287c576040517f08c379a000000000000000000000000000000000000000000000000000000000815260040161287390614b5d565b60405180910390fd5b50505050565b606060405180602001604052806000815250905090565b60606128a482611e81565b60006128ae612882565b905060008151116128ce57604051806020016040528060008152506128f9565b806128d884612c5e565b6040516020016128e992919061432b565b6040516020818303038152906040525b915050919050565b60007f01ffc9a7000000000000000000000000000000000000000000000000000000007bffffffffffffffffffffffffffffffffffffffffffffffffffffffff1916827bffffffffffffffffffffffffffffffffffffffffffffffffffffffff1916149050919050565b612985828260405180602001604052806000815250612d2c565b5050565b61299282612a2d565b6129d1576040517f08c379a00000000000000000000000000000000000000000000000000000000081526004016129c890614bef565b60405180910390fd5b806009600084815260200190815260200160002090816129f1919061470f565b507ff8e1a15aba9398e019f0b49df1a4fde98ee17ae345cb5f6b5e2c27f5033e8ce782604051612a2191906134b9565b60405180910390a15050565b60008073ffffffffffffffffffffffffffffffffffffffff16612a4f83612556565b73ffffffffffffffffffffffffffffffffffffffff1614159050919050565b612a7661236a565b612a8284848484612d87565b50505050565b50505050565b612a9661109f565b612ad5576040517f08c379a0000000000000000000000000000000000000000000000000000000008152600401612acc90614c5b565b60405180910390fd5b565b6000612af88473ffffffffffffffffffffffffffffffffffffffff16612d8d565b15612c51578373ffffffffffffffffffffffffffffffffffffffff1663150b7a02612b21611ecc565b8786866040518563ffffffff1660e01b8152600401612b439493929190614cd0565b6020604051808303816000875af1925050508015612b7f57506040513d601f19601f82011682018060405250810190612b7c9190614d31565b60015b612c01573d8060008114612baf576040519150601f19603f3d011682016040523d82523d6000602084013e612bb4565b606091505b506000815103612bf9576040517f08c379a0000000000000000000000000000000000000000000000000000000008152600401612bf090614b5d565b60405180910390fd5b805181602001fd5b63150b7a0260e01b7bffffffffffffffffffffffffffffffffffffffffffffffffffffffff1916817bffffffffffffffffffffffffffffffffffffffffffffffffffffffff191614915050612c56565b600190505b949350505050565b606060006001612c6d84612db0565b01905060008167ffffffffffffffff811115612c8c57612c8b6137e9565b5b6040519080825280601f01601f191660200182016040528015612cbe5781602001600182028036833780820191505090505b509050600082602001820190505b600115612d21578080600190039150507f3031323334353637383961626364656600000000000000000000000000000000600a86061a8153600a8581612d1557612d14614a1f565b5b04945060008503612ccc575b819350505050919050565b612d368383612f03565b612d436000848484612ad7565b612d82576040517f08c379a0000000000000000000000000000000000000000000000000000000008152600401612d7990614b5d565b60405180910390fd5b505050565b50505050565b6000808273ffffffffffffffffffffffffffffffffffffffff163b119050919050565b600080600090507a184f03e93ff9f4daa797ed6e38ed64bf6a1f0100000000000000008310612e0e577a184f03e93ff9f4daa797ed6e38ed64bf6a1f0100000000000000008381612e0457612e03614a1f565b5b0492506040810190505b6d04ee2d6d415b85acef81000000008310612e4b576d04ee2d6d415b85acef81000000008381612e4157612e40614a1f565b5b0492506020810190505b662386f26fc100008310612e7a57662386f26fc100008381612e7057612e6f614a1f565b5b0492506010810190505b6305f5e1008310612ea3576305f5e1008381612e9957612e98614a1f565b5b0492506008810190505b6127108310612ec8576127108381612ebe57612ebd614a1f565b5b0492506004810190505b60648310612eeb5760648381612ee157612ee0614a1f565b5b0492506002810190505b600a8310612efa576001810190505b80915050919050565b600073ffffffffffffffffffffffffffffffffffffffff168273ffffffffffffffffffffffffffffffffffffffff1603612f72576040517f08c379a0000000000000000000000000000000000000000000000000000000008152600401612f6990614daa565b60405180910390fd5b612f7b81612a2d565b15612fbb576040517f08c379a0000000000000000000000000000000000000000000000000000000008152600401612fb290614e16565b60405180910390fd5b612fc9600083836001612a6e565b612fd281612a2d565b15613012576040517f08c379a000000000000000000000000000000000000000000000000000000000815260040161300990614e16565b60405180910390fd5b6001600660008473ffffffffffffffffffffffffffffffffffffffff1673ffffffffffffffffffffffffffffffffffffffff16815260200190815260200160002060008282540192505081905550816005600083815260200190815260200160002060006101000a81548173ffffffffffffffffffffffffffffffffffffffff021916908373ffffffffffffffffffffffffffffffffffffffff160217905550808273ffffffffffffffffffffffffffffffffffffffff16600073ffffffffffffffffffffffffffffffffffffffff167fddf252ad1be2c89b69c2b068fc378daa952ba7f163c4a11628f55a4df523b3ef60405160405180910390a461311c600083836001612a88565b5050565b6000604051905090565b600080fd5b600080fd5b60007fffffffff0000000000000000000000000000000000000000000000000000000082169050919050565b61316981613134565b811461317457600080fd5b50565b60008135905061318681613160565b92915050565b6000602082840312156131a2576131a161312a565b5b60006131b084828501613177565b91505092915050565b60008115159050919050565b6131ce816131b9565b82525050565b60006020820190506131e960008301846131c5565b92915050565b600081519050919050565b600082825260208201905092915050565b60005b8381101561322957808201518184015260208101905061320e565b60008484015250505050565b6000601f19601f8301169050919050565b6000613251826131ef565b61325b81856131fa565b935061326b81856020860161320b565b61327481613235565b840191505092915050565b600060208201905081810360008301526132998184613246565b905092915050565b600073ffffffffffffffffffffffffffffffffffffffff82169050919050565b60006132cc826132a1565b9050919050565b6132dc816132c1565b81146132e757600080fd5b50565b6000813590506132f9816132d3565b92915050565b6000819050919050565b613312816132ff565b811461331d57600080fd5b50565b60008135905061332f81613309565b92915050565b600080fd5b600080fd5b600080fd5b60008083601f84011261335a57613359613335565b5b8235905067ffffffffffffffff8111156133775761337661333a565b5b6020830191508360018202830111156133935761339261333f565b5b9250929050565b60008060008060008060008060008060c08b8d0312156133bd576133bc61312a565b5b60006133cb8d828e016132ea565b9a505060206133dc8d828e01613320565b99505060408b013567ffffffffffffffff8111156133fd576133fc61312f565b5b6134098d828e01613344565b985098505060608b013567ffffffffffffffff81111561342c5761342b61312f565b5b6134388d828e01613344565b965096505060808b013567ffffffffffffffff81111561345b5761345a61312f565b5b6134678d828e01613344565b945094505060a08b013567ffffffffffffffff81111561348a5761348961312f565b5b6134968d828e01613344565b92509250509295989b9194979a5092959850565b6134b3816132ff565b82525050565b60006020820190506134ce60008301846134aa565b92915050565b6000602082840312156134ea576134e961312a565b5b60006134f884828501613320565b91505092915050565b61350a816132c1565b82525050565b60006020820190506135256000830184613501565b92915050565b600080600080606085870312156135455761354461312a565b5b600061355387828801613320565b945050602061356487828801613320565b935050604085013567ffffffffffffffff8111156135855761358461312f565b5b61359187828801613344565b925092505092959194509250565b600080604083850312156135b6576135b561312a565b5b60006135c4858286016132ea565b92505060206135d585828601613320565b9150509250929050565b6000602082840312156135f5576135f461312a565b5b6000613603848285016132ea565b91505092915050565b600060808201905061362160008301876134aa565b61362e60208301866134aa565b61363b60408301856134aa565b61364860608301846134aa565b95945050505050565b60008060006060848603121561366a5761366961312a565b5b6000613678868287016132ea565b9350506020613689868287016132ea565b925050604061369a86828701613320565b9150509250925092565b60006080820190506136b960008301876134aa565b81810360208301526136cb8186613246565b905081810360408301526136df8185613246565b905081810360608301526136f38184613246565b905095945050505050565b6000819050919050565b600061372361371e613719846132a1565b6136fe565b6132a1565b9050919050565b600061373582613708565b9050919050565b60006137478261372a565b9050919050565b6137578161373c565b82525050565b6000602082019050613772600083018461374e565b92915050565b613781816131b9565b811461378c57600080fd5b50565b60008135905061379e81613778565b92915050565b600080604083850312156137bb576137ba61312a565b5b60006137c9858286016132ea565b92505060206137da8582860161378f565b9150509250929050565b600080fd5b7f4e487b7100000000000000000000000000000000000000000000000000000000600052604160045260246000fd5b61382182613235565b810181811067ffffffffffffffff821117156138405761383f6137e9565b5b80604052505050565b6000613853613120565b905061385f8282613818565b919050565b600067ffffffffffffffff82111561387f5761387e6137e9565b5b61388882613235565b9050602081019050919050565b82818337600083830152505050565b60006138b76138b284613864565b613849565b9050828152602081018484840111156138d3576138d26137e4565b5b6138de848285613895565b509392505050565b600082601f8301126138fb576138fa613335565b5b813561390b8482602086016138a4565b91505092915050565b6000806000806080858703121561392e5761392d61312a565b5b600061393c878288016132ea565b945050602061394d878288016132ea565b935050604061395e87828801613320565b925050606085013567ffffffffffffffff81111561397f5761397e61312f565b5b61398b878288016138e6565b91505092959194509250565b600080604083850312156139ae576139ad61312a565b5b60006139bc858286016132ea565b92505060206139cd858286016132ea565b9150509250929050565b600080604083850312156139ee576139ed61312a565b5b60006139fc85828601613320565b9250506020613a0d858286016132ea565b9150509250929050565b7f4e487b7100000000000000000000000000000000000000000000000000000000600052602260045260246000fd5b60006002820490506001821680613a5e57607f821691505b602082108103613a7157613a70613a17565b5b50919050565b6000613a8383856131fa565b9350613a90838584613895565b613a9983613235565b840190509392505050565b6000604082019050613ab960008301866134aa565b8181036020830152613acc818486613a77565b9050949350505050565b7f4552433732313a20617070726f76616c20746f2063757272656e74206f776e6560008201527f7200000000000000000000000000000000000000000000000000000000000000602082015250565b6000613b326021836131fa565b9150613b3d82613ad6565b604082019050919050565b60006020820190508181036000830152613b6181613b25565b9050919050565b7f4552433732313a20617070726f76652063616c6c6572206973206e6f7420746f60008201527f6b656e206f776e6572206f7220617070726f76656420666f7220616c6c000000602082015250565b6000613bc4603d836131fa565b9150613bcf82613b68565b604082019050919050565b60006020820190508181036000830152613bf381613bb7565b9050919050565b7f4552433732313a2063616c6c6572206973206e6f7420746f6b656e206f776e6560008201527f72206f7220617070726f76656400000000000000000000000000000000000000602082015250565b6000613c56602d836131fa565b9150613c6182613bfa565b604082019050919050565b60006020820190508181036000830152613c8581613c49565b9050919050565b7f496e76616c696420616d6f756e74000000000000000000000000000000000000600082015250565b6000613cc2600e836131fa565b9150613ccd82613c8c565b602082019050919050565b60006020820190508181036000830152613cf181613cb5565b9050919050565b7f5374616b65206c6f636b65640000000000000000000000000000000000000000600082015250565b6000613d2e600c836131fa565b9150613d3982613cf8565b602082019050919050565b60006020820190508181036000830152613d5d81613d21565b9050919050565b7f4e487b7100000000000000000000000000000000000000000000000000000000600052601160045260246000fd5b6000613d9e826132ff565b9150613da9836132ff565b9250828201905080821115613dc157613dc0613d64565b5b92915050565b6000613dd2826132ff565b9150613ddd836132ff565b9250828203905081811115613df557613df4613d64565b5b92915050565b6000604082019050613e106000830185613501565b613e1d60208301846134aa565b9392505050565b600081519050613e3381613778565b92915050565b600060208284031215613e4f57613e4e61312a565b5b6000613e5d84828501613e24565b91505092915050565b7f556e7374616b65207472616e73666572206661696c6564000000000000000000600082015250565b6000613e9c6017836131fa565b9150613ea782613e66565b602082019050919050565b60006020820190508181036000830152613ecb81613e8f565b9050919050565b7f526577617264207472616e73666572206661696c656400000000000000000000600082015250565b6000613f086016836131fa565b9150613f1382613ed2565b602082019050919050565b60006020820190508181036000830152613f3781613efb565b9050919050565b6000606082019050613f5360008301866134aa565b613f6060208301856134aa565b613f6d60408301846134aa565b949350505050565b7f4552433732313a20696e76616c696420746f6b656e2049440000000000000000600082015250565b6000613fab6018836131fa565b9150613fb682613f75565b602082019050919050565b60006020820190508181036000830152613fda81613f9e565b9050919050565b7f4552433732313a2061646472657373207a65726f206973206e6f74206120766160008201527f6c6964206f776e65720000000000000000000000000000000000000000000000602082015250565b600061403d6029836131fa565b915061404882613fe1565b604082019050919050565b6000602082019050818103600083015261406c81614030565b9050919050565b7f41505220746f6f20686967680000000000000000000000000000000000000000600082015250565b60006140a9600c836131fa565b91506140b482614073565b602082019050919050565b600060208201905081810360008301526140d88161409c565b9050919050565b7f416d6f756e7420746f6f206c6f77000000000000000000000000000000000000600082015250565b6000614115600e836131fa565b9150614120826140df565b602082019050919050565b6000602082019050818103600083015261414481614108565b9050919050565b60006060820190506141606000830186613501565b61416d6020830185613501565b61417a60408301846134aa565b949350505050565b7f5472616e73666572206661696c65640000000000000000000000000000000000600082015250565b60006141b8600f836131fa565b91506141c382614182565b602082019050919050565b600060208201905081810360008301526141e7816141ab565b9050919050565b600060408201905061420360008301856134aa565b61421060208301846134aa565b9392505050565b7f4e6f207374616b65000000000000000000000000000000000000000000000000600082015250565b600061424d6008836131fa565b915061425882614217565b602082019050919050565b6000602082019050818103600083015261427c81614240565b9050919050565b7f4e6f207265776172647300000000000000000000000000000000000000000000600082015250565b60006142b9600a836131fa565b91506142c482614283565b602082019050919050565b600060208201905081810360008301526142e8816142ac565b9050919050565b600081905092915050565b6000614305826131ef565b61430f81856142ef565b935061431f81856020860161320b565b80840191505092915050565b600061433782856142fa565b915061434382846142fa565b91508190509392505050565b7f4f776e61626c653a206e6577206f776e657220697320746865207a65726f206160008201527f6464726573730000000000000000000000000000000000000000000000000000602082015250565b60006143ab6026836131fa565b91506143b68261434f565b604082019050919050565b600060208201905081810360008301526143da8161439e565b9050919050565b7f496e76616c696420746f00000000000000000000000000000000000000000000600082015250565b6000614417600a836131fa565b9150614422826143e1565b602082019050919050565b600060208201905081810360008301526144468161440a565b9050919050565b7f5769746864726177206661696c65640000000000000000000000000000000000600082015250565b6000614483600f836131fa565b915061448e8261444d565b602082019050919050565b600060208201905081810360008301526144b281614476565b9050919050565b7f4f776e61626c653a2063616c6c6572206973206e6f7420746865206f776e6572600082015250565b60006144ef6020836131fa565b91506144fa826144b9565b602082019050919050565b6000602082019050818103600083015261451e816144e2565b9050919050565b6000614530826132ff565b91507fffffffffffffffffffffffffffffffffffffffffffffffffffffffffffffffff820361456257614561613d64565b5b600182019050919050565b60008190508160005260206000209050919050565b60006020601f8301049050919050565b600082821b905092915050565b6000600883026145cf7fffffffffffffffffffffffffffffffffffffffffffffffffffffffffffffffff82614592565b6145d98683614592565b95508019841693508086168417925050509392505050565b600061460c614607614602846132ff565b6136fe565b6132ff565b9050919050565b6000819050919050565b614626836145f1565b61463a61463282614613565b84845461459f565b825550505050565b600090565b61464f614642565b61465a81848461461d565b505050565b5b8181101561467e57614673600082614647565b600181019050614660565b5050565b601f8211156146c3576146948161456d565b61469d84614582565b810160208510156146ac578190505b6146c06146b885614582565b83018261465f565b50505b505050565b600082821c905092915050565b60006146e6600019846008026146c8565b1980831691505092915050565b60006146ff83836146d5565b9150826002028217905092915050565b614718826131ef565b67ffffffffffffffff811115614731576147306137e9565b5b61473b8254613a46565b614746828285614682565b600060209050601f8311600181146147795760008415614767578287015190505b61477185826146f3565b8655506147d9565b601f1984166147878661456d565b60005b828110156147af5784890151825560018201915060208501945060208101905061478a565b868310156147cc57848901516147c8601f8916826146d5565b8355505b6001600288020188555050505b505050505050565b7f4552433732313a207472616e736665722066726f6d20696e636f72726563742060008201527f6f776e6572000000000000000000000000000000000000000000000000000000602082015250565b600061483d6025836131fa565b9150614848826147e1565b604082019050919050565b6000602082019050818103600083015261486c81614830565b9050919050565b7f4552433732313a207472616e7366657220746f20746865207a65726f2061646460008201527f7265737300000000000000000000000000000000000000000000000000000000602082015250565b60006148cf6024836131fa565b91506148da82614873565b604082019050919050565b600060208201905081810360008301526148fe816148c2565b9050919050565b7f5265656e7472616e637947756172643a207265656e7472616e742063616c6c00600082015250565b600061493b601f836131fa565b915061494682614905565b602082019050919050565b6000602082019050818103600083015261496a8161492e565b9050919050565b7f5061757361626c653a2070617573656400000000000000000000000000000000600082015250565b60006149a76010836131fa565b91506149b282614971565b602082019050919050565b600060208201905081810360008301526149d68161499a565b9050919050565b60006149e8826132ff565b91506149f3836132ff565b9250828202614a01816132ff565b91508282048414831517614a1857614a17613d64565b5b5092915050565b7f4e487b7100000000000000000000000000000000000000000000000000000000600052601260045260246000fd5b6000614a59826132ff565b9150614a64836132ff565b925082614a7457614a73614a1f565b5b828204905092915050565b7f4552433732313a20617070726f766520746f2063616c6c657200000000000000600082015250565b6000614ab56019836131fa565b9150614ac082614a7f565b602082019050919050565b60006020820190508181036000830152614ae481614aa8565b9050919050565b7f4552433732313a207472616e7366657220746f206e6f6e20455243373231526560008201527f63656976657220696d706c656d656e7465720000000000000000000000000000602082015250565b6000614b476032836131fa565b9150614b5282614aeb565b604082019050919050565b60006020820190508181036000830152614b7681614b3a565b9050919050565b7f45524337323155524953746f726167653a2055524920736574206f66206e6f6e60008201527f6578697374656e7420746f6b656e000000000000000000000000000000000000602082015250565b6000614bd9602e836131fa565b9150614be482614b7d565b604082019050919050565b60006020820190508181036000830152614c0881614bcc565b9050919050565b7f5061757361626c653a206e6f7420706175736564000000000000000000000000600082015250565b6000614c456014836131fa565b9150614c5082614c0f565b602082019050919050565b60006020820190508181036000830152614c7481614c38565b9050919050565b600081519050919050565b600082825260208201905092915050565b6000614ca282614c7b565b614cac8185614c86565b9350614cbc81856020860161320b565b614cc581613235565b840191505092915050565b6000608082019050614ce56000830187613501565b614cf26020830186613501565b614cff60408301856134aa565b8181036060830152614d118184614c97565b905095945050505050565b600081519050614d2b81613160565b92915050565b600060208284031215614d4757614d4661312a565b5b6000614d5584828501614d1c565b91505092915050565b7f4552433732313a206d696e7420746f20746865207a65726f2061646472657373600082015250565b6000614d946020836131fa565b9150614d9f82614d5e565b602082019050919050565b60006020820190508181036000830152614dc381614d87565b9050919050565b7f4552433732313a20746f6b656e20616c7265616479206d696e74656400000000600082015250565b6000614e00601c836131fa565b9150614e0b82614dca565b602082019050919050565b60006020820190508181036000830152614e2f81614df3565b905091905056fea26469706673582212206c49a8422d3dd5cb119bfa6f1c7c5a72dc8402052f6fd93449d46b1a60df44da64736f6c63430008140033","opcodes":"PUSH1 0xA0 PUSH1 0x40 MSTORE PUSH1 0x1 PUSH1 0xD SSTORE CALLVALUE DUP1 ISZERO PUSH3 0x16 JUMPI PUSH1 0x0 DUP1 REVERT JUMPDEST POP PUSH1 0x40 MLOAD PUSH3 0x563D CODESIZE SUB DUP1 PUSH3 0x563D DUP4 CODECOPY DUP2 DUP2 ADD PUSH1 0x40 MSTORE DUP2 ADD SWAP1 PUSH3 0x3C SWAP2 SWAP1 PUSH3 0x346 JUMP JUMPDEST PUSH1 0x40 MLOAD DUP1 PUSH1 0x40 ADD PUSH1 0x40 MSTORE DUP1 PUSH1 0x12 DUP2 MSTORE PUSH1 0x20 ADD PUSH32 0x477265656E466920496D70616374204E46540000000000000000000000000000 DUP2 MSTORE POP PUSH1 0x40 MLOAD DUP1 PUSH1 0x40 ADD PUSH1 0x40 MSTORE DUP1 PUSH1 0x8 DUP2 MSTORE PUSH1 0x20 ADD PUSH32 0x4746494D50414354000000000000000000000000000000000000000000000000 DUP2 MSTORE POP PUSH3 0xC8 PUSH3 0xBC PUSH3 0x1D5 PUSH1 0x20 SHL PUSH1 0x20 SHR JUMP JUMPDEST PUSH3 0x1DD PUSH1 0x20 SHL PUSH1 0x20 SHR JUMP JUMPDEST PUSH1 0x1 DUP1 DUP2 SWAP1 SSTORE POP PUSH1 0x0 PUSH1 0x2 PUSH1 0x0 PUSH2 0x100 EXP DUP2 SLOAD DUP2 PUSH1 0xFF MUL NOT AND SWAP1 DUP4 ISZERO ISZERO MUL OR SWAP1 SSTORE POP DUP2 PUSH1 0x3 SWAP1 DUP2 PUSH3 0xFB SWAP2 SWAP1 PUSH3 0x628 JUMP JUMPDEST POP DUP1 PUSH1 0x4 SWAP1 DUP2 PUSH3 0x10D SWAP2 SWAP1 PUSH3 0x628 JUMP JUMPDEST POP POP POP PUSH1 0x0 PUSH20 0xFFFFFFFFFFFFFFFFFFFFFFFFFFFFFFFFFFFFFFFF AND DUP5 PUSH20 0xFFFFFFFFFFFFFFFFFFFFFFFFFFFFFFFFFFFFFFFF AND SUB PUSH3 0x182 JUMPI PUSH1 0x40 MLOAD PUSH32 0x8C379A000000000000000000000000000000000000000000000000000000000 DUP2 MSTORE PUSH1 0x4 ADD PUSH3 0x179 SWAP1 PUSH3 0x770 JUMP JUMPDEST PUSH1 0x40 MLOAD DUP1 SWAP2 SUB SWAP1 REVERT JUMPDEST DUP4 PUSH20 0xFFFFFFFFFFFFFFFFFFFFFFFFFFFFFFFFFFFFFFFF AND PUSH1 0x80 DUP2 PUSH20 0xFFFFFFFFFFFFFFFFFFFFFFFFFFFFFFFFFFFFFFFF AND DUP2 MSTORE POP POP DUP3 PUSH1 0xA DUP2 SWAP1 SSTORE POP DUP2 PUSH1 0xB DUP2 SWAP1 SSTORE POP DUP1 PUSH1 0xC DUP2 SWAP1 SSTORE POP POP POP POP POP PUSH3 0x792 JUMP JUMPDEST PUSH1 0x0 CALLER SWAP1 POP SWAP1 JUMP JUMPDEST PUSH1 0x0 DUP1 PUSH1 0x0 SWAP1 SLOAD SWAP1 PUSH2 0x100 EXP SWAP1 DIV PUSH20 0xFFFFFFFFFFFFFFFFFFFFFFFFFFFFFFFFFFFFFFFF AND SWAP1 POP DUP2 PUSH1 0x0 DUP1 PUSH2 0x100 EXP DUP2 SLOAD DUP2 PUSH20 0xFFFFFFFFFFFFFFFFFFFFFFFFFFFFFFFFFFFFFFFF MUL NOT AND SWAP1 DUP4 PUSH20 0xFFFFFFFFFFFFFFFFFFFFFFFFFFFFFFFFFFFFFFFF AND MUL OR SWAP1 SSTORE POP DUP2 PUSH20 0xFFFFFFFFFFFFFFFFFFFFFFFFFFFFFFFFFFFFFFFF AND DUP2 PUSH20 0xFFFFFFFFFFFFFFFFFFFFFFFFFFFFFFFFFFFFFFFF AND PUSH32 0x8BE0079C531659141344CD1FD0A4F28419497F9722A3DAAFE3B4186F6B6457E0 PUSH1 0x40 MLOAD PUSH1 0x40 MLOAD DUP1 SWAP2 SUB SWAP1 LOG3 POP POP JUMP JUMPDEST PUSH1 0x0 DUP1 REVERT JUMPDEST PUSH1 0x0 PUSH20 0xFFFFFFFFFFFFFFFFFFFFFFFFFFFFFFFFFFFFFFFF DUP3 AND SWAP1 POP SWAP2 SWAP1 POP JUMP JUMPDEST PUSH1 0x0 PUSH3 0x2D3 DUP3 PUSH3 0x2A6 JUMP JUMPDEST SWAP1 POP SWAP2 SWAP1 POP JUMP JUMPDEST PUSH3 0x2E5 DUP2 PUSH3 0x2C6 JUMP JUMPDEST DUP2 EQ PUSH3 0x2F1 JUMPI PUSH1 0x0 DUP1 REVERT JUMPDEST POP JUMP JUMPDEST PUSH1 0x0 DUP2 MLOAD SWAP1 POP PUSH3 0x305 DUP2 PUSH3 0x2DA JUMP JUMPDEST SWAP3 SWAP2 POP POP JUMP JUMPDEST PUSH1 0x0 DUP2 SWAP1 POP SWAP2 SWAP1 POP JUMP JUMPDEST PUSH3 0x320 DUP2 PUSH3 0x30B JUMP JUMPDEST DUP2 EQ PUSH3 0x32C JUMPI PUSH1 0x0 DUP1 REVERT JUMPDEST POP JUMP JUMPDEST PUSH1 0x0 DUP2 MLOAD SWAP1 POP PUSH3 0x340 DUP2 PUSH3 0x315 JUMP JUMPDEST SWAP3 SWAP2 POP POP JUMP JUMPDEST PUSH1 0x0 DUP1 PUSH1 0x0 DUP1 PUSH1 0x80 DUP6 DUP8 SUB SLT ISZERO PUSH3 0x363 JUMPI PUSH3 0x362 PUSH3 0x2A1 JUMP JUMPDEST JUMPDEST PUSH1 0x0 PUSH3 0x373 DUP8 DUP3 DUP9 ADD PUSH3 0x2F4 JUMP JUMPDEST SWAP5 POP POP PUSH1 0x20 PUSH3 0x386 DUP8 DUP3 DUP9 ADD PUSH3 0x32F JUMP JUMPDEST SWAP4 POP POP PUSH1 0x40 PUSH3 0x399 DUP8 DUP3 DUP9 ADD PUSH3 0x32F JUMP JUMPDEST SWAP3 POP POP PUSH1 0x60 PUSH3 0x3AC DUP8 DUP3 DUP9 ADD PUSH3 0x32F JUMP JUMPDEST SWAP2 POP POP SWAP3 SWAP6 SWAP2 SWAP5 POP SWAP3 POP JUMP JUMPDEST PUSH1 0x0 DUP2 MLOAD SWAP1 POP SWAP2 SWAP1 POP JUMP JUMPDEST PUSH32 0x4E487B7100000000000000000000000000000000000000000000000000000000 PUSH1 0x0 MSTORE PUSH1 0x41 PUSH1 0x4 MSTORE PUSH1 0x24 PUSH1 0x0 REVERT JUMPDEST PUSH32 0x4E487B7100000000000000000000000000000000000000000000000000000000 PUSH1 0x0 MSTORE PUSH1 0x22 PUSH1 0x4 MSTORE PUSH1 0x24 PUSH1 0x0 REVERT JUMPDEST PUSH1 0x0 PUSH1 0x2 DUP3 DIV SWAP1 POP PUSH1 0x1 DUP3 AND DUP1 PUSH3 0x43A JUMPI PUSH1 0x7F DUP3 AND SWAP2 POP JUMPDEST PUSH1 0x20 DUP3 LT DUP2 SUB PUSH3 0x450 JUMPI PUSH3 0x44F PUSH3 0x3F2 JUMP JUMPDEST JUMPDEST POP SWAP2 SWAP1 POP JUMP JUMPDEST PUSH1 0x0 DUP2 SWAP1 POP DUP2 PUSH1 0x0 MSTORE PUSH1 0x20 PUSH1 0x0 KECCAK256 SWAP1 POP SWAP2 SWAP1 POP JUMP JUMPDEST PUSH1 0x0 PUSH1 0x20 PUSH1 0x1F DUP4 ADD DIV SWAP1 POP SWAP2 SWAP1 POP JUMP JUMPDEST PUSH1 0x0 DUP3 DUP3 SHL SWAP1 POP SWAP3 SWAP2 POP POP JUMP JUMPDEST PUSH1 0x0 PUSH1 0x8 DUP4 MUL PUSH3 0x4BA PUSH32 0xFFFFFFFFFFFFFFFFFFFFFFFFFFFFFFFFFFFFFFFFFFFFFFFFFFFFFFFFFFFFFFFF DUP3 PUSH3 0x47B JUMP JUMPDEST PUSH3 0x4C6 DUP7 DUP4 PUSH3 0x47B JUMP JUMPDEST SWAP6 POP DUP1 NOT DUP5 AND SWAP4 POP DUP1 DUP7 AND DUP5 OR SWAP3 POP POP POP SWAP4 SWAP3 POP POP POP JUMP JUMPDEST PUSH1 0x0 DUP2 SWAP1 POP SWAP2 SWAP1 POP JUMP JUMPDEST PUSH1 0x0 PUSH3 0x509 PUSH3 0x503 PUSH3 0x4FD DUP5 PUSH3 0x30B JUMP JUMPDEST PUSH3 0x4DE JUMP JUMPDEST PUSH3 0x30B JUMP JUMPDEST SWAP1 POP SWAP2 SWAP1 POP JUMP JUMPDEST PUSH1 0x0 DUP2 SWAP1 POP SWAP2 SWAP1 POP JUMP JUMPDEST PUSH3 0x525 DUP4 PUSH3 0x4E8 JUMP JUMPDEST PUSH3 0x53D PUSH3 0x534 DUP3 PUSH3 0x510 JUMP JUMPDEST DUP5 DUP5 SLOAD PUSH3 0x488 JUMP JUMPDEST DUP3 SSTORE POP POP POP POP JUMP JUMPDEST PUSH1 0x0 SWAP1 JUMP JUMPDEST PUSH3 0x554 PUSH3 0x545 JUMP JUMPDEST PUSH3 0x561 DUP2 DUP5 DUP5 PUSH3 0x51A JUMP JUMPDEST POP POP POP JUMP JUMPDEST JUMPDEST DUP2 DUP2 LT ISZERO PUSH3 0x589 JUMPI PUSH3 0x57D PUSH1 0x0 DUP3 PUSH3 0x54A JUMP JUMPDEST PUSH1 0x1 DUP2 ADD SWAP1 POP PUSH3 0x567 JUMP JUMPDEST POP POP JUMP JUMPDEST PUSH1 0x1F DUP3 GT ISZERO PUSH3 0x5D8 JUMPI PUSH3 0x5A2 DUP2 PUSH3 0x456 JUMP JUMPDEST PUSH3 0x5AD DUP5 PUSH3 0x46B JUMP JUMPDEST DUP2 ADD PUSH1 0x20 DUP6 LT ISZERO PUSH3 0x5BD JUMPI DUP2 SWAP1 POP JUMPDEST PUSH3 0x5D5 PUSH3 0x5CC DUP6 PUSH3 0x46B JUMP JUMPDEST DUP4 ADD DUP3 PUSH3 0x566 JUMP JUMPDEST POP POP JUMPDEST POP POP POP JUMP JUMPDEST PUSH1 0x0 DUP3 DUP3 SHR SWAP1 POP SWAP3 SWAP2 POP POP JUMP JUMPDEST PUSH1 0x0 PUSH3 0x5FD PUSH1 0x0 NOT DUP5 PUSH1 0x8 MUL PUSH3 0x5DD JUMP JUMPDEST NOT DUP1 DUP4 AND SWAP2 POP POP SWAP3 SWAP2 POP POP JUMP JUMPDEST PUSH1 0x0 PUSH3 0x618 DUP4 DUP4 PUSH3 0x5EA JUMP JUMPDEST SWAP2 POP DUP3 PUSH1 0x2 MUL DUP3 OR SWAP1 POP SWAP3 SWAP2 POP POP JUMP JUMPDEST PUSH3 0x633 DUP3 PUSH3 0x3B8 JUMP JUMPDEST PUSH8 0xFFFFFFFFFFFFFFFF DUP2 GT ISZERO PUSH3 0x64F JUMPI PUSH3 0x64E PUSH3 0x3C3 JUMP JUMPDEST JUMPDEST PUSH3 0x65B DUP3 SLOAD PUSH3 0x421 JUMP JUMPDEST PUSH3 0x668 DUP3 DUP3 DUP6 PUSH3 0x58D JUMP JUMPDEST PUSH1 0x0 PUSH1 0x20 SWAP1 POP PUSH1 0x1F DUP4 GT PUSH1 0x1 DUP2 EQ PUSH3 0x6A0 JUMPI PUSH1 0x0 DUP5 ISZERO PUSH3 0x68B JUMPI DUP3 DUP8 ADD MLOAD SWAP1 POP JUMPDEST PUSH3 0x697 DUP6 DUP3 PUSH3 0x60A JUMP JUMPDEST DUP7 SSTORE POP PUSH3 0x707 JUMP JUMPDEST PUSH1 0x1F NOT DUP5 AND PUSH3 0x6B0 DUP7 PUSH3 0x456 JUMP JUMPDEST PUSH1 0x0 JUMPDEST DUP3 DUP2 LT ISZERO PUSH3 0x6DA JUMPI DUP5 DUP10 ADD MLOAD DUP3 SSTORE PUSH1 0x1 DUP3 ADD SWAP2 POP PUSH1 0x20 DUP6 ADD SWAP5 POP PUSH1 0x20 DUP2 ADD SWAP1 POP PUSH3 0x6B3 JUMP JUMPDEST DUP7 DUP4 LT ISZERO PUSH3 0x6FA JUMPI DUP5 DUP10 ADD MLOAD PUSH3 0x6F6 PUSH1 0x1F DUP10 AND DUP3 PUSH3 0x5EA JUMP JUMPDEST DUP4 SSTORE POP JUMPDEST PUSH1 0x1 PUSH1 0x2 DUP9 MUL ADD DUP9 SSTORE POP POP POP JUMPDEST POP POP POP POP POP POP JUMP JUMPDEST PUSH1 0x0 DUP3 DUP3 MSTORE PUSH1 0x20 DUP3 ADD SWAP1 POP SWAP3 SWAP2 POP POP JUMP JUMPDEST PUSH32 0x496E76616C696420746F6B656E00000000000000000000000000000000000000 PUSH1 0x0 DUP3 ADD MSTORE POP JUMP JUMPDEST PUSH1 0x0 PUSH3 0x758 PUSH1 0xD DUP4 PUSH3 0x70F JUMP JUMPDEST SWAP2 POP PUSH3 0x765 DUP3 PUSH3 0x720 JUMP JUMPDEST PUSH1 0x20 DUP3 ADD SWAP1 POP SWAP2 SWAP1 POP JUMP JUMPDEST PUSH1 0x0 PUSH1 0x20 DUP3 ADD SWAP1 POP DUP2 DUP2 SUB PUSH1 0x0 DUP4 ADD MSTORE PUSH3 0x78B DUP2 PUSH3 0x749 JUMP JUMPDEST SWAP1 POP SWAP2 SWAP1 POP JUMP JUMPDEST PUSH1 0x80 MLOAD PUSH2 0x4E6C PUSH3 0x7D1 PUSH1 0x0 CODECOPY PUSH1 0x0 DUP2 DUP2 PUSH2 0xC7E ADD MSTORE DUP2 DUP2 PUSH2 0xD64 ADD MSTORE DUP2 DUP2 PUSH2 0x1209 ADD MSTORE DUP2 DUP2 PUSH2 0x143F ADD MSTORE DUP2 DUP2 PUSH2 0x16C1 ADD MSTORE PUSH2 0x1B26 ADD MSTORE PUSH2 0x4E6C PUSH1 0x0 RETURN INVALID PUSH1 0x80 PUSH1 0x40 MSTORE CALLVALUE DUP1 ISZERO PUSH2 0x10 JUMPI PUSH1 0x0 DUP1 REVERT JUMPDEST POP PUSH1 0x4 CALLDATASIZE LT PUSH2 0x21C JUMPI PUSH1 0x0 CALLDATALOAD PUSH1 0xE0 SHR DUP1 PUSH4 0x72F702F3 GT PUSH2 0x125 JUMPI DUP1 PUSH4 0xB88A802F GT PUSH2 0xAD JUMPI DUP1 PUSH4 0xEB4AF045 GT PUSH2 0x7C JUMPI DUP1 PUSH4 0xEB4AF045 EQ PUSH2 0x607 JUMPI DUP1 PUSH4 0xF1887684 EQ PUSH2 0x623 JUMPI DUP1 PUSH4 0xF2FDE38B EQ PUSH2 0x641 JUMPI DUP1 PUSH4 0xF40F0F52 EQ PUSH2 0x65D JUMPI DUP1 PUSH4 0xF5842146 EQ PUSH2 0x68D JUMPI PUSH2 0x21C JUMP JUMPDEST DUP1 PUSH4 0xB88A802F EQ PUSH2 0x581 JUMPI DUP1 PUSH4 0xB88D4FDE EQ PUSH2 0x58B JUMPI DUP1 PUSH4 0xC87B56DD EQ PUSH2 0x5A7 JUMPI DUP1 PUSH4 0xE985E9C5 EQ PUSH2 0x5D7 JUMPI PUSH2 0x21C JUMP JUMPDEST DUP1 PUSH4 0x854303CF GT PUSH2 0xF4 JUMPI DUP1 PUSH4 0x854303CF EQ PUSH2 0x4F1 JUMPI DUP1 PUSH4 0x8DA5CB5B EQ PUSH2 0x50D JUMPI DUP1 PUSH4 0x95D89B41 EQ PUSH2 0x52B JUMPI DUP1 PUSH4 0xA22CB465 EQ PUSH2 0x549 JUMPI DUP1 PUSH4 0xA694FC3A EQ PUSH2 0x565 JUMPI PUSH2 0x21C JUMP JUMPDEST DUP1 PUSH4 0x72F702F3 EQ PUSH2 0x48F JUMPI DUP1 PUSH4 0x75794A3C EQ PUSH2 0x4AD JUMPI DUP1 PUSH4 0x779972DA EQ PUSH2 0x4CB JUMPI DUP1 PUSH4 0x8456CB59 EQ PUSH2 0x4E7 JUMPI PUSH2 0x21C JUMP JUMPDEST DUP1 PUSH4 0x2E17DE78 GT PUSH2 0x1A8 JUMPI DUP1 PUSH4 0x42842E0E GT PUSH2 0x177 JUMPI DUP1 PUSH4 0x42842E0E EQ PUSH2 0x3EB JUMPI DUP1 PUSH4 0x5C975ABB EQ PUSH2 0x407 JUMPI DUP1 PUSH4 0x6352211E EQ PUSH2 0x425 JUMPI DUP1 PUSH4 0x70A08231 EQ PUSH2 0x455 JUMPI DUP1 PUSH4 0x715018A6 EQ PUSH2 0x485 JUMPI PUSH2 0x21C JUMP JUMPDEST DUP1 PUSH4 0x2E17DE78 EQ PUSH2 0x374 JUMPI DUP1 PUSH4 0x358BC434 EQ PUSH2 0x390 JUMPI DUP1 PUSH4 0x3F4BA83A EQ PUSH2 0x3C3 JUMPI DUP1 PUSH4 0x3FD8B02F EQ PUSH2 0x3CD JUMPI PUSH2 0x21C JUMP JUMPDEST DUP1 PUSH4 0x9417787 GT PUSH2 0x1EF JUMPI DUP1 PUSH4 0x9417787 EQ PUSH2 0x2CF JUMPI DUP1 PUSH4 0x95EA7B3 EQ PUSH2 0x2EB JUMPI DUP1 PUSH4 0x16934FC4 EQ PUSH2 0x307 JUMPI DUP1 PUSH4 0x23B872DD EQ PUSH2 0x33A JUMPI DUP1 PUSH4 0x25AC1DF2 EQ PUSH2 0x356 JUMPI PUSH2 0x21C JUMP JUMPDEST DUP1 PUSH4 0x1FFC9A7 EQ PUSH2 0x221 JUMPI DUP1 PUSH4 0x6FDDE03 EQ PUSH2 0x251 JUMPI DUP1 PUSH4 0x7DCD9F9 EQ PUSH2 0x26F JUMPI DUP1 PUSH4 0x81812FC EQ PUSH2 0x29F JUMPI JUMPDEST PUSH1 0x0 DUP1 REVERT JUMPDEST PUSH2 0x23B PUSH1 0x4 DUP1 CALLDATASIZE SUB DUP2 ADD SWAP1 PUSH2 0x236 SWAP2 SWAP1 PUSH2 0x318C JUMP JUMPDEST PUSH2 0x6A9 JUMP JUMPDEST PUSH1 0x40 MLOAD PUSH2 0x248 SWAP2 SWAP1 PUSH2 0x31D4 JUMP JUMPDEST PUSH1 0x40 MLOAD DUP1 SWAP2 SUB SWAP1 RETURN JUMPDEST PUSH2 0x259 PUSH2 0x70A JUMP JUMPDEST PUSH1 0x40 MLOAD PUSH2 0x266 SWAP2 SWAP1 PUSH2 0x327F JUMP JUMPDEST PUSH1 0x40 MLOAD DUP1 SWAP2 SUB SWAP1 RETURN JUMPDEST PUSH2 0x289 PUSH1 0x4 DUP1 CALLDATASIZE SUB DUP2 ADD SWAP1 PUSH2 0x284 SWAP2 SWAP1 PUSH2 0x339A JUMP JUMPDEST PUSH2 0x79C JUMP JUMPDEST PUSH1 0x40 MLOAD PUSH2 0x296 SWAP2 SWAP1 PUSH2 0x34B9 JUMP JUMPDEST PUSH1 0x40 MLOAD DUP1 SWAP2 SUB SWAP1 RETURN JUMPDEST PUSH2 0x2B9 PUSH1 0x4 DUP1 CALLDATASIZE SUB DUP2 ADD SWAP1 PUSH2 0x2B4 SWAP2 SWAP1 PUSH2 0x34D4 JUMP JUMPDEST PUSH2 0x8D4 JUMP JUMPDEST PUSH1 0x40 MLOAD PUSH2 0x2C6 SWAP2 SWAP1 PUSH2 0x3510 JUMP JUMPDEST PUSH1 0x40 MLOAD DUP1 SWAP2 SUB SWAP1 RETURN JUMPDEST PUSH2 0x2E9 PUSH1 0x4 DUP1 CALLDATASIZE SUB DUP2 ADD SWAP1 PUSH2 0x2E4 SWAP2 SWAP1 PUSH2 0x352B JUMP JUMPDEST PUSH2 0x91A JUMP JUMPDEST STOP JUMPDEST PUSH2 0x305 PUSH1 0x4 DUP1 CALLDATASIZE SUB DUP2 ADD SWAP1 PUSH2 0x300 SWAP2 SWAP1 PUSH2 0x359F JUMP JUMPDEST PUSH2 0x964 JUMP JUMPDEST STOP JUMPDEST PUSH2 0x321 PUSH1 0x4 DUP1 CALLDATASIZE SUB DUP2 ADD SWAP1 PUSH2 0x31C SWAP2 SWAP1 PUSH2 0x35DF JUMP JUMPDEST PUSH2 0xA7B JUMP JUMPDEST PUSH1 0x40 MLOAD PUSH2 0x331 SWAP5 SWAP4 SWAP3 SWAP2 SWAP1 PUSH2 0x360C JUMP JUMPDEST PUSH1 0x40 MLOAD DUP1 SWAP2 SUB SWAP1 RETURN JUMPDEST PUSH2 0x354 PUSH1 0x4 DUP1 CALLDATASIZE SUB DUP2 ADD SWAP1 PUSH2 0x34F SWAP2 SWAP1 PUSH2 0x3651 JUMP JUMPDEST PUSH2 0xAAB JUMP JUMPDEST STOP JUMPDEST PUSH2 0x35E PUSH2 0xB0B JUMP JUMPDEST PUSH1 0x40 MLOAD PUSH2 0x36B SWAP2 SWAP1 PUSH2 0x34B9 JUMP JUMPDEST PUSH1 0x40 MLOAD DUP1 SWAP2 SUB SWAP1 RETURN JUMPDEST PUSH2 0x38E PUSH1 0x4 DUP1 CALLDATASIZE SUB DUP2 ADD SWAP1 PUSH2 0x389 SWAP2 SWAP1 PUSH2 0x34D4 JUMP JUMPDEST PUSH2 0xB11 JUMP JUMPDEST STOP JUMPDEST PUSH2 0x3AA PUSH1 0x4 DUP1 CALLDATASIZE SUB DUP2 ADD SWAP1 PUSH2 0x3A5 SWAP2 SWAP1 PUSH2 0x34D4 JUMP JUMPDEST PUSH2 0xE9F JUMP JUMPDEST PUSH1 0x40 MLOAD PUSH2 0x3BA SWAP5 SWAP4 SWAP3 SWAP2 SWAP1 PUSH2 0x36A4 JUMP JUMPDEST PUSH1 0x40 MLOAD DUP1 SWAP2 SUB SWAP1 RETURN JUMPDEST PUSH2 0x3CB PUSH2 0x1067 JUMP JUMPDEST STOP JUMPDEST PUSH2 0x3D5 PUSH2 0x1079 JUMP JUMPDEST PUSH1 0x40 MLOAD PUSH2 0x3E2 SWAP2 SWAP1 PUSH2 0x34B9 JUMP JUMPDEST PUSH1 0x40 MLOAD DUP1 SWAP2 SUB SWAP1 RETURN JUMPDEST PUSH2 0x405 PUSH1 0x4 DUP1 CALLDATASIZE SUB DUP2 ADD SWAP1 PUSH2 0x400 SWAP2 SWAP1 PUSH2 0x3651 JUMP JUMPDEST PUSH2 0x107F JUMP JUMPDEST STOP JUMPDEST PUSH2 0x40F PUSH2 0x109F JUMP JUMPDEST PUSH1 0x40 MLOAD PUSH2 0x41C SWAP2 SWAP1 PUSH2 0x31D4 JUMP JUMPDEST PUSH1 0x40 MLOAD DUP1 SWAP2 SUB SWAP1 RETURN JUMPDEST PUSH2 0x43F PUSH1 0x4 DUP1 CALLDATASIZE SUB DUP2 ADD SWAP1 PUSH2 0x43A SWAP2 SWAP1 PUSH2 0x34D4 JUMP JUMPDEST PUSH2 0x10B6 JUMP JUMPDEST PUSH1 0x40 MLOAD PUSH2 0x44C SWAP2 SWAP1 PUSH2 0x3510 JUMP JUMPDEST PUSH1 0x40 MLOAD DUP1 SWAP2 SUB SWAP1 RETURN JUMPDEST PUSH2 0x46F PUSH1 0x4 DUP1 CALLDATASIZE SUB DUP2 ADD SWAP1 PUSH2 0x46A SWAP2 SWAP1 PUSH2 0x35DF JUMP JUMPDEST PUSH2 0x113C JUMP JUMPDEST PUSH1 0x40 MLOAD PUSH2 0x47C SWAP2 SWAP1 PUSH2 0x34B9 JUMP JUMPDEST PUSH1 0x40 MLOAD DUP1 SWAP2 SUB SWAP1 RETURN JUMPDEST PUSH2 0x48D PUSH2 0x11F3 JUMP JUMPDEST STOP JUMPDEST PUSH2 0x497 PUSH2 0x1207 JUMP JUMPDEST PUSH1 0x40 MLOAD PUSH2 0x4A4 SWAP2 SWAP1 PUSH2 0x375D JUMP JUMPDEST PUSH1 0x40 MLOAD DUP1 SWAP2 SUB SWAP1 RETURN JUMPDEST PUSH2 0x4B5 PUSH2 0x122B JUMP JUMPDEST PUSH1 0x40 MLOAD PUSH2 0x4C2 SWAP2 SWAP1 PUSH2 0x34B9 JUMP JUMPDEST PUSH1 0x40 MLOAD DUP1 SWAP2 SUB SWAP1 RETURN JUMPDEST PUSH2 0x4E5 PUSH1 0x4 DUP1 CALLDATASIZE SUB DUP2 ADD SWAP1 PUSH2 0x4E0 SWAP2 SWAP1 PUSH2 0x34D4 JUMP JUMPDEST PUSH2 0x1231 JUMP JUMPDEST STOP JUMPDEST PUSH2 0x4EF PUSH2 0x1243 JUMP JUMPDEST STOP JUMPDEST PUSH2 0x50B PUSH1 0x4 DUP1 CALLDATASIZE SUB DUP2 ADD SWAP1 PUSH2 0x506 SWAP2 SWAP1 PUSH2 0x34D4 JUMP JUMPDEST PUSH2 0x1255 JUMP JUMPDEST STOP JUMPDEST PUSH2 0x515 PUSH2 0x12AC JUMP JUMPDEST PUSH1 0x40 MLOAD PUSH2 0x522 SWAP2 SWAP1 PUSH2 0x3510 JUMP JUMPDEST PUSH1 0x40 MLOAD DUP1 SWAP2 SUB SWAP1 RETURN JUMPDEST PUSH2 0x533 PUSH2 0x12D5 JUMP JUMPDEST PUSH1 0x40 MLOAD PUSH2 0x540 SWAP2 SWAP1 PUSH2 0x327F JUMP JUMPDEST PUSH1 0x40 MLOAD DUP1 SWAP2 SUB SWAP1 RETURN JUMPDEST PUSH2 0x563 PUSH1 0x4 DUP1 CALLDATASIZE SUB DUP2 ADD SWAP1 PUSH2 0x55E SWAP2 SWAP1 PUSH2 0x37A4 JUMP JUMPDEST PUSH2 0x1367 JUMP JUMPDEST STOP JUMPDEST PUSH2 0x57F PUSH1 0x4 DUP1 CALLDATASIZE SUB DUP2 ADD SWAP1 PUSH2 0x57A SWAP2 SWAP1 PUSH2 0x34D4 JUMP JUMPDEST PUSH2 0x137D JUMP JUMPDEST STOP JUMPDEST PUSH2 0x589 PUSH2 0x15B3 JUMP JUMPDEST STOP JUMPDEST PUSH2 0x5A5 PUSH1 0x4 DUP1 CALLDATASIZE SUB DUP2 ADD SWAP1 PUSH2 0x5A0 SWAP2 SWAP1 PUSH2 0x3914 JUMP JUMPDEST PUSH2 0x17F8 JUMP JUMPDEST STOP JUMPDEST PUSH2 0x5C1 PUSH1 0x4 DUP1 CALLDATASIZE SUB DUP2 ADD SWAP1 PUSH2 0x5BC SWAP2 SWAP1 PUSH2 0x34D4 JUMP JUMPDEST PUSH2 0x185A JUMP JUMPDEST PUSH1 0x40 MLOAD PUSH2 0x5CE SWAP2 SWAP1 PUSH2 0x327F JUMP JUMPDEST PUSH1 0x40 MLOAD DUP1 SWAP2 SUB SWAP1 RETURN JUMPDEST PUSH2 0x5F1 PUSH1 0x4 DUP1 CALLDATASIZE SUB DUP2 ADD SWAP1 PUSH2 0x5EC SWAP2 SWAP1 PUSH2 0x3997 JUMP JUMPDEST PUSH2 0x196C JUMP JUMPDEST PUSH1 0x40 MLOAD PUSH2 0x5FE SWAP2 SWAP1 PUSH2 0x31D4 JUMP JUMPDEST PUSH1 0x40 MLOAD DUP1 SWAP2 SUB SWAP1 RETURN JUMPDEST PUSH2 0x621 PUSH1 0x4 DUP1 CALLDATASIZE SUB DUP2 ADD SWAP1 PUSH2 0x61C SWAP2 SWAP1 PUSH2 0x34D4 JUMP JUMPDEST PUSH2 0x1A00 JUMP JUMPDEST STOP JUMPDEST PUSH2 0x62B PUSH2 0x1A12 JUMP JUMPDEST PUSH1 0x40 MLOAD PUSH2 0x638 SWAP2 SWAP1 PUSH2 0x34B9 JUMP JUMPDEST PUSH1 0x40 MLOAD DUP1 SWAP2 SUB SWAP1 RETURN JUMPDEST PUSH2 0x65B PUSH1 0x4 DUP1 CALLDATASIZE SUB DUP2 ADD SWAP1 PUSH2 0x656 SWAP2 SWAP1 PUSH2 0x35DF JUMP JUMPDEST PUSH2 0x1A18 JUMP JUMPDEST STOP JUMPDEST PUSH2 0x677 PUSH1 0x4 DUP1 CALLDATASIZE SUB DUP2 ADD SWAP1 PUSH2 0x672 SWAP2 SWAP1 PUSH2 0x35DF JUMP JUMPDEST PUSH2 0x1A9B JUMP JUMPDEST PUSH1 0x40 MLOAD PUSH2 0x684 SWAP2 SWAP1 PUSH2 0x34B9 JUMP JUMPDEST PUSH1 0x40 MLOAD DUP1 SWAP2 SUB SWAP1 RETURN JUMPDEST PUSH2 0x6A7 PUSH1 0x4 DUP1 CALLDATASIZE SUB DUP2 ADD SWAP1 PUSH2 0x6A2 SWAP2 SWAP1 PUSH2 0x39D7 JUMP JUMPDEST PUSH2 0x1AAD JUMP JUMPDEST STOP JUMPDEST PUSH1 0x0 PUSH4 0x49064906 PUSH1 0xE0 SHL PUSH28 0xFFFFFFFFFFFFFFFFFFFFFFFFFFFFFFFFFFFFFFFFFFFFFFFFFFFFFFFF NOT AND DUP3 PUSH28 0xFFFFFFFFFFFFFFFFFFFFFFFFFFFFFFFFFFFFFFFFFFFFFFFFFFFFFFFF NOT AND EQ DUP1 PUSH2 0x703 JUMPI POP PUSH2 0x702 DUP3 PUSH2 0x1C05 JUMP JUMPDEST JUMPDEST SWAP1 POP SWAP2 SWAP1 POP JUMP JUMPDEST PUSH1 0x60 PUSH1 0x3 DUP1 SLOAD PUSH2 0x719 SWAP1 PUSH2 0x3A46 JUMP JUMPDEST DUP1 PUSH1 0x1F ADD PUSH1 0x20 DUP1 SWAP2 DIV MUL PUSH1 0x20 ADD PUSH1 0x40 MLOAD SWAP1 DUP2 ADD PUSH1 0x40 MSTORE DUP1 SWAP3 SWAP2 SWAP1 DUP2 DUP2 MSTORE PUSH1 0x20 ADD DUP3 DUP1 SLOAD PUSH2 0x745 SWAP1 PUSH2 0x3A46 JUMP JUMPDEST DUP1 ISZERO PUSH2 0x792 JUMPI DUP1 PUSH1 0x1F LT PUSH2 0x767 JUMPI PUSH2 0x100 DUP1 DUP4 SLOAD DIV MUL DUP4 MSTORE SWAP2 PUSH1 0x20 ADD SWAP2 PUSH2 0x792 JUMP JUMPDEST DUP3 ADD SWAP2 SWAP1 PUSH1 0x0 MSTORE PUSH1 0x20 PUSH1 0x0 KECCAK256 SWAP1 JUMPDEST DUP2 SLOAD DUP2 MSTORE SWAP1 PUSH1 0x1 ADD SWAP1 PUSH1 0x20 ADD DUP1 DUP4 GT PUSH2 0x775 JUMPI DUP3 SWAP1 SUB PUSH1 0x1F AND DUP3 ADD SWAP2 JUMPDEST POP POP POP POP POP SWAP1 POP SWAP1 JUMP JUMPDEST PUSH1 0x0 PUSH2 0x7A6 PUSH2 0x1CE7 JUMP JUMPDEST PUSH2 0x8C4 DUP12 DUP12 DUP12 DUP12 DUP1 DUP1 PUSH1 0x1F ADD PUSH1 0x20 DUP1 SWAP2 DIV MUL PUSH1 0x20 ADD PUSH1 0x40 MLOAD SWAP1 DUP2 ADD PUSH1 0x40 MSTORE DUP1 SWAP4 SWAP3 SWAP2 SWAP1 DUP2 DUP2 MSTORE PUSH1 0x20 ADD DUP4 DUP4 DUP1 DUP3 DUP5 CALLDATACOPY PUSH1 0x0 DUP2 DUP5 ADD MSTORE PUSH1 0x1F NOT PUSH1 0x1F DUP3 ADD AND SWAP1 POP DUP1 DUP4 ADD SWAP3 POP POP POP POP POP POP POP DUP11 DUP11 DUP1 DUP1 PUSH1 0x1F ADD PUSH1 0x20 DUP1 SWAP2 DIV MUL PUSH1 0x20 ADD PUSH1 0x40 MLOAD SWAP1 DUP2 ADD PUSH1 0x40 MSTORE DUP1 SWAP4 SWAP3 SWAP2 SWAP1 DUP2 DUP2 MSTORE PUSH1 0x20 ADD DUP4 DUP4 DUP1 DUP3 DUP5 CALLDATACOPY PUSH1 0x0 DUP2 DUP5 ADD MSTORE PUSH1 0x1F NOT PUSH1 0x1F DUP3 ADD AND SWAP1 POP DUP1 DUP4 ADD SWAP3 POP POP POP POP POP POP POP DUP10 DUP10 DUP1 DUP1 PUSH1 0x1F ADD PUSH1 0x20 DUP1 SWAP2 DIV MUL PUSH1 0x20 ADD PUSH1 0x40 MLOAD SWAP1 DUP2 ADD PUSH1 0x40 MSTORE DUP1 SWAP4 SWAP3 SWAP2 SWAP1 DUP2 DUP2 MSTORE PUSH1 0x20 ADD DUP4 DUP4 DUP1 DUP3 DUP5 CALLDATACOPY PUSH1 0x0 DUP2 DUP5 ADD MSTORE PUSH1 0x1F NOT PUSH1 0x1F DUP3 ADD AND SWAP1 POP DUP1 DUP4 ADD SWAP3 POP POP POP POP POP POP POP DUP9 DUP9 DUP1 DUP1 PUSH1 0x1F ADD PUSH1 0x20 DUP1 SWAP2 DIV MUL PUSH1 0x20 ADD PUSH1 0x40 MLOAD SWAP1 DUP2 ADD PUSH1 0x40 MSTORE DUP1 SWAP4 SWAP3 SWAP2 SWAP1 DUP2 DUP2 MSTORE PUSH1 0x20 ADD DUP4 DUP4 DUP1 DUP3 DUP5 CALLDATACOPY PUSH1 0x0 DUP2 DUP5 ADD MSTORE PUSH1 0x1F NOT PUSH1 0x1F DUP3 ADD AND SWAP1 POP DUP1 DUP4 ADD SWAP3 POP POP POP POP POP POP POP PUSH2 0x1D65 JUMP JUMPDEST SWAP1 POP SWAP11 SWAP10 POP POP POP POP POP POP POP POP POP POP JUMP JUMPDEST PUSH1 0x0 PUSH2 0x8DF DUP3 PUSH2 0x1E81 JUMP JUMPDEST PUSH1 0x7 PUSH1 0x0 DUP4 DUP2 MSTORE PUSH1 0x20 ADD SWAP1 DUP2 MSTORE PUSH1 0x20 ADD PUSH1 0x0 KECCAK256 PUSH1 0x0 SWAP1 SLOAD SWAP1 PUSH2 0x100 EXP SWAP1 DIV PUSH20 0xFFFFFFFFFFFFFFFFFFFFFFFFFFFFFFFFFFFFFFFF AND SWAP1 POP SWAP2 SWAP1 POP JUMP JUMPDEST PUSH2 0x922 PUSH2 0x1CE7 JUMP JUMPDEST DUP4 PUSH32 0xCAFDFEE2D98EB48494B3C4812D3E553FCB4E8648361FB6CA7E23E42E9D6E198F DUP5 DUP5 DUP5 PUSH1 0x40 MLOAD PUSH2 0x956 SWAP4 SWAP3 SWAP2 SWAP1 PUSH2 0x3AA4 JUMP JUMPDEST PUSH1 0x40 MLOAD DUP1 SWAP2 SUB SWAP1 LOG2 POP POP POP POP JUMP JUMPDEST PUSH1 0x0 PUSH2 0x96F DUP3 PUSH2 0x10B6 JUMP JUMPDEST SWAP1 POP DUP1 PUSH20 0xFFFFFFFFFFFFFFFFFFFFFFFFFFFFFFFFFFFFFFFF AND DUP4 PUSH20 0xFFFFFFFFFFFFFFFFFFFFFFFFFFFFFFFFFFFFFFFF AND SUB PUSH2 0x9DF JUMPI PUSH1 0x40 MLOAD PUSH32 0x8C379A000000000000000000000000000000000000000000000000000000000 DUP2 MSTORE PUSH1 0x4 ADD PUSH2 0x9D6 SWAP1 PUSH2 0x3B48 JUMP JUMPDEST PUSH1 0x40 MLOAD DUP1 SWAP2 SUB SWAP1 REVERT JUMPDEST DUP1 PUSH20 0xFFFFFFFFFFFFFFFFFFFFFFFFFFFFFFFFFFFFFFFF AND PUSH2 0x9FE PUSH2 0x1ECC JUMP JUMPDEST PUSH20 0xFFFFFFFFFFFFFFFFFFFFFFFFFFFFFFFFFFFFFFFF AND EQ DUP1 PUSH2 0xA2D JUMPI POP PUSH2 0xA2C DUP2 PUSH2 0xA27 PUSH2 0x1ECC JUMP JUMPDEST PUSH2 0x196C JUMP JUMPDEST JUMPDEST PUSH2 0xA6C JUMPI PUSH1 0x40 MLOAD PUSH32 0x8C379A000000000000000000000000000000000000000000000000000000000 DUP2 MSTORE PUSH1 0x4 ADD PUSH2 0xA63 SWAP1 PUSH2 0x3BDA JUMP JUMPDEST PUSH1 0x40 MLOAD DUP1 SWAP2 SUB SWAP1 REVERT JUMPDEST PUSH2 0xA76 DUP4 DUP4 PUSH2 0x1ED4 JUMP JUMPDEST POP POP POP JUMP JUMPDEST PUSH1 0xE PUSH1 0x20 MSTORE DUP1 PUSH1 0x0 MSTORE PUSH1 0x40 PUSH1 0x0 KECCAK256 PUSH1 0x0 SWAP2 POP SWAP1 POP DUP1 PUSH1 0x0 ADD SLOAD SWAP1 DUP1 PUSH1 0x1 ADD SLOAD SWAP1 DUP1 PUSH1 0x2 ADD SLOAD SWAP1 DUP1 PUSH1 0x3 ADD SLOAD SWAP1 POP DUP5 JUMP JUMPDEST PUSH2 0xABC PUSH2 0xAB6 PUSH2 0x1ECC JUMP JUMPDEST DUP3 PUSH2 0x1F8D JUMP JUMPDEST PUSH2 0xAFB JUMPI PUSH1 0x40 MLOAD PUSH32 0x8C379A000000000000000000000000000000000000000000000000000000000 DUP2 MSTORE PUSH1 0x4 ADD PUSH2 0xAF2 SWAP1 PUSH2 0x3C6C JUMP JUMPDEST PUSH1 0x40 MLOAD DUP1 SWAP2 SUB SWAP1 REVERT JUMPDEST PUSH2 0xB06 DUP4 DUP4 DUP4 PUSH2 0x2022 JUMP JUMPDEST POP POP POP JUMP JUMPDEST PUSH1 0xA SLOAD DUP2 JUMP JUMPDEST PUSH2 0xB19 PUSH2 0x231B JUMP JUMPDEST PUSH2 0xB21 PUSH2 0x236A JUMP JUMPDEST PUSH1 0x0 PUSH1 0xE PUSH1 0x0 CALLER PUSH20 0xFFFFFFFFFFFFFFFFFFFFFFFFFFFFFFFFFFFFFFFF AND PUSH20 0xFFFFFFFFFFFFFFFFFFFFFFFFFFFFFFFFFFFFFFFF AND DUP2 MSTORE PUSH1 0x20 ADD SWAP1 DUP2 MSTORE PUSH1 0x20 ADD PUSH1 0x0 KECCAK256 SWAP1 POP DUP2 DUP2 PUSH1 0x0 ADD SLOAD LT ISZERO DUP1 ISZERO PUSH2 0xB78 JUMPI POP PUSH1 0x0 DUP3 GT JUMPDEST PUSH2 0xBB7 JUMPI PUSH1 0x40 MLOAD PUSH32 0x8C379A000000000000000000000000000000000000000000000000000000000 DUP2 MSTORE PUSH1 0x4 ADD PUSH2 0xBAE SWAP1 PUSH2 0x3CD8 JUMP JUMPDEST PUSH1 0x40 MLOAD DUP1 SWAP2 SUB SWAP1 REVERT JUMPDEST PUSH2 0xBF3 DUP2 PUSH1 0x40 MLOAD DUP1 PUSH1 0x80 ADD PUSH1 0x40 MSTORE SWAP1 DUP2 PUSH1 0x0 DUP3 ADD SLOAD DUP2 MSTORE PUSH1 0x20 ADD PUSH1 0x1 DUP3 ADD SLOAD DUP2 MSTORE PUSH1 0x20 ADD PUSH1 0x2 DUP3 ADD SLOAD DUP2 MSTORE PUSH1 0x20 ADD PUSH1 0x3 DUP3 ADD SLOAD DUP2 MSTORE POP POP PUSH2 0x23B4 JUMP JUMPDEST PUSH2 0xC32 JUMPI PUSH1 0x40 MLOAD PUSH32 0x8C379A000000000000000000000000000000000000000000000000000000000 DUP2 MSTORE PUSH1 0x4 ADD PUSH2 0xC29 SWAP1 PUSH2 0x3D44 JUMP JUMPDEST PUSH1 0x40 MLOAD DUP1 SWAP2 SUB SWAP1 REVERT JUMPDEST PUSH1 0x0 DUP2 PUSH1 0x1 ADD SLOAD PUSH2 0xC42 CALLER PUSH2 0x23FA JUMP JUMPDEST PUSH2 0xC4C SWAP2 SWAP1 PUSH2 0x3D93 JUMP JUMPDEST SWAP1 POP DUP3 DUP3 PUSH1 0x0 ADD PUSH1 0x0 DUP3 DUP3 SLOAD PUSH2 0xC62 SWAP2 SWAP1 PUSH2 0x3DC7 JUMP JUMPDEST SWAP3 POP POP DUP2 SWAP1 SSTORE POP PUSH1 0x0 DUP3 PUSH1 0x1 ADD DUP2 SWAP1 SSTORE POP TIMESTAMP DUP3 PUSH1 0x2 ADD DUP2 SWAP1 SSTORE POP PUSH32 0x0 PUSH20 0xFFFFFFFFFFFFFFFFFFFFFFFFFFFFFFFFFFFFFFFF AND PUSH4 0xA9059CBB CALLER DUP6 PUSH1 0x40 MLOAD DUP4 PUSH4 0xFFFFFFFF AND PUSH1 0xE0 SHL DUP2 MSTORE PUSH1 0x4 ADD PUSH2 0xCD7 SWAP3 SWAP2 SWAP1 PUSH2 0x3DFB JUMP JUMPDEST PUSH1 0x20 PUSH1 0x40 MLOAD DUP1 DUP4 SUB DUP2 PUSH1 0x0 DUP8 GAS CALL ISZERO DUP1 ISZERO PUSH2 0xCF6 JUMPI RETURNDATASIZE PUSH1 0x0 DUP1 RETURNDATACOPY RETURNDATASIZE PUSH1 0x0 REVERT JUMPDEST POP POP POP POP PUSH1 0x40 MLOAD RETURNDATASIZE PUSH1 0x1F NOT PUSH1 0x1F DUP3 ADD AND DUP3 ADD DUP1 PUSH1 0x40 MSTORE POP DUP2 ADD SWAP1 PUSH2 0xD1A SWAP2 SWAP1 PUSH2 0x3E39 JUMP JUMPDEST PUSH2 0xD59 JUMPI PUSH1 0x40 MLOAD PUSH32 0x8C379A000000000000000000000000000000000000000000000000000000000 DUP2 MSTORE PUSH1 0x4 ADD PUSH2 0xD50 SWAP1 PUSH2 0x3EB2 JUMP JUMPDEST PUSH1 0x40 MLOAD DUP1 SWAP2 SUB SWAP1 REVERT JUMPDEST PUSH1 0x0 DUP2 GT ISZERO PUSH2 0xE40 JUMPI PUSH32 0x0 PUSH20 0xFFFFFFFFFFFFFFFFFFFFFFFFFFFFFFFFFFFFFFFF AND PUSH4 0xA9059CBB CALLER DUP4 PUSH1 0x40 MLOAD DUP4 PUSH4 0xFFFFFFFF AND PUSH1 0xE0 SHL DUP2 MSTORE PUSH1 0x4 ADD PUSH2 0xDBD SWAP3 SWAP2 SWAP1 PUSH2 0x3DFB JUMP JUMPDEST PUSH1 0x20 PUSH1 0x40 MLOAD DUP1 DUP4 SUB DUP2 PUSH1 0x0 DUP8 GAS CALL ISZERO DUP1 ISZERO PUSH2 0xDDC JUMPI RETURNDATASIZE PUSH1 0x0 DUP1 RETURNDATACOPY RETURNDATASIZE PUSH1 0x0 REVERT JUMPDEST POP POP POP POP PUSH1 0x40 MLOAD RETURNDATASIZE PUSH1 0x1F NOT PUSH1 0x1F DUP3 ADD AND DUP3 ADD DUP1 PUSH1 0x40 MSTORE POP DUP2 ADD SWAP1 PUSH2 0xE00 SWAP2 SWAP1 PUSH2 0x3E39 JUMP JUMPDEST PUSH2 0xE3F JUMPI PUSH1 0x40 MLOAD PUSH32 0x8C379A000000000000000000000000000000000000000000000000000000000 DUP2 MSTORE PUSH1 0x4 ADD PUSH2 0xE36 SWAP1 PUSH2 0x3F1E JUMP JUMPDEST PUSH1 0x40 MLOAD DUP1 SWAP2 SUB SWAP1 REVERT JUMPDEST JUMPDEST CALLER PUSH20 0xFFFFFFFFFFFFFFFFFFFFFFFFFFFFFFFFFFFFFFFF AND PUSH32 0xFBD65CFD6DE1493DB337385C0712095397ECBD0504DF64B861CDFCEB80C7B422 DUP5 DUP4 TIMESTAMP PUSH1 0x40 MLOAD PUSH2 0xE8A SWAP4 SWAP3 SWAP2 SWAP1 PUSH2 0x3F3E JUMP JUMPDEST PUSH1 0x40 MLOAD DUP1 SWAP2 SUB SWAP1 LOG2 POP POP PUSH2 0xE9C PUSH2 0x24EA JUMP JUMPDEST POP JUMP JUMPDEST PUSH1 0xF PUSH1 0x20 MSTORE DUP1 PUSH1 0x0 MSTORE PUSH1 0x40 PUSH1 0x0 KECCAK256 PUSH1 0x0 SWAP2 POP SWAP1 POP DUP1 PUSH1 0x0 ADD SLOAD SWAP1 DUP1 PUSH1 0x1 ADD DUP1 SLOAD PUSH2 0xEC8 SWAP1 PUSH2 0x3A46 JUMP JUMPDEST DUP1 PUSH1 0x1F ADD PUSH1 0x20 DUP1 SWAP2 DIV MUL PUSH1 0x20 ADD PUSH1 0x40 MLOAD SWAP1 DUP2 ADD PUSH1 0x40 MSTORE DUP1 SWAP3 SWAP2 SWAP1 DUP2 DUP2 MSTORE PUSH1 0x20 ADD DUP3 DUP1 SLOAD PUSH2 0xEF4 SWAP1 PUSH2 0x3A46 JUMP JUMPDEST DUP1 ISZERO PUSH2 0xF41 JUMPI DUP1 PUSH1 0x1F LT PUSH2 0xF16 JUMPI PUSH2 0x100 DUP1 DUP4 SLOAD DIV MUL DUP4 MSTORE SWAP2 PUSH1 0x20 ADD SWAP2 PUSH2 0xF41 JUMP JUMPDEST DUP3 ADD SWAP2 SWAP1 PUSH1 0x0 MSTORE PUSH1 0x20 PUSH1 0x0 KECCAK256 SWAP1 JUMPDEST DUP2 SLOAD DUP2 MSTORE SWAP1 PUSH1 0x1 ADD SWAP1 PUSH1 0x20 ADD DUP1 DUP4 GT PUSH2 0xF24 JUMPI DUP3 SWAP1 SUB PUSH1 0x1F AND DUP3 ADD SWAP2 JUMPDEST POP POP POP POP POP SWAP1 DUP1 PUSH1 0x2 ADD DUP1 SLOAD PUSH2 0xF56 SWAP1 PUSH2 0x3A46 JUMP JUMPDEST DUP1 PUSH1 0x1F ADD PUSH1 0x20 DUP1 SWAP2 DIV MUL PUSH1 0x20 ADD PUSH1 0x40 MLOAD SWAP1 DUP2 ADD PUSH1 0x40 MSTORE DUP1 SWAP3 SWAP2 SWAP1 DUP2 DUP2 MSTORE PUSH1 0x20 ADD DUP3 DUP1 SLOAD PUSH2 0xF82 SWAP1 PUSH2 0x3A46 JUMP JUMPDEST DUP1 ISZERO PUSH2 0xFCF JUMPI DUP1 PUSH1 0x1F LT PUSH2 0xFA4 JUMPI PUSH2 0x100 DUP1 DUP4 SLOAD DIV MUL DUP4 MSTORE SWAP2 PUSH1 0x20 ADD SWAP2 PUSH2 0xFCF JUMP JUMPDEST DUP3 ADD SWAP2 SWAP1 PUSH1 0x0 MSTORE PUSH1 0x20 PUSH1 0x0 KECCAK256 SWAP1 JUMPDEST DUP2 SLOAD DUP2 MSTORE SWAP1 PUSH1 0x1 ADD SWAP1 PUSH1 0x20 ADD DUP1 DUP4 GT PUSH2 0xFB2 JUMPI DUP3 SWAP1 SUB PUSH1 0x1F AND DUP3 ADD SWAP2 JUMPDEST POP POP POP POP POP SWAP1 DUP1 PUSH1 0x3 ADD DUP1 SLOAD PUSH2 0xFE4 SWAP1 PUSH2 0x3A46 JUMP JUMPDEST DUP1 PUSH1 0x1F ADD PUSH1 0x20 DUP1 SWAP2 DIV MUL PUSH1 0x20 ADD PUSH1 0x40 MLOAD SWAP1 DUP2 ADD PUSH1 0x40 MSTORE DUP1 SWAP3 SWAP2 SWAP1 DUP2 DUP2 MSTORE PUSH1 0x20 ADD DUP3 DUP1 SLOAD PUSH2 0x1010 SWAP1 PUSH2 0x3A46 JUMP JUMPDEST DUP1 ISZERO PUSH2 0x105D JUMPI DUP1 PUSH1 0x1F LT PUSH2 0x1032 JUMPI PUSH2 0x100 DUP1 DUP4 SLOAD DIV MUL DUP4 MSTORE SWAP2 PUSH1 0x20 ADD SWAP2 PUSH2 0x105D JUMP JUMPDEST DUP3 ADD SWAP2 SWAP1 PUSH1 0x0 MSTORE PUSH1 0x20 PUSH1 0x0 KECCAK256 SWAP1 JUMPDEST DUP2 SLOAD DUP2 MSTORE SWAP1 PUSH1 0x1 ADD SWAP1 PUSH1 0x20 ADD DUP1 DUP4 GT PUSH2 0x1040 JUMPI DUP3 SWAP1 SUB PUSH1 0x1F AND DUP3 ADD SWAP2 JUMPDEST POP POP POP POP POP SWAP1 POP DUP5 JUMP JUMPDEST PUSH2 0x106F PUSH2 0x1CE7 JUMP JUMPDEST PUSH2 0x1077 PUSH2 0x24F3 JUMP JUMPDEST JUMP JUMPDEST PUSH1 0xC SLOAD DUP2 JUMP JUMPDEST PUSH2 0x109A DUP4 DUP4 DUP4 PUSH1 0x40 MLOAD DUP1 PUSH1 0x20 ADD PUSH1 0x40 MSTORE DUP1 PUSH1 0x0 DUP2 MSTORE POP PUSH2 0x17F8 JUMP JUMPDEST POP POP POP JUMP JUMPDEST PUSH1 0x0 PUSH1 0x2 PUSH1 0x0 SWAP1 SLOAD SWAP1 PUSH2 0x100 EXP SWAP1 DIV PUSH1 0xFF AND SWAP1 POP SWAP1 JUMP JUMPDEST PUSH1 0x0 DUP1 PUSH2 0x10C2 DUP4 PUSH2 0x2556 JUMP JUMPDEST SWAP1 POP PUSH1 0x0 PUSH20 0xFFFFFFFFFFFFFFFFFFFFFFFFFFFFFFFFFFFFFFFF AND DUP2 PUSH20 0xFFFFFFFFFFFFFFFFFFFFFFFFFFFFFFFFFFFFFFFF AND SUB PUSH2 0x1133 JUMPI PUSH1 0x40 MLOAD PUSH32 0x8C379A000000000000000000000000000000000000000000000000000000000 DUP2 MSTORE PUSH1 0x4 ADD PUSH2 0x112A SWAP1 PUSH2 0x3FC1 JUMP JUMPDEST PUSH1 0x40 MLOAD DUP1 SWAP2 SUB SWAP1 REVERT JUMPDEST DUP1 SWAP2 POP POP SWAP2 SWAP1 POP JUMP JUMPDEST PUSH1 0x0 DUP1 PUSH20 0xFFFFFFFFFFFFFFFFFFFFFFFFFFFFFFFFFFFFFFFF AND DUP3 PUSH20 0xFFFFFFFFFFFFFFFFFFFFFFFFFFFFFFFFFFFFFFFF AND SUB PUSH2 0x11AC JUMPI PUSH1 0x40 MLOAD PUSH32 0x8C379A000000000000000000000000000000000000000000000000000000000 DUP2 MSTORE PUSH1 0x4 ADD PUSH2 0x11A3 SWAP1 PUSH2 0x4053 JUMP JUMPDEST PUSH1 0x40 MLOAD DUP1 SWAP2 SUB SWAP1 REVERT JUMPDEST PUSH1 0x6 PUSH1 0x0 DUP4 PUSH20 0xFFFFFFFFFFFFFFFFFFFFFFFFFFFFFFFFFFFFFFFF AND PUSH20 0xFFFFFFFFFFFFFFFFFFFFFFFFFFFFFFFFFFFFFFFF AND DUP2 MSTORE PUSH1 0x20 ADD SWAP1 DUP2 MSTORE PUSH1 0x20 ADD PUSH1 0x0 KECCAK256 SLOAD SWAP1 POP SWAP2 SWAP1 POP JUMP JUMPDEST PUSH2 0x11FB PUSH2 0x1CE7 JUMP JUMPDEST PUSH2 0x1205 PUSH1 0x0 PUSH2 0x2593 JUMP JUMPDEST JUMP JUMPDEST PUSH32 0x0 DUP2 JUMP JUMPDEST PUSH1 0xD SLOAD DUP2 JUMP JUMPDEST PUSH2 0x1239 PUSH2 0x1CE7 JUMP JUMPDEST DUP1 PUSH1 0xC DUP2 SWAP1 SSTORE POP POP JUMP JUMPDEST PUSH2 0x124B PUSH2 0x1CE7 JUMP JUMPDEST PUSH2 0x1253 PUSH2 0x2657 JUMP JUMPDEST JUMP JUMPDEST PUSH2 0x125D PUSH2 0x1CE7 JUMP JUMPDEST PUSH2 0x1388 DUP2 GT ISZERO PUSH2 0x12A2 JUMPI PUSH1 0x40 MLOAD PUSH32 0x8C379A000000000000000000000000000000000000000000000000000000000 DUP2 MSTORE PUSH1 0x4 ADD PUSH2 0x1299 SWAP1 PUSH2 0x40BF JUMP JUMPDEST PUSH1 0x40 MLOAD DUP1 SWAP2 SUB SWAP1 REVERT JUMPDEST DUP1 PUSH1 0xA DUP2 SWAP1 SSTORE POP POP JUMP JUMPDEST PUSH1 0x0 DUP1 PUSH1 0x0 SWAP1 SLOAD SWAP1 PUSH2 0x100 EXP SWAP1 DIV PUSH20 0xFFFFFFFFFFFFFFFFFFFFFFFFFFFFFFFFFFFFFFFF AND SWAP1 POP SWAP1 JUMP JUMPDEST PUSH1 0x60 PUSH1 0x4 DUP1 SLOAD PUSH2 0x12E4 SWAP1 PUSH2 0x3A46 JUMP JUMPDEST DUP1 PUSH1 0x1F ADD PUSH1 0x20 DUP1 SWAP2 DIV MUL PUSH1 0x20 ADD PUSH1 0x40 MLOAD SWAP1 DUP2 ADD PUSH1 0x40 MSTORE DUP1 SWAP3 SWAP2 SWAP1 DUP2 DUP2 MSTORE PUSH1 0x20 ADD DUP3 DUP1 SLOAD PUSH2 0x1310 SWAP1 PUSH2 0x3A46 JUMP JUMPDEST DUP1 ISZERO PUSH2 0x135D JUMPI DUP1 PUSH1 0x1F LT PUSH2 0x1332 JUMPI PUSH2 0x100 DUP1 DUP4 SLOAD DIV MUL DUP4 MSTORE SWAP2 PUSH1 0x20 ADD SWAP2 PUSH2 0x135D JUMP JUMPDEST DUP3 ADD SWAP2 SWAP1 PUSH1 0x0 MSTORE PUSH1 0x20 PUSH1 0x0 KECCAK256 SWAP1 JUMPDEST DUP2 SLOAD DUP2 MSTORE SWAP1 PUSH1 0x1 ADD SWAP1 PUSH1 0x20 ADD DUP1 DUP4 GT PUSH2 0x1340 JUMPI DUP3 SWAP1 SUB PUSH1 0x1F AND DUP3 ADD SWAP2 JUMPDEST POP POP POP POP POP SWAP1 POP SWAP1 JUMP JUMPDEST PUSH2 0x1379 PUSH2 0x1372 PUSH2 0x1ECC JUMP JUMPDEST DUP4 DUP4 PUSH2 0x26BA JUMP JUMPDEST POP POP JUMP JUMPDEST PUSH2 0x1385 PUSH2 0x231B JUMP JUMPDEST PUSH2 0x138D PUSH2 0x236A JUMP JUMPDEST PUSH1 0xB SLOAD DUP2 LT ISZERO PUSH2 0x13D2 JUMPI PUSH1 0x40 MLOAD PUSH32 0x8C379A000000000000000000000000000000000000000000000000000000000 DUP2 MSTORE PUSH1 0x4 ADD PUSH2 0x13C9 SWAP1 PUSH2 0x412B JUMP JUMPDEST PUSH1 0x40 MLOAD DUP1 SWAP2 SUB SWAP1 REVERT JUMPDEST PUSH1 0x0 PUSH1 0xE PUSH1 0x0 CALLER PUSH20 0xFFFFFFFFFFFFFFFFFFFFFFFFFFFFFFFFFFFFFFFF AND PUSH20 0xFFFFFFFFFFFFFFFFFFFFFFFFFFFFFFFFFFFFFFFF AND DUP2 MSTORE PUSH1 0x20 ADD SWAP1 DUP2 MSTORE PUSH1 0x20 ADD PUSH1 0x0 KECCAK256 SWAP1 POP PUSH1 0x0 PUSH2 0x1420 CALLER PUSH2 0x23FA JUMP JUMPDEST SWAP1 POP DUP1 DUP3 PUSH1 0x1 ADD PUSH1 0x0 DUP3 DUP3 SLOAD PUSH2 0x1436 SWAP2 SWAP1 PUSH2 0x3D93 JUMP JUMPDEST SWAP3 POP POP DUP2 SWAP1 SSTORE POP PUSH32 0x0 PUSH20 0xFFFFFFFFFFFFFFFFFFFFFFFFFFFFFFFFFFFFFFFF AND PUSH4 0x23B872DD CALLER ADDRESS DUP7 PUSH1 0x40 MLOAD DUP5 PUSH4 0xFFFFFFFF AND PUSH1 0xE0 SHL DUP2 MSTORE PUSH1 0x4 ADD PUSH2 0x149A SWAP4 SWAP3 SWAP2 SWAP1 PUSH2 0x414B JUMP JUMPDEST PUSH1 0x20 PUSH1 0x40 MLOAD DUP1 DUP4 SUB DUP2 PUSH1 0x0 DUP8 GAS CALL ISZERO DUP1 ISZERO PUSH2 0x14B9 JUMPI RETURNDATASIZE PUSH1 0x0 DUP1 RETURNDATACOPY RETURNDATASIZE PUSH1 0x0 REVERT JUMPDEST POP POP POP POP PUSH1 0x40 MLOAD RETURNDATASIZE PUSH1 0x1F NOT PUSH1 0x1F DUP3 ADD AND DUP3 ADD DUP1 PUSH1 0x40 MSTORE POP DUP2 ADD SWAP1 PUSH2 0x14DD SWAP2 SWAP1 PUSH2 0x3E39 JUMP JUMPDEST PUSH2 0x151C JUMPI PUSH1 0x40 MLOAD PUSH32 0x8C379A000000000000000000000000000000000000000000000000000000000 DUP2 MSTORE PUSH1 0x4 ADD PUSH2 0x1513 SWAP1 PUSH2 0x41CE JUMP JUMPDEST PUSH1 0x40 MLOAD DUP1 SWAP2 SUB SWAP1 REVERT JUMPDEST DUP3 DUP3 PUSH1 0x0 ADD PUSH1 0x0 DUP3 DUP3 SLOAD PUSH2 0x1530 SWAP2 SWAP1 PUSH2 0x3D93 JUMP JUMPDEST SWAP3 POP POP DUP2 SWAP1 SSTORE POP TIMESTAMP DUP3 PUSH1 0x2 ADD DUP2 SWAP1 SSTORE POP PUSH1 0x0 DUP3 PUSH1 0x3 ADD SLOAD SUB PUSH2 0x1556 JUMPI TIMESTAMP DUP3 PUSH1 0x3 ADD DUP2 SWAP1 SSTORE POP JUMPDEST CALLER PUSH20 0xFFFFFFFFFFFFFFFFFFFFFFFFFFFFFFFFFFFFFFFF AND PUSH32 0x5AF417134F72A9D41143ACE85B0A26DCE6F550F894F2CBC1EEEE8810603D91B6 DUP5 TIMESTAMP PUSH1 0x40 MLOAD PUSH2 0x159E SWAP3 SWAP2 SWAP1 PUSH2 0x41EE JUMP JUMPDEST PUSH1 0x40 MLOAD DUP1 SWAP2 SUB SWAP1 LOG2 POP POP PUSH2 0x15B0 PUSH2 0x24EA JUMP JUMPDEST POP JUMP JUMPDEST PUSH2 0x15BB PUSH2 0x231B JUMP JUMPDEST PUSH2 0x15C3 PUSH2 0x236A JUMP JUMPDEST PUSH1 0x0 PUSH1 0xE PUSH1 0x0 CALLER PUSH20 0xFFFFFFFFFFFFFFFFFFFFFFFFFFFFFFFFFFFFFFFF AND PUSH20 0xFFFFFFFFFFFFFFFFFFFFFFFFFFFFFFFFFFFFFFFF AND DUP2 MSTORE PUSH1 0x20 ADD SWAP1 DUP2 MSTORE PUSH1 0x20 ADD PUSH1 0x0 KECCAK256 SWAP1 POP PUSH1 0x0 DUP2 PUSH1 0x0 ADD SLOAD GT PUSH2 0x164D JUMPI PUSH1 0x40 MLOAD PUSH32 0x8C379A000000000000000000000000000000000000000000000000000000000 DUP2 MSTORE PUSH1 0x4 ADD PUSH2 0x1644 SWAP1 PUSH2 0x4263 JUMP JUMPDEST PUSH1 0x40 MLOAD DUP1 SWAP2 SUB SWAP1 REVERT JUMPDEST PUSH1 0x0 DUP2 PUSH1 0x1 ADD SLOAD PUSH2 0x165D CALLER PUSH2 0x23FA JUMP JUMPDEST PUSH2 0x1667 SWAP2 SWAP1 PUSH2 0x3D93 JUMP JUMPDEST SWAP1 POP PUSH1 0x0 DUP2 GT PUSH2 0x16AC JUMPI PUSH1 0x40 MLOAD PUSH32 0x8C379A000000000000000000000000000000000000000000000000000000000 DUP2 MSTORE PUSH1 0x4 ADD PUSH2 0x16A3 SWAP1 PUSH2 0x42CF JUMP JUMPDEST PUSH1 0x40 MLOAD DUP1 SWAP2 SUB SWAP1 REVERT JUMPDEST PUSH1 0x0 DUP3 PUSH1 0x1 ADD DUP2 SWAP1 SSTORE POP TIMESTAMP DUP3 PUSH1 0x2 ADD DUP2 SWAP1 SSTORE POP PUSH32 0x0 PUSH20 0xFFFFFFFFFFFFFFFFFFFFFFFFFFFFFFFFFFFFFFFF AND PUSH4 0xA9059CBB CALLER DUP4 PUSH1 0x40 MLOAD DUP4 PUSH4 0xFFFFFFFF AND PUSH1 0xE0 SHL DUP2 MSTORE PUSH1 0x4 ADD PUSH2 0x171A SWAP3 SWAP2 SWAP1 PUSH2 0x3DFB JUMP JUMPDEST PUSH1 0x20 PUSH1 0x40 MLOAD DUP1 DUP4 SUB DUP2 PUSH1 0x0 DUP8 GAS CALL ISZERO DUP1 ISZERO PUSH2 0x1739 JUMPI RETURNDATASIZE PUSH1 0x0 DUP1 RETURNDATACOPY RETURNDATASIZE PUSH1 0x0 REVERT JUMPDEST POP POP POP POP PUSH1 0x40 MLOAD RETURNDATASIZE PUSH1 0x1F NOT PUSH1 0x1F DUP3 ADD AND DUP3 ADD DUP1 PUSH1 0x40 MSTORE POP DUP2 ADD SWAP1 PUSH2 0x175D SWAP2 SWAP1 PUSH2 0x3E39 JUMP JUMPDEST PUSH2 0x179C JUMPI PUSH1 0x40 MLOAD PUSH32 0x8C379A000000000000000000000000000000000000000000000000000000000 DUP2 MSTORE PUSH1 0x4 ADD PUSH2 0x1793 SWAP1 PUSH2 0x3F1E JUMP JUMPDEST PUSH1 0x40 MLOAD DUP1 SWAP2 SUB SWAP1 REVERT JUMPDEST CALLER PUSH20 0xFFFFFFFFFFFFFFFFFFFFFFFFFFFFFFFFFFFFFFFF AND PUSH32 0xE74E5C9D4AC1FC33412485F18C159A0A391EFE287AB3FD271123F30E6BACF4E3 DUP3 TIMESTAMP PUSH1 0x40 MLOAD PUSH2 0x17E4 SWAP3 SWAP2 SWAP1 PUSH2 0x41EE JUMP JUMPDEST PUSH1 0x40 MLOAD DUP1 SWAP2 SUB SWAP1 LOG2 POP POP PUSH2 0x17F6 PUSH2 0x24EA JUMP JUMPDEST JUMP JUMPDEST PUSH2 0x1809 PUSH2 0x1803 PUSH2 0x1ECC JUMP JUMPDEST DUP4 PUSH2 0x1F8D JUMP JUMPDEST PUSH2 0x1848 JUMPI PUSH1 0x40 MLOAD PUSH32 0x8C379A000000000000000000000000000000000000000000000000000000000 DUP2 MSTORE PUSH1 0x4 ADD PUSH2 0x183F SWAP1 PUSH2 0x3C6C JUMP JUMPDEST PUSH1 0x40 MLOAD DUP1 SWAP2 SUB SWAP1 REVERT JUMPDEST PUSH2 0x1854 DUP5 DUP5 DUP5 DUP5 PUSH2 0x2826 JUMP JUMPDEST POP POP POP POP JUMP JUMPDEST PUSH1 0x60 PUSH2 0x1865 DUP3 PUSH2 0x1E81 JUMP JUMPDEST PUSH1 0x0 PUSH1 0x9 PUSH1 0x0 DUP5 DUP2 MSTORE PUSH1 0x20 ADD SWAP1 DUP2 MSTORE PUSH1 0x20 ADD PUSH1 0x0 KECCAK256 DUP1 SLOAD PUSH2 0x1885 SWAP1 PUSH2 0x3A46 JUMP JUMPDEST DUP1 PUSH1 0x1F ADD PUSH1 0x20 DUP1 SWAP2 DIV MUL PUSH1 0x20 ADD PUSH1 0x40 MLOAD SWAP1 DUP2 ADD PUSH1 0x40 MSTORE DUP1 SWAP3 SWAP2 SWAP1 DUP2 DUP2 MSTORE PUSH1 0x20 ADD DUP3 DUP1 SLOAD PUSH2 0x18B1 SWAP1 PUSH2 0x3A46 JUMP JUMPDEST DUP1 ISZERO PUSH2 0x18FE JUMPI DUP1 PUSH1 0x1F LT PUSH2 0x18D3 JUMPI PUSH2 0x100 DUP1 DUP4 SLOAD DIV MUL DUP4 MSTORE SWAP2 PUSH1 0x20 ADD SWAP2 PUSH2 0x18FE JUMP JUMPDEST DUP3 ADD SWAP2 SWAP1 PUSH1 0x0 MSTORE PUSH1 0x20 PUSH1 0x0 KECCAK256 SWAP1 JUMPDEST DUP2 SLOAD DUP2 MSTORE SWAP1 PUSH1 0x1 ADD SWAP1 PUSH1 0x20 ADD DUP1 DUP4 GT PUSH2 0x18E1 JUMPI DUP3 SWAP1 SUB PUSH1 0x1F AND DUP3 ADD SWAP2 JUMPDEST POP POP POP POP POP SWAP1 POP PUSH1 0x0 PUSH2 0x190F PUSH2 0x2882 JUMP JUMPDEST SWAP1 POP PUSH1 0x0 DUP2 MLOAD SUB PUSH2 0x1924 JUMPI DUP2 SWAP3 POP POP POP PUSH2 0x1967 JUMP JUMPDEST PUSH1 0x0 DUP3 MLOAD GT ISZERO PUSH2 0x1959 JUMPI DUP1 DUP3 PUSH1 0x40 MLOAD PUSH1 0x20 ADD PUSH2 0x1941 SWAP3 SWAP2 SWAP1 PUSH2 0x432B JUMP JUMPDEST PUSH1 0x40 MLOAD PUSH1 0x20 DUP2 DUP4 SUB SUB DUP2 MSTORE SWAP1 PUSH1 0x40 MSTORE SWAP3 POP POP POP PUSH2 0x1967 JUMP JUMPDEST PUSH2 0x1962 DUP5 PUSH2 0x2899 JUMP JUMPDEST SWAP3 POP POP POP JUMPDEST SWAP2 SWAP1 POP JUMP JUMPDEST PUSH1 0x0 PUSH1 0x8 PUSH1 0x0 DUP5 PUSH20 0xFFFFFFFFFFFFFFFFFFFFFFFFFFFFFFFFFFFFFFFF AND PUSH20 0xFFFFFFFFFFFFFFFFFFFFFFFFFFFFFFFFFFFFFFFF AND DUP2 MSTORE PUSH1 0x20 ADD SWAP1 DUP2 MSTORE PUSH1 0x20 ADD PUSH1 0x0 KECCAK256 PUSH1 0x0 DUP4 PUSH20 0xFFFFFFFFFFFFFFFFFFFFFFFFFFFFFFFFFFFFFFFF AND PUSH20 0xFFFFFFFFFFFFFFFFFFFFFFFFFFFFFFFFFFFFFFFF AND DUP2 MSTORE PUSH1 0x20 ADD SWAP1 DUP2 MSTORE PUSH1 0x20 ADD PUSH1 0x0 KECCAK256 PUSH1 0x0 SWAP1 SLOAD SWAP1 PUSH2 0x100 EXP SWAP1 DIV PUSH1 0xFF AND SWAP1 POP SWAP3 SWAP2 POP POP JUMP JUMPDEST PUSH2 0x1A08 PUSH2 0x1CE7 JUMP JUMPDEST DUP1 PUSH1 0xB DUP2 SWAP1 SSTORE POP POP JUMP JUMPDEST PUSH1 0xB SLOAD DUP2 JUMP JUMPDEST PUSH2 0x1A20 PUSH2 0x1CE7 JUMP JUMPDEST PUSH1 0x0 PUSH20 0xFFFFFFFFFFFFFFFFFFFFFFFFFFFFFFFFFFFFFFFF AND DUP2 PUSH20 0xFFFFFFFFFFFFFFFFFFFFFFFFFFFFFFFFFFFFFFFF AND SUB PUSH2 0x1A8F JUMPI PUSH1 0x40 MLOAD PUSH32 0x8C379A000000000000000000000000000000000000000000000000000000000 DUP2 MSTORE PUSH1 0x4 ADD PUSH2 0x1A86 SWAP1 PUSH2 0x43C1 JUMP JUMPDEST PUSH1 0x40 MLOAD DUP1 SWAP2 SUB SWAP1 REVERT JUMPDEST PUSH2 0x1A98 DUP2 PUSH2 0x2593 JUMP JUMPDEST POP JUMP JUMPDEST PUSH1 0x0 PUSH2 0x1AA6 DUP3 PUSH2 0x23FA JUMP JUMPDEST SWAP1 POP SWAP2 SWAP1 POP JUMP JUMPDEST PUSH2 0x1AB5 PUSH2 0x1CE7 JUMP JUMPDEST PUSH1 0x0 PUSH20 0xFFFFFFFFFFFFFFFFFFFFFFFFFFFFFFFFFFFFFFFF AND DUP2 PUSH20 0xFFFFFFFFFFFFFFFFFFFFFFFFFFFFFFFFFFFFFFFF AND SUB PUSH2 0x1B24 JUMPI PUSH1 0x40 MLOAD PUSH32 0x8C379A000000000000000000000000000000000000000000000000000000000 DUP2 MSTORE PUSH1 0x4 ADD PUSH2 0x1B1B SWAP1 PUSH2 0x442D JUMP JUMPDEST PUSH1 0x40 MLOAD DUP1 SWAP2 SUB SWAP1 REVERT JUMPDEST PUSH32 0x0 PUSH20 0xFFFFFFFFFFFFFFFFFFFFFFFFFFFFFFFFFFFFFFFF AND PUSH4 0xA9059CBB DUP3 DUP5 PUSH1 0x40 MLOAD DUP4 PUSH4 0xFFFFFFFF AND PUSH1 0xE0 SHL DUP2 MSTORE PUSH1 0x4 ADD PUSH2 0x1B7F SWAP3 SWAP2 SWAP1 PUSH2 0x3DFB JUMP JUMPDEST PUSH1 0x20 PUSH1 0x40 MLOAD DUP1 DUP4 SUB DUP2 PUSH1 0x0 DUP8 GAS CALL ISZERO DUP1 ISZERO PUSH2 0x1B9E JUMPI RETURNDATASIZE PUSH1 0x0 DUP1 RETURNDATACOPY RETURNDATASIZE PUSH1 0x0 REVERT JUMPDEST POP POP POP POP PUSH1 0x40 MLOAD RETURNDATASIZE PUSH1 0x1F NOT PUSH1 0x1F DUP3 ADD AND DUP3 ADD DUP1 PUSH1 0x40 MSTORE POP DUP2 ADD SWAP1 PUSH2 0x1BC2 SWAP2 SWAP1 PUSH2 0x3E39 JUMP JUMPDEST PUSH2 0x1C01 JUMPI PUSH1 0x40 MLOAD PUSH32 0x8C379A000000000000000000000000000000000000000000000000000000000 DUP2 MSTORE PUSH1 0x4 ADD PUSH2 0x1BF8 SWAP1 PUSH2 0x4499 JUMP JUMPDEST PUSH1 0x40 MLOAD DUP1 SWAP2 SUB SWAP1 REVERT JUMPDEST POP POP JUMP JUMPDEST PUSH1 0x0 PUSH32 0x80AC58CD00000000000000000000000000000000000000000000000000000000 PUSH28 0xFFFFFFFFFFFFFFFFFFFFFFFFFFFFFFFFFFFFFFFFFFFFFFFFFFFFFFFF NOT AND DUP3 PUSH28 0xFFFFFFFFFFFFFFFFFFFFFFFFFFFFFFFFFFFFFFFFFFFFFFFFFFFFFFFF NOT AND EQ DUP1 PUSH2 0x1CD0 JUMPI POP PUSH32 0x5B5E139F00000000000000000000000000000000000000000000000000000000 PUSH28 0xFFFFFFFFFFFFFFFFFFFFFFFFFFFFFFFFFFFFFFFFFFFFFFFFFFFFFFFF NOT AND DUP3 PUSH28 0xFFFFFFFFFFFFFFFFFFFFFFFFFFFFFFFFFFFFFFFFFFFFFFFFFFFFFFFF NOT AND EQ JUMPDEST DUP1 PUSH2 0x1CE0 JUMPI POP PUSH2 0x1CDF DUP3 PUSH2 0x2901 JUMP JUMPDEST JUMPDEST SWAP1 POP SWAP2 SWAP1 POP JUMP JUMPDEST PUSH2 0x1CEF PUSH2 0x1ECC JUMP JUMPDEST PUSH20 0xFFFFFFFFFFFFFFFFFFFFFFFFFFFFFFFFFFFFFFFF AND PUSH2 0x1D0D PUSH2 0x12AC JUMP JUMPDEST PUSH20 0xFFFFFFFFFFFFFFFFFFFFFFFFFFFFFFFFFFFFFFFF AND EQ PUSH2 0x1D63 JUMPI PUSH1 0x40 MLOAD PUSH32 0x8C379A000000000000000000000000000000000000000000000000000000000 DUP2 MSTORE PUSH1 0x4 ADD PUSH2 0x1D5A SWAP1 PUSH2 0x4505 JUMP JUMPDEST PUSH1 0x40 MLOAD DUP1 SWAP2 SUB SWAP1 REVERT JUMPDEST JUMP JUMPDEST PUSH1 0x0 PUSH1 0xD PUSH1 0x0 DUP2 SLOAD DUP1 SWAP3 SWAP2 SWAP1 PUSH2 0x1D7A SWAP1 PUSH2 0x4525 JUMP JUMPDEST SWAP2 SWAP1 POP SSTORE SWAP1 POP PUSH2 0x1D8A DUP8 DUP3 PUSH2 0x296B JUMP JUMPDEST PUSH1 0x0 DUP3 MLOAD GT ISZERO PUSH2 0x1D9F JUMPI PUSH2 0x1D9E DUP2 DUP4 PUSH2 0x2989 JUMP JUMPDEST JUMPDEST PUSH1 0x40 MLOAD DUP1 PUSH1 0x80 ADD PUSH1 0x40 MSTORE DUP1 DUP8 DUP2 MSTORE PUSH1 0x20 ADD DUP7 DUP2 MSTORE PUSH1 0x20 ADD DUP6 DUP2 MSTORE PUSH1 0x20 ADD DUP5 DUP2 MSTORE POP PUSH1 0xF PUSH1 0x0 DUP4 DUP2 MSTORE PUSH1 0x20 ADD SWAP1 DUP2 MSTORE PUSH1 0x20 ADD PUSH1 0x0 KECCAK256 PUSH1 0x0 DUP3 ADD MLOAD DUP2 PUSH1 0x0 ADD SSTORE PUSH1 0x20 DUP3 ADD MLOAD DUP2 PUSH1 0x1 ADD SWAP1 DUP2 PUSH2 0x1DF2 SWAP2 SWAP1 PUSH2 0x470F JUMP JUMPDEST POP PUSH1 0x40 DUP3 ADD MLOAD DUP2 PUSH1 0x2 ADD SWAP1 DUP2 PUSH2 0x1E08 SWAP2 SWAP1 PUSH2 0x470F JUMP JUMPDEST POP PUSH1 0x60 DUP3 ADD MLOAD DUP2 PUSH1 0x3 ADD SWAP1 DUP2 PUSH2 0x1E1E SWAP2 SWAP1 PUSH2 0x470F JUMP JUMPDEST POP SWAP1 POP POP DUP1 DUP8 PUSH20 0xFFFFFFFFFFFFFFFFFFFFFFFFFFFFFFFFFFFFFFFF AND PUSH32 0x417C648C4C0FC0ECF1A1DA71E54833A7EBB64A7B97F01788F732592E09589A4B DUP9 DUP9 DUP9 DUP9 PUSH1 0x40 MLOAD PUSH2 0x1E6F SWAP5 SWAP4 SWAP3 SWAP2 SWAP1 PUSH2 0x36A4 JUMP JUMPDEST PUSH1 0x40 MLOAD DUP1 SWAP2 SUB SWAP1 LOG3 SWAP7 SWAP6 POP POP POP POP POP POP JUMP JUMPDEST PUSH2 0x1E8A DUP2 PUSH2 0x2A2D JUMP JUMPDEST PUSH2 0x1EC9 JUMPI PUSH1 0x40 MLOAD PUSH32 0x8C379A000000000000000000000000000000000000000000000000000000000 DUP2 MSTORE PUSH1 0x4 ADD PUSH2 0x1EC0 SWAP1 PUSH2 0x3FC1 JUMP JUMPDEST PUSH1 0x40 MLOAD DUP1 SWAP2 SUB SWAP1 REVERT JUMPDEST POP JUMP JUMPDEST PUSH1 0x0 CALLER SWAP1 POP SWAP1 JUMP JUMPDEST DUP2 PUSH1 0x7 PUSH1 0x0 DUP4 DUP2 MSTORE PUSH1 0x20 ADD SWAP1 DUP2 MSTORE PUSH1 0x20 ADD PUSH1 0x0 KECCAK256 PUSH1 0x0 PUSH2 0x100 EXP DUP2 SLOAD DUP2 PUSH20 0xFFFFFFFFFFFFFFFFFFFFFFFFFFFFFFFFFFFFFFFF MUL NOT AND SWAP1 DUP4 PUSH20 0xFFFFFFFFFFFFFFFFFFFFFFFFFFFFFFFFFFFFFFFF AND MUL OR SWAP1 SSTORE POP DUP1 DUP3 PUSH20 0xFFFFFFFFFFFFFFFFFFFFFFFFFFFFFFFFFFFFFFFF AND PUSH2 0x1F47 DUP4 PUSH2 0x10B6 JUMP JUMPDEST PUSH20 0xFFFFFFFFFFFFFFFFFFFFFFFFFFFFFFFFFFFFFFFF AND PUSH32 0x8C5BE1E5EBEC7D5BD14F71427D1E84F3DD0314C0F7B2291E5B200AC8C7C3B925 PUSH1 0x40 MLOAD PUSH1 0x40 MLOAD DUP1 SWAP2 SUB SWAP1 LOG4 POP POP JUMP JUMPDEST PUSH1 0x0 DUP1 PUSH2 0x1F99 DUP4 PUSH2 0x10B6 JUMP JUMPDEST SWAP1 POP DUP1 PUSH20 0xFFFFFFFFFFFFFFFFFFFFFFFFFFFFFFFFFFFFFFFF AND DUP5 PUSH20 0xFFFFFFFFFFFFFFFFFFFFFFFFFFFFFFFFFFFFFFFF AND EQ DUP1 PUSH2 0x1FDB JUMPI POP PUSH2 0x1FDA DUP2 DUP6 PUSH2 0x196C JUMP JUMPDEST JUMPDEST DUP1 PUSH2 0x2019 JUMPI POP DUP4 PUSH20 0xFFFFFFFFFFFFFFFFFFFFFFFFFFFFFFFFFFFFFFFF AND PUSH2 0x2001 DUP5 PUSH2 0x8D4 JUMP JUMPDEST PUSH20 0xFFFFFFFFFFFFFFFFFFFFFFFFFFFFFFFFFFFFFFFF AND EQ JUMPDEST SWAP2 POP POP SWAP3 SWAP2 POP POP JUMP JUMPDEST DUP3 PUSH20 0xFFFFFFFFFFFFFFFFFFFFFFFFFFFFFFFFFFFFFFFF AND PUSH2 0x2042 DUP3 PUSH2 0x10B6 JUMP JUMPDEST PUSH20 0xFFFFFFFFFFFFFFFFFFFFFFFFFFFFFFFFFFFFFFFF AND EQ PUSH2 0x2098 JUMPI PUSH1 0x40 MLOAD PUSH32 0x8C379A000000000000000000000000000000000000000000000000000000000 DUP2 MSTORE PUSH1 0x4 ADD PUSH2 0x208F SWAP1 PUSH2 0x4853 JUMP JUMPDEST PUSH1 0x40 MLOAD DUP1 SWAP2 SUB SWAP1 REVERT JUMPDEST PUSH1 0x0 PUSH20 0xFFFFFFFFFFFFFFFFFFFFFFFFFFFFFFFFFFFFFFFF AND DUP3 PUSH20 0xFFFFFFFFFFFFFFFFFFFFFFFFFFFFFFFFFFFFFFFF AND SUB PUSH2 0x2107 JUMPI PUSH1 0x40 MLOAD PUSH32 0x8C379A000000000000000000000000000000000000000000000000000000000 DUP2 MSTORE PUSH1 0x4 ADD PUSH2 0x20FE SWAP1 PUSH2 0x48E5 JUMP JUMPDEST PUSH1 0x40 MLOAD DUP1 SWAP2 SUB SWAP1 REVERT JUMPDEST PUSH2 0x2114 DUP4 DUP4 DUP4 PUSH1 0x1 PUSH2 0x2A6E JUMP JUMPDEST DUP3 PUSH20 0xFFFFFFFFFFFFFFFFFFFFFFFFFFFFFFFFFFFFFFFF AND PUSH2 0x2134 DUP3 PUSH2 0x10B6 JUMP JUMPDEST PUSH20 0xFFFFFFFFFFFFFFFFFFFFFFFFFFFFFFFFFFFFFFFF AND EQ PUSH2 0x218A JUMPI PUSH1 0x40 MLOAD PUSH32 0x8C379A000000000000000000000000000000000000000000000000000000000 DUP2 MSTORE PUSH1 0x4 ADD PUSH2 0x2181 SWAP1 PUSH2 0x4853 JUMP JUMPDEST PUSH1 0x40 MLOAD DUP1 SWAP2 SUB SWAP1 REVERT JUMPDEST PUSH1 0x7 PUSH1 0x0 DUP3 DUP2 MSTORE PUSH1 0x20 ADD SWAP1 DUP2 MSTORE PUSH1 0x20 ADD PUSH1 0x0 KECCAK256 PUSH1 0x0 PUSH2 0x100 EXP DUP2 SLOAD SWAP1 PUSH20 0xFFFFFFFFFFFFFFFFFFFFFFFFFFFFFFFFFFFFFFFF MUL NOT AND SWAP1 SSTORE PUSH1 0x1 PUSH1 0x6 PUSH1 0x0 DUP6 PUSH20 0xFFFFFFFFFFFFFFFFFFFFFFFFFFFFFFFFFFFFFFFF AND PUSH20 0xFFFFFFFFFFFFFFFFFFFFFFFFFFFFFFFFFFFFFFFF AND DUP2 MSTORE PUSH1 0x20 ADD SWAP1 DUP2 MSTORE PUSH1 0x20 ADD PUSH1 0x0 KECCAK256 PUSH1 0x0 DUP3 DUP3 SLOAD SUB SWAP3 POP POP DUP2 SWAP1 SSTORE POP PUSH1 0x1 PUSH1 0x6 PUSH1 0x0 DUP5 PUSH20 0xFFFFFFFFFFFFFFFFFFFFFFFFFFFFFFFFFFFFFFFF AND PUSH20 0xFFFFFFFFFFFFFFFFFFFFFFFFFFFFFFFFFFFFFFFF AND DUP2 MSTORE PUSH1 0x20 ADD SWAP1 DUP2 MSTORE PUSH1 0x20 ADD PUSH1 0x0 KECCAK256 PUSH1 0x0 DUP3 DUP3 SLOAD ADD SWAP3 POP POP DUP2 SWAP1 SSTORE POP DUP2 PUSH1 0x5 PUSH1 0x0 DUP4 DUP2 MSTORE PUSH1 0x20 ADD SWAP1 DUP2 MSTORE PUSH1 0x20 ADD PUSH1 0x0 KECCAK256 PUSH1 0x0 PUSH2 0x100 EXP DUP2 SLOAD DUP2 PUSH20 0xFFFFFFFFFFFFFFFFFFFFFFFFFFFFFFFFFFFFFFFF MUL NOT AND SWAP1 DUP4 PUSH20 0xFFFFFFFFFFFFFFFFFFFFFFFFFFFFFFFFFFFFFFFF AND MUL OR SWAP1 SSTORE POP DUP1 DUP3 PUSH20 0xFFFFFFFFFFFFFFFFFFFFFFFFFFFFFFFFFFFFFFFF AND DUP5 PUSH20 0xFFFFFFFFFFFFFFFFFFFFFFFFFFFFFFFFFFFFFFFF AND PUSH32 0xDDF252AD1BE2C89B69C2B068FC378DAA952BA7F163C4A11628F55A4DF523B3EF PUSH1 0x40 MLOAD PUSH1 0x40 MLOAD DUP1 SWAP2 SUB SWAP1 LOG4 PUSH2 0x2316 DUP4 DUP4 DUP4 PUSH1 0x1 PUSH2 0x2A88 JUMP JUMPDEST POP POP POP JUMP JUMPDEST PUSH1 0x2 PUSH1 0x1 SLOAD SUB PUSH2 0x2360 JUMPI PUSH1 0x40 MLOAD PUSH32 0x8C379A000000000000000000000000000000000000000000000000000000000 DUP2 MSTORE PUSH1 0x4 ADD PUSH2 0x2357 SWAP1 PUSH2 0x4951 JUMP JUMPDEST PUSH1 0x40 MLOAD DUP1 SWAP2 SUB SWAP1 REVERT JUMPDEST PUSH1 0x2 PUSH1 0x1 DUP2 SWAP1 SSTORE POP JUMP JUMPDEST PUSH2 0x2372 PUSH2 0x109F JUMP JUMPDEST ISZERO PUSH2 0x23B2 JUMPI PUSH1 0x40 MLOAD PUSH32 0x8C379A000000000000000000000000000000000000000000000000000000000 DUP2 MSTORE PUSH1 0x4 ADD PUSH2 0x23A9 SWAP1 PUSH2 0x49BD JUMP JUMPDEST PUSH1 0x40 MLOAD DUP1 SWAP2 SUB SWAP1 REVERT JUMPDEST JUMP JUMPDEST PUSH1 0x0 DUP1 PUSH1 0xC SLOAD SUB PUSH2 0x23C8 JUMPI PUSH1 0x1 SWAP1 POP PUSH2 0x23F5 JUMP JUMPDEST PUSH1 0x0 DUP3 PUSH1 0x60 ADD MLOAD SUB PUSH2 0x23DD JUMPI PUSH1 0x1 SWAP1 POP PUSH2 0x23F5 JUMP JUMPDEST PUSH1 0xC SLOAD DUP3 PUSH1 0x60 ADD MLOAD PUSH2 0x23EF SWAP2 SWAP1 PUSH2 0x3D93 JUMP JUMPDEST TIMESTAMP LT ISZERO SWAP1 POP JUMPDEST SWAP2 SWAP1 POP JUMP JUMPDEST PUSH1 0x0 DUP1 PUSH1 0xE PUSH1 0x0 DUP5 PUSH20 0xFFFFFFFFFFFFFFFFFFFFFFFFFFFFFFFFFFFFFFFF AND PUSH20 0xFFFFFFFFFFFFFFFFFFFFFFFFFFFFFFFFFFFFFFFF AND DUP2 MSTORE PUSH1 0x20 ADD SWAP1 DUP2 MSTORE PUSH1 0x20 ADD PUSH1 0x0 KECCAK256 PUSH1 0x40 MLOAD DUP1 PUSH1 0x80 ADD PUSH1 0x40 MSTORE SWAP1 DUP2 PUSH1 0x0 DUP3 ADD SLOAD DUP2 MSTORE PUSH1 0x20 ADD PUSH1 0x1 DUP3 ADD SLOAD DUP2 MSTORE PUSH1 0x20 ADD PUSH1 0x2 DUP3 ADD SLOAD DUP2 MSTORE PUSH1 0x20 ADD PUSH1 0x3 DUP3 ADD SLOAD DUP2 MSTORE POP POP SWAP1 POP PUSH1 0x0 DUP2 PUSH1 0x0 ADD MLOAD SUB PUSH2 0x2487 JUMPI PUSH1 0x0 SWAP2 POP POP PUSH2 0x24E5 JUMP JUMPDEST PUSH1 0x0 DUP2 PUSH1 0x40 ADD MLOAD TIMESTAMP PUSH2 0x2499 SWAP2 SWAP1 PUSH2 0x3DC7 JUMP JUMPDEST SWAP1 POP PUSH1 0x0 PUSH2 0x2710 PUSH1 0xA SLOAD DUP5 PUSH1 0x0 ADD MLOAD PUSH2 0x24B2 SWAP2 SWAP1 PUSH2 0x49DD JUMP JUMPDEST PUSH2 0x24BC SWAP2 SWAP1 PUSH2 0x4A4E JUMP JUMPDEST SWAP1 POP PUSH1 0x0 PUSH4 0x1E13380 DUP4 DUP4 PUSH2 0x24D1 SWAP2 SWAP1 PUSH2 0x49DD JUMP JUMPDEST PUSH2 0x24DB SWAP2 SWAP1 PUSH2 0x4A4E JUMP JUMPDEST SWAP1 POP DUP1 SWAP5 POP POP POP POP POP JUMPDEST SWAP2 SWAP1 POP JUMP JUMPDEST PUSH1 0x1 DUP1 DUP2 SWAP1 SSTORE POP JUMP JUMPDEST PUSH2 0x24FB PUSH2 0x2A8E JUMP JUMPDEST PUSH1 0x0 PUSH1 0x2 PUSH1 0x0 PUSH2 0x100 EXP DUP2 SLOAD DUP2 PUSH1 0xFF MUL NOT AND SWAP1 DUP4 ISZERO ISZERO MUL OR SWAP1 SSTORE POP PUSH32 0x5DB9EE0A495BF2E6FF9C91A7834C1BA4FDD244A5E8AA4E537BD38AEAE4B073AA PUSH2 0x253F PUSH2 0x1ECC JUMP JUMPDEST PUSH1 0x40 MLOAD PUSH2 0x254C SWAP2 SWAP1 PUSH2 0x3510 JUMP JUMPDEST PUSH1 0x40 MLOAD DUP1 SWAP2 SUB SWAP1 LOG1 JUMP JUMPDEST PUSH1 0x0 PUSH1 0x5 PUSH1 0x0 DUP4 DUP2 MSTORE PUSH1 0x20 ADD SWAP1 DUP2 MSTORE PUSH1 0x20 ADD PUSH1 0x0 KECCAK256 PUSH1 0x0 SWAP1 SLOAD SWAP1 PUSH2 0x100 EXP SWAP1 DIV PUSH20 0xFFFFFFFFFFFFFFFFFFFFFFFFFFFFFFFFFFFFFFFF AND SWAP1 POP SWAP2 SWAP1 POP JUMP JUMPDEST PUSH1 0x0 DUP1 PUSH1 0x0 SWAP1 SLOAD SWAP1 PUSH2 0x100 EXP SWAP1 DIV PUSH20 0xFFFFFFFFFFFFFFFFFFFFFFFFFFFFFFFFFFFFFFFF AND SWAP1 POP DUP2 PUSH1 0x0 DUP1 PUSH2 0x100 EXP DUP2 SLOAD DUP2 PUSH20 0xFFFFFFFFFFFFFFFFFFFFFFFFFFFFFFFFFFFFFFFF MUL NOT AND SWAP1 DUP4 PUSH20 0xFFFFFFFFFFFFFFFFFFFFFFFFFFFFFFFFFFFFFFFF AND MUL OR SWAP1 SSTORE POP DUP2 PUSH20 0xFFFFFFFFFFFFFFFFFFFFFFFFFFFFFFFFFFFFFFFF AND DUP2 PUSH20 0xFFFFFFFFFFFFFFFFFFFFFFFFFFFFFFFFFFFFFFFF AND PUSH32 0x8BE0079C531659141344CD1FD0A4F28419497F9722A3DAAFE3B4186F6B6457E0 PUSH1 0x40 MLOAD PUSH1 0x40 MLOAD DUP1 SWAP2 SUB SWAP1 LOG3 POP POP JUMP JUMPDEST PUSH2 0x265F PUSH2 0x236A JUMP JUMPDEST PUSH1 0x1 PUSH1 0x2 PUSH1 0x0 PUSH2 0x100 EXP DUP2 SLOAD DUP2 PUSH1 0xFF MUL NOT AND SWAP1 DUP4 ISZERO ISZERO MUL OR SWAP1 SSTORE POP PUSH32 0x62E78CEA01BEE320CD4E420270B5EA74000D11B0C9F74754EBDBFC544B05A258 PUSH2 0x26A3 PUSH2 0x1ECC JUMP JUMPDEST PUSH1 0x40 MLOAD PUSH2 0x26B0 SWAP2 SWAP1 PUSH2 0x3510 JUMP JUMPDEST PUSH1 0x40 MLOAD DUP1 SWAP2 SUB SWAP1 LOG1 JUMP JUMPDEST DUP2 PUSH20 0xFFFFFFFFFFFFFFFFFFFFFFFFFFFFFFFFFFFFFFFF AND DUP4 PUSH20 0xFFFFFFFFFFFFFFFFFFFFFFFFFFFFFFFFFFFFFFFF AND SUB PUSH2 0x2728 JUMPI PUSH1 0x40 MLOAD PUSH32 0x8C379A000000000000000000000000000000000000000000000000000000000 DUP2 MSTORE PUSH1 0x4 ADD PUSH2 0x271F SWAP1 PUSH2 0x4ACB JUMP JUMPDEST PUSH1 0x40 MLOAD DUP1 SWAP2 SUB SWAP1 REVERT JUMPDEST DUP1 PUSH1 0x8 PUSH1 0x0 DUP6 PUSH20 0xFFFFFFFFFFFFFFFFFFFFFFFFFFFFFFFFFFFFFFFF AND PUSH20 0xFFFFFFFFFFFFFFFFFFFFFFFFFFFFFFFFFFFFFFFF AND DUP2 MSTORE PUSH1 0x20 ADD SWAP1 DUP2 MSTORE PUSH1 0x20 ADD PUSH1 0x0 KECCAK256 PUSH1 0x0 DUP5 PUSH20 0xFFFFFFFFFFFFFFFFFFFFFFFFFFFFFFFFFFFFFFFF AND PUSH20 0xFFFFFFFFFFFFFFFFFFFFFFFFFFFFFFFFFFFFFFFF AND DUP2 MSTORE PUSH1 0x20 ADD SWAP1 DUP2 MSTORE PUSH1 0x20 ADD PUSH1 0x0 KECCAK256 PUSH1 0x0 PUSH2 0x100 EXP DUP2 SLOAD DUP2 PUSH1 0xFF MUL NOT AND SWAP1 DUP4 ISZERO ISZERO MUL OR SWAP1 SSTORE POP DUP2 PUSH20 0xFFFFFFFFFFFFFFFFFFFFFFFFFFFFFFFFFFFFFFFF AND DUP4 PUSH20 0xFFFFFFFFFFFFFFFFFFFFFFFFFFFFFFFFFFFFFFFF AND PUSH32 0x17307EAB39AB6107E8899845AD3D59BD9653F200F220920489CA2B5937696C31 DUP4 PUSH1 0x40 MLOAD PUSH2 0x2819 SWAP2 SWAP1 PUSH2 0x31D4 JUMP JUMPDEST PUSH1 0x40 MLOAD DUP1 SWAP2 SUB SWAP1 LOG3 POP POP POP JUMP JUMPDEST PUSH2 0x2831 DUP5 DUP5 DUP5 PUSH2 0x2022 JUMP JUMPDEST PUSH2 0x283D DUP5 DUP5 DUP5 DUP5 PUSH2 0x2AD7 JUMP JUMPDEST PUSH2 0x287C JUMPI PUSH1 0x40 MLOAD PUSH32 0x8C379A000000000000000000000000000000000000000000000000000000000 DUP2 MSTORE PUSH1 0x4 ADD PUSH2 0x2873 SWAP1 PUSH2 0x4B5D JUMP JUMPDEST PUSH1 0x40 MLOAD DUP1 SWAP2 SUB SWAP1 REVERT JUMPDEST POP POP POP POP JUMP JUMPDEST PUSH1 0x60 PUSH1 0x40 MLOAD DUP1 PUSH1 0x20 ADD PUSH1 0x40 MSTORE DUP1 PUSH1 0x0 DUP2 MSTORE POP SWAP1 POP SWAP1 JUMP JUMPDEST PUSH1 0x60 PUSH2 0x28A4 DUP3 PUSH2 0x1E81 JUMP JUMPDEST PUSH1 0x0 PUSH2 0x28AE PUSH2 0x2882 JUMP JUMPDEST SWAP1 POP PUSH1 0x0 DUP2 MLOAD GT PUSH2 0x28CE JUMPI PUSH1 0x40 MLOAD DUP1 PUSH1 0x20 ADD PUSH1 0x40 MSTORE DUP1 PUSH1 0x0 DUP2 MSTORE POP PUSH2 0x28F9 JUMP JUMPDEST DUP1 PUSH2 0x28D8 DUP5 PUSH2 0x2C5E JUMP JUMPDEST PUSH1 0x40 MLOAD PUSH1 0x20 ADD PUSH2 0x28E9 SWAP3 SWAP2 SWAP1 PUSH2 0x432B JUMP JUMPDEST PUSH1 0x40 MLOAD PUSH1 0x20 DUP2 DUP4 SUB SUB DUP2 MSTORE SWAP1 PUSH1 0x40 MSTORE JUMPDEST SWAP2 POP POP SWAP2 SWAP1 POP JUMP JUMPDEST PUSH1 0x0 PUSH32 0x1FFC9A700000000000000000000000000000000000000000000000000000000 PUSH28 0xFFFFFFFFFFFFFFFFFFFFFFFFFFFFFFFFFFFFFFFFFFFFFFFFFFFFFFFF NOT AND DUP3 PUSH28 0xFFFFFFFFFFFFFFFFFFFFFFFFFFFFFFFFFFFFFFFFFFFFFFFFFFFFFFFF NOT AND EQ SWAP1 POP SWAP2 SWAP1 POP JUMP JUMPDEST PUSH2 0x2985 DUP3 DUP3 PUSH1 0x40 MLOAD DUP1 PUSH1 0x20 ADD PUSH1 0x40 MSTORE DUP1 PUSH1 0x0 DUP2 MSTORE POP PUSH2 0x2D2C JUMP JUMPDEST POP POP JUMP JUMPDEST PUSH2 0x2992 DUP3 PUSH2 0x2A2D JUMP JUMPDEST PUSH2 0x29D1 JUMPI PUSH1 0x40 MLOAD PUSH32 0x8C379A000000000000000000000000000000000000000000000000000000000 DUP2 MSTORE PUSH1 0x4 ADD PUSH2 0x29C8 SWAP1 PUSH2 0x4BEF JUMP JUMPDEST PUSH1 0x40 MLOAD DUP1 SWAP2 SUB SWAP1 REVERT JUMPDEST DUP1 PUSH1 0x9 PUSH1 0x0 DUP5 DUP2 MSTORE PUSH1 0x20 ADD SWAP1 DUP2 MSTORE PUSH1 0x20 ADD PUSH1 0x0 KECCAK256 SWAP1 DUP2 PUSH2 0x29F1 SWAP2 SWAP1 PUSH2 0x470F JUMP JUMPDEST POP PUSH32 0xF8E1A15ABA9398E019F0B49DF1A4FDE98EE17AE345CB5F6B5E2C27F5033E8CE7 DUP3 PUSH1 0x40 MLOAD PUSH2 0x2A21 SWAP2 SWAP1 PUSH2 0x34B9 JUMP JUMPDEST PUSH1 0x40 MLOAD DUP1 SWAP2 SUB SWAP1 LOG1 POP POP JUMP JUMPDEST PUSH1 0x0 DUP1 PUSH20 0xFFFFFFFFFFFFFFFFFFFFFFFFFFFFFFFFFFFFFFFF AND PUSH2 0x2A4F DUP4 PUSH2 0x2556 JUMP JUMPDEST PUSH20 0xFFFFFFFFFFFFFFFFFFFFFFFFFFFFFFFFFFFFFFFF AND EQ ISZERO SWAP1 POP SWAP2 SWAP1 POP JUMP JUMPDEST PUSH2 0x2A76 PUSH2 0x236A JUMP JUMPDEST PUSH2 0x2A82 DUP5 DUP5 DUP5 DUP5 PUSH2 0x2D87 JUMP JUMPDEST POP POP POP POP JUMP JUMPDEST POP POP POP POP JUMP JUMPDEST PUSH2 0x2A96 PUSH2 0x109F JUMP JUMPDEST PUSH2 0x2AD5 JUMPI PUSH1 0x40 MLOAD PUSH32 0x8C379A000000000000000000000000000000000000000000000000000000000 DUP2 MSTORE PUSH1 0x4 ADD PUSH2 0x2ACC SWAP1 PUSH2 0x4C5B JUMP JUMPDEST PUSH1 0x40 MLOAD DUP1 SWAP2 SUB SWAP1 REVERT JUMPDEST JUMP JUMPDEST PUSH1 0x0 PUSH2 0x2AF8 DUP5 PUSH20 0xFFFFFFFFFFFFFFFFFFFFFFFFFFFFFFFFFFFFFFFF AND PUSH2 0x2D8D JUMP JUMPDEST ISZERO PUSH2 0x2C51 JUMPI DUP4 PUSH20 0xFFFFFFFFFFFFFFFFFFFFFFFFFFFFFFFFFFFFFFFF AND PUSH4 0x150B7A02 PUSH2 0x2B21 PUSH2 0x1ECC JUMP JUMPDEST DUP8 DUP7 DUP7 PUSH1 0x40 MLOAD DUP6 PUSH4 0xFFFFFFFF AND PUSH1 0xE0 SHL DUP2 MSTORE PUSH1 0x4 ADD PUSH2 0x2B43 SWAP5 SWAP4 SWAP3 SWAP2 SWAP1 PUSH2 0x4CD0 JUMP JUMPDEST PUSH1 0x20 PUSH1 0x40 MLOAD DUP1 DUP4 SUB DUP2 PUSH1 0x0 DUP8 GAS CALL SWAP3 POP POP POP DUP1 ISZERO PUSH2 0x2B7F JUMPI POP PUSH1 0x40 MLOAD RETURNDATASIZE PUSH1 0x1F NOT PUSH1 0x1F DUP3 ADD AND DUP3 ADD DUP1 PUSH1 0x40 MSTORE POP DUP2 ADD SWAP1 PUSH2 0x2B7C SWAP2 SWAP1 PUSH2 0x4D31 JUMP JUMPDEST PUSH1 0x1 JUMPDEST PUSH2 0x2C01 JUMPI RETURNDATASIZE DUP1 PUSH1 0x0 DUP2 EQ PUSH2 0x2BAF JUMPI PUSH1 0x40 MLOAD SWAP2 POP PUSH1 0x1F NOT PUSH1 0x3F RETURNDATASIZE ADD AND DUP3 ADD PUSH1 0x40 MSTORE RETURNDATASIZE DUP3 MSTORE RETURNDATASIZE PUSH1 0x0 PUSH1 0x20 DUP5 ADD RETURNDATACOPY PUSH2 0x2BB4 JUMP JUMPDEST PUSH1 0x60 SWAP2 POP JUMPDEST POP PUSH1 0x0 DUP2 MLOAD SUB PUSH2 0x2BF9 JUMPI PUSH1 0x40 MLOAD PUSH32 0x8C379A000000000000000000000000000000000000000000000000000000000 DUP2 MSTORE PUSH1 0x4 ADD PUSH2 0x2BF0 SWAP1 PUSH2 0x4B5D JUMP JUMPDEST PUSH1 0x40 MLOAD DUP1 SWAP2 SUB SWAP1 REVERT JUMPDEST DUP1 MLOAD DUP2 PUSH1 0x20 ADD REVERT JUMPDEST PUSH4 0x150B7A02 PUSH1 0xE0 SHL PUSH28 0xFFFFFFFFFFFFFFFFFFFFFFFFFFFFFFFFFFFFFFFFFFFFFFFFFFFFFFFF NOT AND DUP2 PUSH28 0xFFFFFFFFFFFFFFFFFFFFFFFFFFFFFFFFFFFFFFFFFFFFFFFFFFFFFFFF NOT AND EQ SWAP2 POP POP PUSH2 0x2C56 JUMP JUMPDEST PUSH1 0x1 SWAP1 POP JUMPDEST SWAP5 SWAP4 POP POP POP POP JUMP JUMPDEST PUSH1 0x60 PUSH1 0x0 PUSH1 0x1 PUSH2 0x2C6D DUP5 PUSH2 0x2DB0 JUMP JUMPDEST ADD SWAP1 POP PUSH1 0x0 DUP2 PUSH8 0xFFFFFFFFFFFFFFFF DUP2 GT ISZERO PUSH2 0x2C8C JUMPI PUSH2 0x2C8B PUSH2 0x37E9 JUMP JUMPDEST JUMPDEST PUSH1 0x40 MLOAD SWAP1 DUP1 DUP3 MSTORE DUP1 PUSH1 0x1F ADD PUSH1 0x1F NOT AND PUSH1 0x20 ADD DUP3 ADD PUSH1 0x40 MSTORE DUP1 ISZERO PUSH2 0x2CBE JUMPI DUP2 PUSH1 0x20 ADD PUSH1 0x1 DUP3 MUL DUP1 CALLDATASIZE DUP4 CALLDATACOPY DUP1 DUP3 ADD SWAP2 POP POP SWAP1 POP JUMPDEST POP SWAP1 POP PUSH1 0x0 DUP3 PUSH1 0x20 ADD DUP3 ADD SWAP1 POP JUMPDEST PUSH1 0x1 ISZERO PUSH2 0x2D21 JUMPI DUP1 DUP1 PUSH1 0x1 SWAP1 SUB SWAP2 POP POP PUSH32 0x3031323334353637383961626364656600000000000000000000000000000000 PUSH1 0xA DUP7 MOD BYTE DUP2 MSTORE8 PUSH1 0xA DUP6 DUP2 PUSH2 0x2D15 JUMPI PUSH2 0x2D14 PUSH2 0x4A1F JUMP JUMPDEST JUMPDEST DIV SWAP5 POP PUSH1 0x0 DUP6 SUB PUSH2 0x2CCC JUMPI JUMPDEST DUP2 SWAP4 POP POP POP POP SWAP2 SWAP1 POP JUMP JUMPDEST PUSH2 0x2D36 DUP4 DUP4 PUSH2 0x2F03 JUMP JUMPDEST PUSH2 0x2D43 PUSH1 0x0 DUP5 DUP5 DUP5 PUSH2 0x2AD7 JUMP JUMPDEST PUSH2 0x2D82 JUMPI PUSH1 0x40 MLOAD PUSH32 0x8C379A000000000000000000000000000000000000000000000000000000000 DUP2 MSTORE PUSH1 0x4 ADD PUSH2 0x2D79 SWAP1 PUSH2 0x4B5D JUMP JUMPDEST PUSH1 0x40 MLOAD DUP1 SWAP2 SUB SWAP1 REVERT JUMPDEST POP POP POP JUMP JUMPDEST POP POP POP POP JUMP JUMPDEST PUSH1 0x0 DUP1 DUP3 PUSH20 0xFFFFFFFFFFFFFFFFFFFFFFFFFFFFFFFFFFFFFFFF AND EXTCODESIZE GT SWAP1 POP SWAP2 SWAP1 POP JUMP JUMPDEST PUSH1 0x0 DUP1 PUSH1 0x0 SWAP1 POP PUSH27 0x184F03E93FF9F4DAA797ED6E38ED64BF6A1F010000000000000000 DUP4 LT PUSH2 0x2E0E JUMPI PUSH27 0x184F03E93FF9F4DAA797ED6E38ED64BF6A1F010000000000000000 DUP4 DUP2 PUSH2 0x2E04 JUMPI PUSH2 0x2E03 PUSH2 0x4A1F JUMP JUMPDEST JUMPDEST DIV SWAP3 POP PUSH1 0x40 DUP2 ADD SWAP1 POP JUMPDEST PUSH14 0x4EE2D6D415B85ACEF8100000000 DUP4 LT PUSH2 0x2E4B JUMPI PUSH14 0x4EE2D6D415B85ACEF8100000000 DUP4 DUP2 PUSH2 0x2E41 JUMPI PUSH2 0x2E40 PUSH2 0x4A1F JUMP JUMPDEST JUMPDEST DIV SWAP3 POP PUSH1 0x20 DUP2 ADD SWAP1 POP JUMPDEST PUSH7 0x2386F26FC10000 DUP4 LT PUSH2 0x2E7A JUMPI PUSH7 0x2386F26FC10000 DUP4 DUP2 PUSH2 0x2E70 JUMPI PUSH2 0x2E6F PUSH2 0x4A1F JUMP JUMPDEST JUMPDEST DIV SWAP3 POP PUSH1 0x10 DUP2 ADD SWAP1 POP JUMPDEST PUSH4 0x5F5E100 DUP4 LT PUSH2 0x2EA3 JUMPI PUSH4 0x5F5E100 DUP4 DUP2 PUSH2 0x2E99 JUMPI PUSH2 0x2E98 PUSH2 0x4A1F JUMP JUMPDEST JUMPDEST DIV SWAP3 POP PUSH1 0x8 DUP2 ADD SWAP1 POP JUMPDEST PUSH2 0x2710 DUP4 LT PUSH2 0x2EC8 JUMPI PUSH2 0x2710 DUP4 DUP2 PUSH2 0x2EBE JUMPI PUSH2 0x2EBD PUSH2 0x4A1F JUMP JUMPDEST JUMPDEST DIV SWAP3 POP PUSH1 0x4 DUP2 ADD SWAP1 POP JUMPDEST PUSH1 0x64 DUP4 LT PUSH2 0x2EEB JUMPI PUSH1 0x64 DUP4 DUP2 PUSH2 0x2EE1 JUMPI PUSH2 0x2EE0 PUSH2 0x4A1F JUMP JUMPDEST JUMPDEST DIV SWAP3 POP PUSH1 0x2 DUP2 ADD SWAP1 POP JUMPDEST PUSH1 0xA DUP4 LT PUSH2 0x2EFA JUMPI PUSH1 0x1 DUP2 ADD SWAP1 POP JUMPDEST DUP1 SWAP2 POP POP SWAP2 SWAP1 POP JUMP JUMPDEST PUSH1 0x0 PUSH20 0xFFFFFFFFFFFFFFFFFFFFFFFFFFFFFFFFFFFFFFFF AND DUP3 PUSH20 0xFFFFFFFFFFFFFFFFFFFFFFFFFFFFFFFFFFFFFFFF AND SUB PUSH2 0x2F72 JUMPI PUSH1 0x40 MLOAD PUSH32 0x8C379A000000000000000000000000000000000000000000000000000000000 DUP2 MSTORE PUSH1 0x4 ADD PUSH2 0x2F69 SWAP1 PUSH2 0x4DAA JUMP JUMPDEST PUSH1 0x40 MLOAD DUP1 SWAP2 SUB SWAP1 REVERT JUMPDEST PUSH2 0x2F7B DUP2 PUSH2 0x2A2D JUMP JUMPDEST ISZERO PUSH2 0x2FBB JUMPI PUSH1 0x40 MLOAD PUSH32 0x8C379A000000000000000000000000000000000000000000000000000000000 DUP2 MSTORE PUSH1 0x4 ADD PUSH2 0x2FB2 SWAP1 PUSH2 0x4E16 JUMP JUMPDEST PUSH1 0x40 MLOAD DUP1 SWAP2 SUB SWAP1 REVERT JUMPDEST PUSH2 0x2FC9 PUSH1 0x0 DUP4 DUP4 PUSH1 0x1 PUSH2 0x2A6E JUMP JUMPDEST PUSH2 0x2FD2 DUP2 PUSH2 0x2A2D JUMP JUMPDEST ISZERO PUSH2 0x3012 JUMPI PUSH1 0x40 MLOAD PUSH32 0x8C379A000000000000000000000000000000000000000000000000000000000 DUP2 MSTORE PUSH1 0x4 ADD PUSH2 0x3009 SWAP1 PUSH2 0x4E16 JUMP JUMPDEST PUSH1 0x40 MLOAD DUP1 SWAP2 SUB SWAP1 REVERT JUMPDEST PUSH1 0x1 PUSH1 0x6 PUSH1 0x0 DUP5 PUSH20 0xFFFFFFFFFFFFFFFFFFFFFFFFFFFFFFFFFFFFFFFF AND PUSH20 0xFFFFFFFFFFFFFFFFFFFFFFFFFFFFFFFFFFFFFFFF AND DUP2 MSTORE PUSH1 0x20 ADD SWAP1 DUP2 MSTORE PUSH1 0x20 ADD PUSH1 0x0 KECCAK256 PUSH1 0x0 DUP3 DUP3 SLOAD ADD SWAP3 POP POP DUP2 SWAP1 SSTORE POP DUP2 PUSH1 0x5 PUSH1 0x0 DUP4 DUP2 MSTORE PUSH1 0x20 ADD SWAP1 DUP2 MSTORE PUSH1 0x20 ADD PUSH1 0x0 KECCAK256 PUSH1 0x0 PUSH2 0x100 EXP DUP2 SLOAD DUP2 PUSH20 0xFFFFFFFFFFFFFFFFFFFFFFFFFFFFFFFFFFFFFFFF MUL NOT AND SWAP1 DUP4 PUSH20 0xFFFFFFFFFFFFFFFFFFFFFFFFFFFFFFFFFFFFFFFF AND MUL OR SWAP1 SSTORE POP DUP1 DUP3 PUSH20 0xFFFFFFFFFFFFFFFFFFFFFFFFFFFFFFFFFFFFFFFF AND PUSH1 0x0 PUSH20 0xFFFFFFFFFFFFFFFFFFFFFFFFFFFFFFFFFFFFFFFF AND PUSH32 0xDDF252AD1BE2C89B69C2B068FC378DAA952BA7F163C4A11628F55A4DF523B3EF PUSH1 0x40 MLOAD PUSH1 0x40 MLOAD DUP1 SWAP2 SUB SWAP1 LOG4 PUSH2 0x311C PUSH1 0x0 DUP4 DUP4 PUSH1 0x1 PUSH2 0x2A88 JUMP JUMPDEST POP POP JUMP JUMPDEST PUSH1 0x0 PUSH1 0x40 MLOAD SWAP1 POP SWAP1 JUMP JUMPDEST PUSH1 0x0 DUP1 REVERT JUMPDEST PUSH1 0x0 DUP1 REVERT JUMPDEST PUSH1 0x0 PUSH32 0xFFFFFFFF00000000000000000000000000000000000000000000000000000000 DUP3 AND SWAP1 POP SWAP2 SWAP1 POP JUMP JUMPDEST PUSH2 0x3169 DUP2 PUSH2 0x3134 JUMP JUMPDEST DUP2 EQ PUSH2 0x3174 JUMPI PUSH1 0x0 DUP1 REVERT JUMPDEST POP JUMP JUMPDEST PUSH1 0x0 DUP2 CALLDATALOAD SWAP1 POP PUSH2 0x3186 DUP2 PUSH2 0x3160 JUMP JUMPDEST SWAP3 SWAP2 POP POP JUMP JUMPDEST PUSH1 0x0 PUSH1 0x20 DUP3 DUP5 SUB SLT ISZERO PUSH2 0x31A2 JUMPI PUSH2 0x31A1 PUSH2 0x312A JUMP JUMPDEST JUMPDEST PUSH1 0x0 PUSH2 0x31B0 DUP5 DUP3 DUP6 ADD PUSH2 0x3177 JUMP JUMPDEST SWAP2 POP POP SWAP3 SWAP2 POP POP JUMP JUMPDEST PUSH1 0x0 DUP2 ISZERO ISZERO SWAP1 POP SWAP2 SWAP1 POP JUMP JUMPDEST PUSH2 0x31CE DUP2 PUSH2 0x31B9 JUMP JUMPDEST DUP3 MSTORE POP POP JUMP JUMPDEST PUSH1 0x0 PUSH1 0x20 DUP3 ADD SWAP1 POP PUSH2 0x31E9 PUSH1 0x0 DUP4 ADD DUP5 PUSH2 0x31C5 JUMP JUMPDEST SWAP3 SWAP2 POP POP JUMP JUMPDEST PUSH1 0x0 DUP2 MLOAD SWAP1 POP SWAP2 SWAP1 POP JUMP JUMPDEST PUSH1 0x0 DUP3 DUP3 MSTORE PUSH1 0x20 DUP3 ADD SWAP1 POP SWAP3 SWAP2 POP POP JUMP JUMPDEST PUSH1 0x0 JUMPDEST DUP4 DUP2 LT ISZERO PUSH2 0x3229 JUMPI DUP1 DUP3 ADD MLOAD DUP2 DUP5 ADD MSTORE PUSH1 0x20 DUP2 ADD SWAP1 POP PUSH2 0x320E JUMP JUMPDEST PUSH1 0x0 DUP5 DUP5 ADD MSTORE POP POP POP POP JUMP JUMPDEST PUSH1 0x0 PUSH1 0x1F NOT PUSH1 0x1F DUP4 ADD AND SWAP1 POP SWAP2 SWAP1 POP JUMP JUMPDEST PUSH1 0x0 PUSH2 0x3251 DUP3 PUSH2 0x31EF JUMP JUMPDEST PUSH2 0x325B DUP2 DUP6 PUSH2 0x31FA JUMP JUMPDEST SWAP4 POP PUSH2 0x326B DUP2 DUP6 PUSH1 0x20 DUP7 ADD PUSH2 0x320B JUMP JUMPDEST PUSH2 0x3274 DUP2 PUSH2 0x3235 JUMP JUMPDEST DUP5 ADD SWAP2 POP POP SWAP3 SWAP2 POP POP JUMP JUMPDEST PUSH1 0x0 PUSH1 0x20 DUP3 ADD SWAP1 POP DUP2 DUP2 SUB PUSH1 0x0 DUP4 ADD MSTORE PUSH2 0x3299 DUP2 DUP5 PUSH2 0x3246 JUMP JUMPDEST SWAP1 POP SWAP3 SWAP2 POP POP JUMP JUMPDEST PUSH1 0x0 PUSH20 0xFFFFFFFFFFFFFFFFFFFFFFFFFFFFFFFFFFFFFFFF DUP3 AND SWAP1 POP SWAP2 SWAP1 POP JUMP JUMPDEST PUSH1 0x0 PUSH2 0x32CC DUP3 PUSH2 0x32A1 JUMP JUMPDEST SWAP1 POP SWAP2 SWAP1 POP JUMP JUMPDEST PUSH2 0x32DC DUP2 PUSH2 0x32C1 JUMP JUMPDEST DUP2 EQ PUSH2 0x32E7 JUMPI PUSH1 0x0 DUP1 REVERT JUMPDEST POP JUMP JUMPDEST PUSH1 0x0 DUP2 CALLDATALOAD SWAP1 POP PUSH2 0x32F9 DUP2 PUSH2 0x32D3 JUMP JUMPDEST SWAP3 SWAP2 POP POP JUMP JUMPDEST PUSH1 0x0 DUP2 SWAP1 POP SWAP2 SWAP1 POP JUMP JUMPDEST PUSH2 0x3312 DUP2 PUSH2 0x32FF JUMP JUMPDEST DUP2 EQ PUSH2 0x331D JUMPI PUSH1 0x0 DUP1 REVERT JUMPDEST POP JUMP JUMPDEST PUSH1 0x0 DUP2 CALLDATALOAD SWAP1 POP PUSH2 0x332F DUP2 PUSH2 0x3309 JUMP JUMPDEST SWAP3 SWAP2 POP POP JUMP JUMPDEST PUSH1 0x0 DUP1 REVERT JUMPDEST PUSH1 0x0 DUP1 REVERT JUMPDEST PUSH1 0x0 DUP1 REVERT JUMPDEST PUSH1 0x0 DUP1 DUP4 PUSH1 0x1F DUP5 ADD SLT PUSH2 0x335A JUMPI PUSH2 0x3359 PUSH2 0x3335 JUMP JUMPDEST JUMPDEST DUP3 CALLDATALOAD SWAP1 POP PUSH8 0xFFFFFFFFFFFFFFFF DUP2 GT ISZERO PUSH2 0x3377 JUMPI PUSH2 0x3376 PUSH2 0x333A JUMP JUMPDEST JUMPDEST PUSH1 0x20 DUP4 ADD SWAP2 POP DUP4 PUSH1 0x1 DUP3 MUL DUP4 ADD GT ISZERO PUSH2 0x3393 JUMPI PUSH2 0x3392 PUSH2 0x333F JUMP JUMPDEST JUMPDEST SWAP3 POP SWAP3 SWAP1 POP JUMP JUMPDEST PUSH1 0x0 DUP1 PUSH1 0x0 DUP1 PUSH1 0x0 DUP1 PUSH1 0x0 DUP1 PUSH1 0x0 DUP1 PUSH1 0xC0 DUP12 DUP14 SUB SLT ISZERO PUSH2 0x33BD JUMPI PUSH2 0x33BC PUSH2 0x312A JUMP JUMPDEST JUMPDEST PUSH1 0x0 PUSH2 0x33CB DUP14 DUP3 DUP15 ADD PUSH2 0x32EA JUMP JUMPDEST SWAP11 POP POP PUSH1 0x20 PUSH2 0x33DC DUP14 DUP3 DUP15 ADD PUSH2 0x3320 JUMP JUMPDEST SWAP10 POP POP PUSH1 0x40 DUP12 ADD CALLDATALOAD PUSH8 0xFFFFFFFFFFFFFFFF DUP2 GT ISZERO PUSH2 0x33FD JUMPI PUSH2 0x33FC PUSH2 0x312F JUMP JUMPDEST JUMPDEST PUSH2 0x3409 DUP14 DUP3 DUP15 ADD PUSH2 0x3344 JUMP JUMPDEST SWAP9 POP SWAP9 POP POP PUSH1 0x60 DUP12 ADD CALLDATALOAD PUSH8 0xFFFFFFFFFFFFFFFF DUP2 GT ISZERO PUSH2 0x342C JUMPI PUSH2 0x342B PUSH2 0x312F JUMP JUMPDEST JUMPDEST PUSH2 0x3438 DUP14 DUP3 DUP15 ADD PUSH2 0x3344 JUMP JUMPDEST SWAP7 POP SWAP7 POP POP PUSH1 0x80 DUP12 ADD CALLDATALOAD PUSH8 0xFFFFFFFFFFFFFFFF DUP2 GT ISZERO PUSH2 0x345B JUMPI PUSH2 0x345A PUSH2 0x312F JUMP JUMPDEST JUMPDEST PUSH2 0x3467 DUP14 DUP3 DUP15 ADD PUSH2 0x3344 JUMP JUMPDEST SWAP5 POP SWAP5 POP POP PUSH1 0xA0 DUP12 ADD CALLDATALOAD PUSH8 0xFFFFFFFFFFFFFFFF DUP2 GT ISZERO PUSH2 0x348A JUMPI PUSH2 0x3489 PUSH2 0x312F JUMP JUMPDEST JUMPDEST PUSH2 0x3496 DUP14 DUP3 DUP15 ADD PUSH2 0x3344 JUMP JUMPDEST SWAP3 POP SWAP3 POP POP SWAP3 SWAP6 SWAP9 SWAP12 SWAP2 SWAP5 SWAP8 SWAP11 POP SWAP3 SWAP6 SWAP9 POP JUMP JUMPDEST PUSH2 0x34B3 DUP2 PUSH2 0x32FF JUMP JUMPDEST DUP3 MSTORE POP POP JUMP JUMPDEST PUSH1 0x0 PUSH1 0x20 DUP3 ADD SWAP1 POP PUSH2 0x34CE PUSH1 0x0 DUP4 ADD DUP5 PUSH2 0x34AA JUMP JUMPDEST SWAP3 SWAP2 POP POP JUMP JUMPDEST PUSH1 0x0 PUSH1 0x20 DUP3 DUP5 SUB SLT ISZERO PUSH2 0x34EA JUMPI PUSH2 0x34E9 PUSH2 0x312A JUMP JUMPDEST JUMPDEST PUSH1 0x0 PUSH2 0x34F8 DUP5 DUP3 DUP6 ADD PUSH2 0x3320 JUMP JUMPDEST SWAP2 POP POP SWAP3 SWAP2 POP POP JUMP JUMPDEST PUSH2 0x350A DUP2 PUSH2 0x32C1 JUMP JUMPDEST DUP3 MSTORE POP POP JUMP JUMPDEST PUSH1 0x0 PUSH1 0x20 DUP3 ADD SWAP1 POP PUSH2 0x3525 PUSH1 0x0 DUP4 ADD DUP5 PUSH2 0x3501 JUMP JUMPDEST SWAP3 SWAP2 POP POP JUMP JUMPDEST PUSH1 0x0 DUP1 PUSH1 0x0 DUP1 PUSH1 0x60 DUP6 DUP8 SUB SLT ISZERO PUSH2 0x3545 JUMPI PUSH2 0x3544 PUSH2 0x312A JUMP JUMPDEST JUMPDEST PUSH1 0x0 PUSH2 0x3553 DUP8 DUP3 DUP9 ADD PUSH2 0x3320 JUMP JUMPDEST SWAP5 POP POP PUSH1 0x20 PUSH2 0x3564 DUP8 DUP3 DUP9 ADD PUSH2 0x3320 JUMP JUMPDEST SWAP4 POP POP PUSH1 0x40 DUP6 ADD CALLDATALOAD PUSH8 0xFFFFFFFFFFFFFFFF DUP2 GT ISZERO PUSH2 0x3585 JUMPI PUSH2 0x3584 PUSH2 0x312F JUMP JUMPDEST JUMPDEST PUSH2 0x3591 DUP8 DUP3 DUP9 ADD PUSH2 0x3344 JUMP JUMPDEST SWAP3 POP SWAP3 POP POP SWAP3 SWAP6 SWAP2 SWAP5 POP SWAP3 POP JUMP JUMPDEST PUSH1 0x0 DUP1 PUSH1 0x40 DUP4 DUP6 SUB SLT ISZERO PUSH2 0x35B6 JUMPI PUSH2 0x35B5 PUSH2 0x312A JUMP JUMPDEST JUMPDEST PUSH1 0x0 PUSH2 0x35C4 DUP6 DUP3 DUP7 ADD PUSH2 0x32EA JUMP JUMPDEST SWAP3 POP POP PUSH1 0x20 PUSH2 0x35D5 DUP6 DUP3 DUP7 ADD PUSH2 0x3320 JUMP JUMPDEST SWAP2 POP POP SWAP3 POP SWAP3 SWAP1 POP JUMP JUMPDEST PUSH1 0x0 PUSH1 0x20 DUP3 DUP5 SUB SLT ISZERO PUSH2 0x35F5 JUMPI PUSH2 0x35F4 PUSH2 0x312A JUMP JUMPDEST JUMPDEST PUSH1 0x0 PUSH2 0x3603 DUP5 DUP3 DUP6 ADD PUSH2 0x32EA JUMP JUMPDEST SWAP2 POP POP SWAP3 SWAP2 POP POP JUMP JUMPDEST PUSH1 0x0 PUSH1 0x80 DUP3 ADD SWAP1 POP PUSH2 0x3621 PUSH1 0x0 DUP4 ADD DUP8 PUSH2 0x34AA JUMP JUMPDEST PUSH2 0x362E PUSH1 0x20 DUP4 ADD DUP7 PUSH2 0x34AA JUMP JUMPDEST PUSH2 0x363B PUSH1 0x40 DUP4 ADD DUP6 PUSH2 0x34AA JUMP JUMPDEST PUSH2 0x3648 PUSH1 0x60 DUP4 ADD DUP5 PUSH2 0x34AA JUMP JUMPDEST SWAP6 SWAP5 POP POP POP POP POP JUMP JUMPDEST PUSH1 0x0 DUP1 PUSH1 0x0 PUSH1 0x60 DUP5 DUP7 SUB SLT ISZERO PUSH2 0x366A JUMPI PUSH2 0x3669 PUSH2 0x312A JUMP JUMPDEST JUMPDEST PUSH1 0x0 PUSH2 0x3678 DUP7 DUP3 DUP8 ADD PUSH2 0x32EA JUMP JUMPDEST SWAP4 POP POP PUSH1 0x20 PUSH2 0x3689 DUP7 DUP3 DUP8 ADD PUSH2 0x32EA JUMP JUMPDEST SWAP3 POP POP PUSH1 0x40 PUSH2 0x369A DUP7 DUP3 DUP8 ADD PUSH2 0x3320 JUMP JUMPDEST SWAP2 POP POP SWAP3 POP SWAP3 POP SWAP3 JUMP JUMPDEST PUSH1 0x0 PUSH1 0x80 DUP3 ADD SWAP1 POP PUSH2 0x36B9 PUSH1 0x0 DUP4 ADD DUP8 PUSH2 0x34AA JUMP JUMPDEST DUP2 DUP2 SUB PUSH1 0x20 DUP4 ADD MSTORE PUSH2 0x36CB DUP2 DUP7 PUSH2 0x3246 JUMP JUMPDEST SWAP1 POP DUP2 DUP2 SUB PUSH1 0x40 DUP4 ADD MSTORE PUSH2 0x36DF DUP2 DUP6 PUSH2 0x3246 JUMP JUMPDEST SWAP1 POP DUP2 DUP2 SUB PUSH1 0x60 DUP4 ADD MSTORE PUSH2 0x36F3 DUP2 DUP5 PUSH2 0x3246 JUMP JUMPDEST SWAP1 POP SWAP6 SWAP5 POP POP POP POP POP JUMP JUMPDEST PUSH1 0x0 DUP2 SWAP1 POP SWAP2 SWAP1 POP JUMP JUMPDEST PUSH1 0x0 PUSH2 0x3723 PUSH2 0x371E PUSH2 0x3719 DUP5 PUSH2 0x32A1 JUMP JUMPDEST PUSH2 0x36FE JUMP JUMPDEST PUSH2 0x32A1 JUMP JUMPDEST SWAP1 POP SWAP2 SWAP1 POP JUMP JUMPDEST PUSH1 0x0 PUSH2 0x3735 DUP3 PUSH2 0x3708 JUMP JUMPDEST SWAP1 POP SWAP2 SWAP1 POP JUMP JUMPDEST PUSH1 0x0 PUSH2 0x3747 DUP3 PUSH2 0x372A JUMP JUMPDEST SWAP1 POP SWAP2 SWAP1 POP JUMP JUMPDEST PUSH2 0x3757 DUP2 PUSH2 0x373C JUMP JUMPDEST DUP3 MSTORE POP POP JUMP JUMPDEST PUSH1 0x0 PUSH1 0x20 DUP3 ADD SWAP1 POP PUSH2 0x3772 PUSH1 0x0 DUP4 ADD DUP5 PUSH2 0x374E JUMP JUMPDEST SWAP3 SWAP2 POP POP JUMP JUMPDEST PUSH2 0x3781 DUP2 PUSH2 0x31B9 JUMP JUMPDEST DUP2 EQ PUSH2 0x378C JUMPI PUSH1 0x0 DUP1 REVERT JUMPDEST POP JUMP JUMPDEST PUSH1 0x0 DUP2 CALLDATALOAD SWAP1 POP PUSH2 0x379E DUP2 PUSH2 0x3778 JUMP JUMPDEST SWAP3 SWAP2 POP POP JUMP JUMPDEST PUSH1 0x0 DUP1 PUSH1 0x40 DUP4 DUP6 SUB SLT ISZERO PUSH2 0x37BB JUMPI PUSH2 0x37BA PUSH2 0x312A JUMP JUMPDEST JUMPDEST PUSH1 0x0 PUSH2 0x37C9 DUP6 DUP3 DUP7 ADD PUSH2 0x32EA JUMP JUMPDEST SWAP3 POP POP PUSH1 0x20 PUSH2 0x37DA DUP6 DUP3 DUP7 ADD PUSH2 0x378F JUMP JUMPDEST SWAP2 POP POP SWAP3 POP SWAP3 SWAP1 POP JUMP JUMPDEST PUSH1 0x0 DUP1 REVERT JUMPDEST PUSH32 0x4E487B7100000000000000000000000000000000000000000000000000000000 PUSH1 0x0 MSTORE PUSH1 0x41 PUSH1 0x4 MSTORE PUSH1 0x24 PUSH1 0x0 REVERT JUMPDEST PUSH2 0x3821 DUP3 PUSH2 0x3235 JUMP JUMPDEST DUP2 ADD DUP2 DUP2 LT PUSH8 0xFFFFFFFFFFFFFFFF DUP3 GT OR ISZERO PUSH2 0x3840 JUMPI PUSH2 0x383F PUSH2 0x37E9 JUMP JUMPDEST JUMPDEST DUP1 PUSH1 0x40 MSTORE POP POP POP JUMP JUMPDEST PUSH1 0x0 PUSH2 0x3853 PUSH2 0x3120 JUMP JUMPDEST SWAP1 POP PUSH2 0x385F DUP3 DUP3 PUSH2 0x3818 JUMP JUMPDEST SWAP2 SWAP1 POP JUMP JUMPDEST PUSH1 0x0 PUSH8 0xFFFFFFFFFFFFFFFF DUP3 GT ISZERO PUSH2 0x387F JUMPI PUSH2 0x387E PUSH2 0x37E9 JUMP JUMPDEST JUMPDEST PUSH2 0x3888 DUP3 PUSH2 0x3235 JUMP JUMPDEST SWAP1 POP PUSH1 0x20 DUP2 ADD SWAP1 POP SWAP2 SWAP1 POP JUMP JUMPDEST DUP3 DUP2 DUP4 CALLDATACOPY PUSH1 0x0 DUP4 DUP4 ADD MSTORE POP POP POP JUMP JUMPDEST PUSH1 0x0 PUSH2 0x38B7 PUSH2 0x38B2 DUP5 PUSH2 0x3864 JUMP JUMPDEST PUSH2 0x3849 JUMP JUMPDEST SWAP1 POP DUP3 DUP2 MSTORE PUSH1 0x20 DUP2 ADD DUP5 DUP5 DUP5 ADD GT ISZERO PUSH2 0x38D3 JUMPI PUSH2 0x38D2 PUSH2 0x37E4 JUMP JUMPDEST JUMPDEST PUSH2 0x38DE DUP5 DUP3 DUP6 PUSH2 0x3895 JUMP JUMPDEST POP SWAP4 SWAP3 POP POP POP JUMP JUMPDEST PUSH1 0x0 DUP3 PUSH1 0x1F DUP4 ADD SLT PUSH2 0x38FB JUMPI PUSH2 0x38FA PUSH2 0x3335 JUMP JUMPDEST JUMPDEST DUP2 CALLDATALOAD PUSH2 0x390B DUP5 DUP3 PUSH1 0x20 DUP7 ADD PUSH2 0x38A4 JUMP JUMPDEST SWAP2 POP POP SWAP3 SWAP2 POP POP JUMP JUMPDEST PUSH1 0x0 DUP1 PUSH1 0x0 DUP1 PUSH1 0x80 DUP6 DUP8 SUB SLT ISZERO PUSH2 0x392E JUMPI PUSH2 0x392D PUSH2 0x312A JUMP JUMPDEST JUMPDEST PUSH1 0x0 PUSH2 0x393C DUP8 DUP3 DUP9 ADD PUSH2 0x32EA JUMP JUMPDEST SWAP5 POP POP PUSH1 0x20 PUSH2 0x394D DUP8 DUP3 DUP9 ADD PUSH2 0x32EA JUMP JUMPDEST SWAP4 POP POP PUSH1 0x40 PUSH2 0x395E DUP8 DUP3 DUP9 ADD PUSH2 0x3320 JUMP JUMPDEST SWAP3 POP POP PUSH1 0x60 DUP6 ADD CALLDATALOAD PUSH8 0xFFFFFFFFFFFFFFFF DUP2 GT ISZERO PUSH2 0x397F JUMPI PUSH2 0x397E PUSH2 0x312F JUMP JUMPDEST JUMPDEST PUSH2 0x398B DUP8 DUP3 DUP9 ADD PUSH2 0x38E6 JUMP JUMPDEST SWAP2 POP POP SWAP3 SWAP6 SWAP2 SWAP5 POP SWAP3 POP JUMP JUMPDEST PUSH1 0x0 DUP1 PUSH1 0x40 DUP4 DUP6 SUB SLT ISZERO PUSH2 0x39AE JUMPI PUSH2 0x39AD PUSH2 0x312A JUMP JUMPDEST JUMPDEST PUSH1 0x0 PUSH2 0x39BC DUP6 DUP3 DUP7 ADD PUSH2 0x32EA JUMP JUMPDEST SWAP3 POP POP PUSH1 0x20 PUSH2 0x39CD DUP6 DUP3 DUP7 ADD PUSH2 0x32EA JUMP JUMPDEST SWAP2 POP POP SWAP3 POP SWAP3 SWAP1 POP JUMP JUMPDEST PUSH1 0x0 DUP1 PUSH1 0x40 DUP4 DUP6 SUB SLT ISZERO PUSH2 0x39EE JUMPI PUSH2 0x39ED PUSH2 0x312A JUMP JUMPDEST JUMPDEST PUSH1 0x0 PUSH2 0x39FC DUP6 DUP3 DUP7 ADD PUSH2 0x3320 JUMP JUMPDEST SWAP3 POP POP PUSH1 0x20 PUSH2 0x3A0D DUP6 DUP3 DUP7 ADD PUSH2 0x32EA JUMP JUMPDEST SWAP2 POP POP SWAP3 POP SWAP3 SWAP1 POP JUMP JUMPDEST PUSH32 0x4E487B7100000000000000000000000000000000000000000000000000000000 PUSH1 0x0 MSTORE PUSH1 0x22 PUSH1 0x4 MSTORE PUSH1 0x24 PUSH1 0x0 REVERT JUMPDEST PUSH1 0x0 PUSH1 0x2 DUP3 DIV SWAP1 POP PUSH1 0x1 DUP3 AND DUP1 PUSH2 0x3A5E JUMPI PUSH1 0x7F DUP3 AND SWAP2 POP JUMPDEST PUSH1 0x20 DUP3 LT DUP2 SUB PUSH2 0x3A71 JUMPI PUSH2 0x3A70 PUSH2 0x3A17 JUMP JUMPDEST JUMPDEST POP SWAP2 SWAP1 POP JUMP JUMPDEST PUSH1 0x0 PUSH2 0x3A83 DUP4 DUP6 PUSH2 0x31FA JUMP JUMPDEST SWAP4 POP PUSH2 0x3A90 DUP4 DUP6 DUP5 PUSH2 0x3895 JUMP JUMPDEST PUSH2 0x3A99 DUP4 PUSH2 0x3235 JUMP JUMPDEST DUP5 ADD SWAP1 POP SWAP4 SWAP3 POP POP POP JUMP JUMPDEST PUSH1 0x0 PUSH1 0x40 DUP3 ADD SWAP1 POP PUSH2 0x3AB9 PUSH1 0x0 DUP4 ADD DUP7 PUSH2 0x34AA JUMP JUMPDEST DUP2 DUP2 SUB PUSH1 0x20 DUP4 ADD MSTORE PUSH2 0x3ACC DUP2 DUP5 DUP7 PUSH2 0x3A77 JUMP JUMPDEST SWAP1 POP SWAP5 SWAP4 POP POP POP POP JUMP JUMPDEST PUSH32 0x4552433732313A20617070726F76616C20746F2063757272656E74206F776E65 PUSH1 0x0 DUP3 ADD MSTORE PUSH32 0x7200000000000000000000000000000000000000000000000000000000000000 PUSH1 0x20 DUP3 ADD MSTORE POP JUMP JUMPDEST PUSH1 0x0 PUSH2 0x3B32 PUSH1 0x21 DUP4 PUSH2 0x31FA JUMP JUMPDEST SWAP2 POP PUSH2 0x3B3D DUP3 PUSH2 0x3AD6 JUMP JUMPDEST PUSH1 0x40 DUP3 ADD SWAP1 POP SWAP2 SWAP1 POP JUMP JUMPDEST PUSH1 0x0 PUSH1 0x20 DUP3 ADD SWAP1 POP DUP2 DUP2 SUB PUSH1 0x0 DUP4 ADD MSTORE PUSH2 0x3B61 DUP2 PUSH2 0x3B25 JUMP JUMPDEST SWAP1 POP SWAP2 SWAP1 POP JUMP JUMPDEST PUSH32 0x4552433732313A20617070726F76652063616C6C6572206973206E6F7420746F PUSH1 0x0 DUP3 ADD MSTORE PUSH32 0x6B656E206F776E6572206F7220617070726F76656420666F7220616C6C000000 PUSH1 0x20 DUP3 ADD MSTORE POP JUMP JUMPDEST PUSH1 0x0 PUSH2 0x3BC4 PUSH1 0x3D DUP4 PUSH2 0x31FA JUMP JUMPDEST SWAP2 POP PUSH2 0x3BCF DUP3 PUSH2 0x3B68 JUMP JUMPDEST PUSH1 0x40 DUP3 ADD SWAP1 POP SWAP2 SWAP1 POP JUMP JUMPDEST PUSH1 0x0 PUSH1 0x20 DUP3 ADD SWAP1 POP DUP2 DUP2 SUB PUSH1 0x0 DUP4 ADD MSTORE PUSH2 0x3BF3 DUP2 PUSH2 0x3BB7 JUMP JUMPDEST SWAP1 POP SWAP2 SWAP1 POP JUMP JUMPDEST PUSH32 0x4552433732313A2063616C6C6572206973206E6F7420746F6B656E206F776E65 PUSH1 0x0 DUP3 ADD MSTORE PUSH32 0x72206F7220617070726F76656400000000000000000000000000000000000000 PUSH1 0x20 DUP3 ADD MSTORE POP JUMP JUMPDEST PUSH1 0x0 PUSH2 0x3C56 PUSH1 0x2D DUP4 PUSH2 0x31FA JUMP JUMPDEST SWAP2 POP PUSH2 0x3C61 DUP3 PUSH2 0x3BFA JUMP JUMPDEST PUSH1 0x40 DUP3 ADD SWAP1 POP SWAP2 SWAP1 POP JUMP JUMPDEST PUSH1 0x0 PUSH1 0x20 DUP3 ADD SWAP1 POP DUP2 DUP2 SUB PUSH1 0x0 DUP4 ADD MSTORE PUSH2 0x3C85 DUP2 PUSH2 0x3C49 JUMP JUMPDEST SWAP1 POP SWAP2 SWAP1 POP JUMP JUMPDEST PUSH32 0x496E76616C696420616D6F756E74000000000000000000000000000000000000 PUSH1 0x0 DUP3 ADD MSTORE POP JUMP JUMPDEST PUSH1 0x0 PUSH2 0x3CC2 PUSH1 0xE DUP4 PUSH2 0x31FA JUMP JUMPDEST SWAP2 POP PUSH2 0x3CCD DUP3 PUSH2 0x3C8C JUMP JUMPDEST PUSH1 0x20 DUP3 ADD SWAP1 POP SWAP2 SWAP1 POP JUMP JUMPDEST PUSH1 0x0 PUSH1 0x20 DUP3 ADD SWAP1 POP DUP2 DUP2 SUB PUSH1 0x0 DUP4 ADD MSTORE PUSH2 0x3CF1 DUP2 PUSH2 0x3CB5 JUMP JUMPDEST SWAP1 POP SWAP2 SWAP1 POP JUMP JUMPDEST PUSH32 0x5374616B65206C6F636B65640000000000000000000000000000000000000000 PUSH1 0x0 DUP3 ADD MSTORE POP JUMP JUMPDEST PUSH1 0x0 PUSH2 0x3D2E PUSH1 0xC DUP4 PUSH2 0x31FA JUMP JUMPDEST SWAP2 POP PUSH2 0x3D39 DUP3 PUSH2 0x3CF8 JUMP JUMPDEST PUSH1 0x20 DUP3 ADD SWAP1 POP SWAP2 SWAP1 POP JUMP JUMPDEST PUSH1 0x0 PUSH1 0x20 DUP3 ADD SWAP1 POP DUP2 DUP2 SUB PUSH1 0x0 DUP4 ADD MSTORE PUSH2 0x3D5D DUP2 PUSH2 0x3D21 JUMP JUMPDEST SWAP1 POP SWAP2 SWAP1 POP JUMP JUMPDEST PUSH32 0x4E487B7100000000000000000000000000000000000000000000000000000000 PUSH1 0x0 MSTORE PUSH1 0x11 PUSH1 0x4 MSTORE PUSH1 0x24 PUSH1 0x0 REVERT JUMPDEST PUSH1 0x0 PUSH2 0x3D9E DUP3 PUSH2 0x32FF JUMP JUMPDEST SWAP2 POP PUSH2 0x3DA9 DUP4 PUSH2 0x32FF JUMP JUMPDEST SWAP3 POP DUP3 DUP3 ADD SWAP1 POP DUP1 DUP3 GT ISZERO PUSH2 0x3DC1 JUMPI PUSH2 0x3DC0 PUSH2 0x3D64 JUMP JUMPDEST JUMPDEST SWAP3 SWAP2 POP POP JUMP JUMPDEST PUSH1 0x0 PUSH2 0x3DD2 DUP3 PUSH2 0x32FF JUMP JUMPDEST SWAP2 POP PUSH2 0x3DDD DUP4 PUSH2 0x32FF JUMP JUMPDEST SWAP3 POP DUP3 DUP3 SUB SWAP1 POP DUP2 DUP2 GT ISZERO PUSH2 0x3DF5 JUMPI PUSH2 0x3DF4 PUSH2 0x3D64 JUMP JUMPDEST JUMPDEST SWAP3 SWAP2 POP POP JUMP JUMPDEST PUSH1 0x0 PUSH1 0x40 DUP3 ADD SWAP1 POP PUSH2 0x3E10 PUSH1 0x0 DUP4 ADD DUP6 PUSH2 0x3501 JUMP JUMPDEST PUSH2 0x3E1D PUSH1 0x20 DUP4 ADD DUP5 PUSH2 0x34AA JUMP JUMPDEST SWAP4 SWAP3 POP POP POP JUMP JUMPDEST PUSH1 0x0 DUP2 MLOAD SWAP1 POP PUSH2 0x3E33 DUP2 PUSH2 0x3778 JUMP JUMPDEST SWAP3 SWAP2 POP POP JUMP JUMPDEST PUSH1 0x0 PUSH1 0x20 DUP3 DUP5 SUB SLT ISZERO PUSH2 0x3E4F JUMPI PUSH2 0x3E4E PUSH2 0x312A JUMP JUMPDEST JUMPDEST PUSH1 0x0 PUSH2 0x3E5D DUP5 DUP3 DUP6 ADD PUSH2 0x3E24 JUMP JUMPDEST SWAP2 POP POP SWAP3 SWAP2 POP POP JUMP JUMPDEST PUSH32 0x556E7374616B65207472616E73666572206661696C6564000000000000000000 PUSH1 0x0 DUP3 ADD MSTORE POP JUMP JUMPDEST PUSH1 0x0 PUSH2 0x3E9C PUSH1 0x17 DUP4 PUSH2 0x31FA JUMP JUMPDEST SWAP2 POP PUSH2 0x3EA7 DUP3 PUSH2 0x3E66 JUMP JUMPDEST PUSH1 0x20 DUP3 ADD SWAP1 POP SWAP2 SWAP1 POP JUMP JUMPDEST PUSH1 0x0 PUSH1 0x20 DUP3 ADD SWAP1 POP DUP2 DUP2 SUB PUSH1 0x0 DUP4 ADD MSTORE PUSH2 0x3ECB DUP2 PUSH2 0x3E8F JUMP JUMPDEST SWAP1 POP SWAP2 SWAP1 POP JUMP JUMPDEST PUSH32 0x526577617264207472616E73666572206661696C656400000000000000000000 PUSH1 0x0 DUP3 ADD MSTORE POP JUMP JUMPDEST PUSH1 0x0 PUSH2 0x3F08 PUSH1 0x16 DUP4 PUSH2 0x31FA JUMP JUMPDEST SWAP2 POP PUSH2 0x3F13 DUP3 PUSH2 0x3ED2 JUMP JUMPDEST PUSH1 0x20 DUP3 ADD SWAP1 POP SWAP2 SWAP1 POP JUMP JUMPDEST PUSH1 0x0 PUSH1 0x20 DUP3 ADD SWAP1 POP DUP2 DUP2 SUB PUSH1 0x0 DUP4 ADD MSTORE PUSH2 0x3F37 DUP2 PUSH2 0x3EFB JUMP JUMPDEST SWAP1 POP SWAP2 SWAP1 POP JUMP JUMPDEST PUSH1 0x0 PUSH1 0x60 DUP3 ADD SWAP1 POP PUSH2 0x3F53 PUSH1 0x0 DUP4 ADD DUP7 PUSH2 0x34AA JUMP JUMPDEST PUSH2 0x3F60 PUSH1 0x20 DUP4 ADD DUP6 PUSH2 0x34AA JUMP JUMPDEST PUSH2 0x3F6D PUSH1 0x40 DUP4 ADD DUP5 PUSH2 0x34AA JUMP JUMPDEST SWAP5 SWAP4 POP POP POP POP JUMP JUMPDEST PUSH32 0x4552433732313A20696E76616C696420746F6B656E2049440000000000000000 PUSH1 0x0 DUP3 ADD MSTORE POP JUMP JUMPDEST PUSH1 0x0 PUSH2 0x3FAB PUSH1 0x18 DUP4 PUSH2 0x31FA JUMP JUMPDEST SWAP2 POP PUSH2 0x3FB6 DUP3 PUSH2 0x3F75 JUMP JUMPDEST PUSH1 0x20 DUP3 ADD SWAP1 POP SWAP2 SWAP1 POP JUMP JUMPDEST PUSH1 0x0 PUSH1 0x20 DUP3 ADD SWAP1 POP DUP2 DUP2 SUB PUSH1 0x0 DUP4 ADD MSTORE PUSH2 0x3FDA DUP2 PUSH2 0x3F9E JUMP JUMPDEST SWAP1 POP SWAP2 SWAP1 POP JUMP JUMPDEST PUSH32 0x4552433732313A2061646472657373207A65726F206973206E6F742061207661 PUSH1 0x0 DUP3 ADD MSTORE PUSH32 0x6C6964206F776E65720000000000000000000000000000000000000000000000 PUSH1 0x20 DUP3 ADD MSTORE POP JUMP JUMPDEST PUSH1 0x0 PUSH2 0x403D PUSH1 0x29 DUP4 PUSH2 0x31FA JUMP JUMPDEST SWAP2 POP PUSH2 0x4048 DUP3 PUSH2 0x3FE1 JUMP JUMPDEST PUSH1 0x40 DUP3 ADD SWAP1 POP SWAP2 SWAP1 POP JUMP JUMPDEST PUSH1 0x0 PUSH1 0x20 DUP3 ADD SWAP1 POP DUP2 DUP2 SUB PUSH1 0x0 DUP4 ADD MSTORE PUSH2 0x406C DUP2 PUSH2 0x4030 JUMP JUMPDEST SWAP1 POP SWAP2 SWAP1 POP JUMP JUMPDEST PUSH32 0x41505220746F6F20686967680000000000000000000000000000000000000000 PUSH1 0x0 DUP3 ADD MSTORE POP JUMP JUMPDEST PUSH1 0x0 PUSH2 0x40A9 PUSH1 0xC DUP4 PUSH2 0x31FA JUMP JUMPDEST SWAP2 POP PUSH2 0x40B4 DUP3 PUSH2 0x4073 JUMP JUMPDEST PUSH1 0x20 DUP3 ADD SWAP1 POP SWAP2 SWAP1 POP JUMP JUMPDEST PUSH1 0x0 PUSH1 0x20 DUP3 ADD SWAP1 POP DUP2 DUP2 SUB PUSH1 0x0 DUP4 ADD MSTORE PUSH2 0x40D8 DUP2 PUSH2 0x409C JUMP JUMPDEST SWAP1 POP SWAP2 SWAP1 POP JUMP JUMPDEST PUSH32 0x416D6F756E7420746F6F206C6F77000000000000000000000000000000000000 PUSH1 0x0 DUP3 ADD MSTORE POP JUMP JUMPDEST PUSH1 0x0 PUSH2 0x4115 PUSH1 0xE DUP4 PUSH2 0x31FA JUMP JUMPDEST SWAP2 POP PUSH2 0x4120 DUP3 PUSH2 0x40DF JUMP JUMPDEST PUSH1 0x20 DUP3 ADD SWAP1 POP SWAP2 SWAP1 POP JUMP JUMPDEST PUSH1 0x0 PUSH1 0x20 DUP3 ADD SWAP1 POP DUP2 DUP2 SUB PUSH1 0x0 DUP4 ADD MSTORE PUSH2 0x4144 DUP2 PUSH2 0x4108 JUMP JUMPDEST SWAP1 POP SWAP2 SWAP1 POP JUMP JUMPDEST PUSH1 0x0 PUSH1 0x60 DUP3 ADD SWAP1 POP PUSH2 0x4160 PUSH1 0x0 DUP4 ADD DUP7 PUSH2 0x3501 JUMP JUMPDEST PUSH2 0x416D PUSH1 0x20 DUP4 ADD DUP6 PUSH2 0x3501 JUMP JUMPDEST PUSH2 0x417A PUSH1 0x40 DUP4 ADD DUP5 PUSH2 0x34AA JUMP JUMPDEST SWAP5 SWAP4 POP POP POP POP JUMP JUMPDEST PUSH32 0x5472616E73666572206661696C65640000000000000000000000000000000000 PUSH1 0x0 DUP3 ADD MSTORE POP JUMP JUMPDEST PUSH1 0x0 PUSH2 0x41B8 PUSH1 0xF DUP4 PUSH2 0x31FA JUMP JUMPDEST SWAP2 POP PUSH2 0x41C3 DUP3 PUSH2 0x4182 JUMP JUMPDEST PUSH1 0x20 DUP3 ADD SWAP1 POP SWAP2 SWAP1 POP JUMP JUMPDEST PUSH1 0x0 PUSH1 0x20 DUP3 ADD SWAP1 POP DUP2 DUP2 SUB PUSH1 0x0 DUP4 ADD MSTORE PUSH2 0x41E7 DUP2 PUSH2 0x41AB JUMP JUMPDEST SWAP1 POP SWAP2 SWAP1 POP JUMP JUMPDEST PUSH1 0x0 PUSH1 0x40 DUP3 ADD SWAP1 POP PUSH2 0x4203 PUSH1 0x0 DUP4 ADD DUP6 PUSH2 0x34AA JUMP JUMPDEST PUSH2 0x4210 PUSH1 0x20 DUP4 ADD DUP5 PUSH2 0x34AA JUMP JUMPDEST SWAP4 SWAP3 POP POP POP JUMP JUMPDEST PUSH32 0x4E6F207374616B65000000000000000000000000000000000000000000000000 PUSH1 0x0 DUP3 ADD MSTORE POP JUMP JUMPDEST PUSH1 0x0 PUSH2 0x424D PUSH1 0x8 DUP4 PUSH2 0x31FA JUMP JUMPDEST SWAP2 POP PUSH2 0x4258 DUP3 PUSH2 0x4217 JUMP JUMPDEST PUSH1 0x20 DUP3 ADD SWAP1 POP SWAP2 SWAP1 POP JUMP JUMPDEST PUSH1 0x0 PUSH1 0x20 DUP3 ADD SWAP1 POP DUP2 DUP2 SUB PUSH1 0x0 DUP4 ADD MSTORE PUSH2 0x427C DUP2 PUSH2 0x4240 JUMP JUMPDEST SWAP1 POP SWAP2 SWAP1 POP JUMP JUMPDEST PUSH32 0x4E6F207265776172647300000000000000000000000000000000000000000000 PUSH1 0x0 DUP3 ADD MSTORE POP JUMP JUMPDEST PUSH1 0x0 PUSH2 0x42B9 PUSH1 0xA DUP4 PUSH2 0x31FA JUMP JUMPDEST SWAP2 POP PUSH2 0x42C4 DUP3 PUSH2 0x4283 JUMP JUMPDEST PUSH1 0x20 DUP3 ADD SWAP1 POP SWAP2 SWAP1 POP JUMP JUMPDEST PUSH1 0x0 PUSH1 0x20 DUP3 ADD SWAP1 POP DUP2 DUP2 SUB PUSH1 0x0 DUP4 ADD MSTORE PUSH2 0x42E8 DUP2 PUSH2 0x42AC JUMP JUMPDEST SWAP1 POP SWAP2 SWAP1 POP JUMP JUMPDEST PUSH1 0x0 DUP2 SWAP1 POP SWAP3 SWAP2 POP POP JUMP JUMPDEST PUSH1 0x0 PUSH2 0x4305 DUP3 PUSH2 0x31EF JUMP JUMPDEST PUSH2 0x430F DUP2 DUP6 PUSH2 0x42EF JUMP JUMPDEST SWAP4 POP PUSH2 0x431F DUP2 DUP6 PUSH1 0x20 DUP7 ADD PUSH2 0x320B JUMP JUMPDEST DUP1 DUP5 ADD SWAP2 POP POP SWAP3 SWAP2 POP POP JUMP JUMPDEST PUSH1 0x0 PUSH2 0x4337 DUP3 DUP6 PUSH2 0x42FA JUMP JUMPDEST SWAP2 POP PUSH2 0x4343 DUP3 DUP5 PUSH2 0x42FA JUMP JUMPDEST SWAP2 POP DUP2 SWAP1 POP SWAP4 SWAP3 POP POP POP JUMP JUMPDEST PUSH32 0x4F776E61626C653A206E6577206F776E657220697320746865207A65726F2061 PUSH1 0x0 DUP3 ADD MSTORE PUSH32 0x6464726573730000000000000000000000000000000000000000000000000000 PUSH1 0x20 DUP3 ADD MSTORE POP JUMP JUMPDEST PUSH1 0x0 PUSH2 0x43AB PUSH1 0x26 DUP4 PUSH2 0x31FA JUMP JUMPDEST SWAP2 POP PUSH2 0x43B6 DUP3 PUSH2 0x434F JUMP JUMPDEST PUSH1 0x40 DUP3 ADD SWAP1 POP SWAP2 SWAP1 POP JUMP JUMPDEST PUSH1 0x0 PUSH1 0x20 DUP3 ADD SWAP1 POP DUP2 DUP2 SUB PUSH1 0x0 DUP4 ADD MSTORE PUSH2 0x43DA DUP2 PUSH2 0x439E JUMP JUMPDEST SWAP1 POP SWAP2 SWAP1 POP JUMP JUMPDEST PUSH32 0x496E76616C696420746F00000000000000000000000000000000000000000000 PUSH1 0x0 DUP3 ADD MSTORE POP JUMP JUMPDEST PUSH1 0x0 PUSH2 0x4417 PUSH1 0xA DUP4 PUSH2 0x31FA JUMP JUMPDEST SWAP2 POP PUSH2 0x4422 DUP3 PUSH2 0x43E1 JUMP JUMPDEST PUSH1 0x20 DUP3 ADD SWAP1 POP SWAP2 SWAP1 POP JUMP JUMPDEST PUSH1 0x0 PUSH1 0x20 DUP3 ADD SWAP1 POP DUP2 DUP2 SUB PUSH1 0x0 DUP4 ADD MSTORE PUSH2 0x4446 DUP2 PUSH2 0x440A JUMP JUMPDEST SWAP1 POP SWAP2 SWAP1 POP JUMP JUMPDEST PUSH32 0x5769746864726177206661696C65640000000000000000000000000000000000 PUSH1 0x0 DUP3 ADD MSTORE POP JUMP JUMPDEST PUSH1 0x0 PUSH2 0x4483 PUSH1 0xF DUP4 PUSH2 0x31FA JUMP JUMPDEST SWAP2 POP PUSH2 0x448E DUP3 PUSH2 0x444D JUMP JUMPDEST PUSH1 0x20 DUP3 ADD SWAP1 POP SWAP2 SWAP1 POP JUMP JUMPDEST PUSH1 0x0 PUSH1 0x20 DUP3 ADD SWAP1 POP DUP2 DUP2 SUB PUSH1 0x0 DUP4 ADD MSTORE PUSH2 0x44B2 DUP2 PUSH2 0x4476 JUMP JUMPDEST SWAP1 POP SWAP2 SWAP1 POP JUMP JUMPDEST PUSH32 0x4F776E61626C653A2063616C6C6572206973206E6F7420746865206F776E6572 PUSH1 0x0 DUP3 ADD MSTORE POP JUMP JUMPDEST PUSH1 0x0 PUSH2 0x44EF PUSH1 0x20 DUP4 PUSH2 0x31FA JUMP JUMPDEST SWAP2 POP PUSH2 0x44FA DUP3 PUSH2 0x44B9 JUMP JUMPDEST PUSH1 0x20 DUP3 ADD SWAP1 POP SWAP2 SWAP1 POP JUMP JUMPDEST PUSH1 0x0 PUSH1 0x20 DUP3 ADD SWAP1 POP DUP2 DUP2 SUB PUSH1 0x0 DUP4 ADD MSTORE PUSH2 0x451E DUP2 PUSH2 0x44E2 JUMP JUMPDEST SWAP1 POP SWAP2 SWAP1 POP JUMP JUMPDEST PUSH1 0x0 PUSH2 0x4530 DUP3 PUSH2 0x32FF JUMP JUMPDEST SWAP2 POP PUSH32 0xFFFFFFFFFFFFFFFFFFFFFFFFFFFFFFFFFFFFFFFFFFFFFFFFFFFFFFFFFFFFFFFF DUP3 SUB PUSH2 0x4562 JUMPI PUSH2 0x4561 PUSH2 0x3D64 JUMP JUMPDEST JUMPDEST PUSH1 0x1 DUP3 ADD SWAP1 POP SWAP2 SWAP1 POP JUMP JUMPDEST PUSH1 0x0 DUP2 SWAP1 POP DUP2 PUSH1 0x0 MSTORE PUSH1 0x20 PUSH1 0x0 KECCAK256 SWAP1 POP SWAP2 SWAP1 POP JUMP JUMPDEST PUSH1 0x0 PUSH1 0x20 PUSH1 0x1F DUP4 ADD DIV SWAP1 POP SWAP2 SWAP1 POP JUMP JUMPDEST PUSH1 0x0 DUP3 DUP3 SHL SWAP1 POP SWAP3 SWAP2 POP POP JUMP JUMPDEST PUSH1 0x0 PUSH1 0x8 DUP4 MUL PUSH2 0x45CF PUSH32 0xFFFFFFFFFFFFFFFFFFFFFFFFFFFFFFFFFFFFFFFFFFFFFFFFFFFFFFFFFFFFFFFF DUP3 PUSH2 0x4592 JUMP JUMPDEST PUSH2 0x45D9 DUP7 DUP4 PUSH2 0x4592 JUMP JUMPDEST SWAP6 POP DUP1 NOT DUP5 AND SWAP4 POP DUP1 DUP7 AND DUP5 OR SWAP3 POP POP POP SWAP4 SWAP3 POP POP POP JUMP JUMPDEST PUSH1 0x0 PUSH2 0x460C PUSH2 0x4607 PUSH2 0x4602 DUP5 PUSH2 0x32FF JUMP JUMPDEST PUSH2 0x36FE JUMP JUMPDEST PUSH2 0x32FF JUMP JUMPDEST SWAP1 POP SWAP2 SWAP1 POP JUMP JUMPDEST PUSH1 0x0 DUP2 SWAP1 POP SWAP2 SWAP1 POP JUMP JUMPDEST PUSH2 0x4626 DUP4 PUSH2 0x45F1 JUMP JUMPDEST PUSH2 0x463A PUSH2 0x4632 DUP3 PUSH2 0x4613 JUMP JUMPDEST DUP5 DUP5 SLOAD PUSH2 0x459F JUMP JUMPDEST DUP3 SSTORE POP POP POP POP JUMP JUMPDEST PUSH1 0x0 SWAP1 JUMP JUMPDEST PUSH2 0x464F PUSH2 0x4642 JUMP JUMPDEST PUSH2 0x465A DUP2 DUP5 DUP5 PUSH2 0x461D JUMP JUMPDEST POP POP POP JUMP JUMPDEST JUMPDEST DUP2 DUP2 LT ISZERO PUSH2 0x467E JUMPI PUSH2 0x4673 PUSH1 0x0 DUP3 PUSH2 0x4647 JUMP JUMPDEST PUSH1 0x1 DUP2 ADD SWAP1 POP PUSH2 0x4660 JUMP JUMPDEST POP POP JUMP JUMPDEST PUSH1 0x1F DUP3 GT ISZERO PUSH2 0x46C3 JUMPI PUSH2 0x4694 DUP2 PUSH2 0x456D JUMP JUMPDEST PUSH2 0x469D DUP5 PUSH2 0x4582 JUMP JUMPDEST DUP2 ADD PUSH1 0x20 DUP6 LT ISZERO PUSH2 0x46AC JUMPI DUP2 SWAP1 POP JUMPDEST PUSH2 0x46C0 PUSH2 0x46B8 DUP6 PUSH2 0x4582 JUMP JUMPDEST DUP4 ADD DUP3 PUSH2 0x465F JUMP JUMPDEST POP POP JUMPDEST POP POP POP JUMP JUMPDEST PUSH1 0x0 DUP3 DUP3 SHR SWAP1 POP SWAP3 SWAP2 POP POP JUMP JUMPDEST PUSH1 0x0 PUSH2 0x46E6 PUSH1 0x0 NOT DUP5 PUSH1 0x8 MUL PUSH2 0x46C8 JUMP JUMPDEST NOT DUP1 DUP4 AND SWAP2 POP POP SWAP3 SWAP2 POP POP JUMP JUMPDEST PUSH1 0x0 PUSH2 0x46FF DUP4 DUP4 PUSH2 0x46D5 JUMP JUMPDEST SWAP2 POP DUP3 PUSH1 0x2 MUL DUP3 OR SWAP1 POP SWAP3 SWAP2 POP POP JUMP JUMPDEST PUSH2 0x4718 DUP3 PUSH2 0x31EF JUMP JUMPDEST PUSH8 0xFFFFFFFFFFFFFFFF DUP2 GT ISZERO PUSH2 0x4731 JUMPI PUSH2 0x4730 PUSH2 0x37E9 JUMP JUMPDEST JUMPDEST PUSH2 0x473B DUP3 SLOAD PUSH2 0x3A46 JUMP JUMPDEST PUSH2 0x4746 DUP3 DUP3 DUP6 PUSH2 0x4682 JUMP JUMPDEST PUSH1 0x0 PUSH1 0x20 SWAP1 POP PUSH1 0x1F DUP4 GT PUSH1 0x1 DUP2 EQ PUSH2 0x4779 JUMPI PUSH1 0x0 DUP5 ISZERO PUSH2 0x4767 JUMPI DUP3 DUP8 ADD MLOAD SWAP1 POP JUMPDEST PUSH2 0x4771 DUP6 DUP3 PUSH2 0x46F3 JUMP JUMPDEST DUP7 SSTORE POP PUSH2 0x47D9 JUMP JUMPDEST PUSH1 0x1F NOT DUP5 AND PUSH2 0x4787 DUP7 PUSH2 0x456D JUMP JUMPDEST PUSH1 0x0 JUMPDEST DUP3 DUP2 LT ISZERO PUSH2 0x47AF JUMPI DUP5 DUP10 ADD MLOAD DUP3 SSTORE PUSH1 0x1 DUP3 ADD SWAP2 POP PUSH1 0x20 DUP6 ADD SWAP5 POP PUSH1 0x20 DUP2 ADD SWAP1 POP PUSH2 0x478A JUMP JUMPDEST DUP7 DUP4 LT ISZERO PUSH2 0x47CC JUMPI DUP5 DUP10 ADD MLOAD PUSH2 0x47C8 PUSH1 0x1F DUP10 AND DUP3 PUSH2 0x46D5 JUMP JUMPDEST DUP4 SSTORE POP JUMPDEST PUSH1 0x1 PUSH1 0x2 DUP9 MUL ADD DUP9 SSTORE POP POP POP JUMPDEST POP POP POP POP POP POP JUMP JUMPDEST PUSH32 0x4552433732313A207472616E736665722066726F6D20696E636F727265637420 PUSH1 0x0 DUP3 ADD MSTORE PUSH32 0x6F776E6572000000000000000000000000000000000000000000000000000000 PUSH1 0x20 DUP3 ADD MSTORE POP JUMP JUMPDEST PUSH1 0x0 PUSH2 0x483D PUSH1 0x25 DUP4 PUSH2 0x31FA JUMP JUMPDEST SWAP2 POP PUSH2 0x4848 DUP3 PUSH2 0x47E1 JUMP JUMPDEST PUSH1 0x40 DUP3 ADD SWAP1 POP SWAP2 SWAP1 POP JUMP JUMPDEST PUSH1 0x0 PUSH1 0x20 DUP3 ADD SWAP1 POP DUP2 DUP2 SUB PUSH1 0x0 DUP4 ADD MSTORE PUSH2 0x486C DUP2 PUSH2 0x4830 JUMP JUMPDEST SWAP1 POP SWAP2 SWAP1 POP JUMP JUMPDEST PUSH32 0x4552433732313A207472616E7366657220746F20746865207A65726F20616464 PUSH1 0x0 DUP3 ADD MSTORE PUSH32 0x7265737300000000000000000000000000000000000000000000000000000000 PUSH1 0x20 DUP3 ADD MSTORE POP JUMP JUMPDEST PUSH1 0x0 PUSH2 0x48CF PUSH1 0x24 DUP4 PUSH2 0x31FA JUMP JUMPDEST SWAP2 POP PUSH2 0x48DA DUP3 PUSH2 0x4873 JUMP JUMPDEST PUSH1 0x40 DUP3 ADD SWAP1 POP SWAP2 SWAP1 POP JUMP JUMPDEST PUSH1 0x0 PUSH1 0x20 DUP3 ADD SWAP1 POP DUP2 DUP2 SUB PUSH1 0x0 DUP4 ADD MSTORE PUSH2 0x48FE DUP2 PUSH2 0x48C2 JUMP JUMPDEST SWAP1 POP SWAP2 SWAP1 POP JUMP JUMPDEST PUSH32 0x5265656E7472616E637947756172643A207265656E7472616E742063616C6C00 PUSH1 0x0 DUP3 ADD MSTORE POP JUMP JUMPDEST PUSH1 0x0 PUSH2 0x493B PUSH1 0x1F DUP4 PUSH2 0x31FA JUMP JUMPDEST SWAP2 POP PUSH2 0x4946 DUP3 PUSH2 0x4905 JUMP JUMPDEST PUSH1 0x20 DUP3 ADD SWAP1 POP SWAP2 SWAP1 POP JUMP JUMPDEST PUSH1 0x0 PUSH1 0x20 DUP3 ADD SWAP1 POP DUP2 DUP2 SUB PUSH1 0x0 DUP4 ADD MSTORE PUSH2 0x496A DUP2 PUSH2 0x492E JUMP JUMPDEST SWAP1 POP SWAP2 SWAP1 POP JUMP JUMPDEST PUSH32 0x5061757361626C653A2070617573656400000000000000000000000000000000 PUSH1 0x0 DUP3 ADD MSTORE POP JUMP JUMPDEST PUSH1 0x0 PUSH2 0x49A7 PUSH1 0x10 DUP4 PUSH2 0x31FA JUMP JUMPDEST SWAP2 POP PUSH2 0x49B2 DUP3 PUSH2 0x4971 JUMP JUMPDEST PUSH1 0x20 DUP3 ADD SWAP1 POP SWAP2 SWAP1 POP JUMP JUMPDEST PUSH1 0x0 PUSH1 0x20 DUP3 ADD SWAP1 POP DUP2 DUP2 SUB PUSH1 0x0 DUP4 ADD MSTORE PUSH2 0x49D6 DUP2 PUSH2 0x499A JUMP JUMPDEST SWAP1 POP SWAP2 SWAP1 POP JUMP JUMPDEST PUSH1 0x0 PUSH2 0x49E8 DUP3 PUSH2 0x32FF JUMP JUMPDEST SWAP2 POP PUSH2 0x49F3 DUP4 PUSH2 0x32FF JUMP JUMPDEST SWAP3 POP DUP3 DUP3 MUL PUSH2 0x4A01 DUP2 PUSH2 0x32FF JUMP JUMPDEST SWAP2 POP DUP3 DUP3 DIV DUP5 EQ DUP4 ISZERO OR PUSH2 0x4A18 JUMPI PUSH2 0x4A17 PUSH2 0x3D64 JUMP JUMPDEST JUMPDEST POP SWAP3 SWAP2 POP POP JUMP JUMPDEST PUSH32 0x4E487B7100000000000000000000000000000000000000000000000000000000 PUSH1 0x0 MSTORE PUSH1 0x12 PUSH1 0x4 MSTORE PUSH1 0x24 PUSH1 0x0 REVERT JUMPDEST PUSH1 0x0 PUSH2 0x4A59 DUP3 PUSH2 0x32FF JUMP JUMPDEST SWAP2 POP PUSH2 0x4A64 DUP4 PUSH2 0x32FF JUMP JUMPDEST SWAP3 POP DUP3 PUSH2 0x4A74 JUMPI PUSH2 0x4A73 PUSH2 0x4A1F JUMP JUMPDEST JUMPDEST DUP3 DUP3 DIV SWAP1 POP SWAP3 SWAP2 POP POP JUMP JUMPDEST PUSH32 0x4552433732313A20617070726F766520746F2063616C6C657200000000000000 PUSH1 0x0 DUP3 ADD MSTORE POP JUMP JUMPDEST PUSH1 0x0 PUSH2 0x4AB5 PUSH1 0x19 DUP4 PUSH2 0x31FA JUMP JUMPDEST SWAP2 POP PUSH2 0x4AC0 DUP3 PUSH2 0x4A7F JUMP JUMPDEST PUSH1 0x20 DUP3 ADD SWAP1 POP SWAP2 SWAP1 POP JUMP JUMPDEST PUSH1 0x0 PUSH1 0x20 DUP3 ADD SWAP1 POP DUP2 DUP2 SUB PUSH1 0x0 DUP4 ADD MSTORE PUSH2 0x4AE4 DUP2 PUSH2 0x4AA8 JUMP JUMPDEST SWAP1 POP SWAP2 SWAP1 POP JUMP JUMPDEST PUSH32 0x4552433732313A207472616E7366657220746F206E6F6E204552433732315265 PUSH1 0x0 DUP3 ADD MSTORE PUSH32 0x63656976657220696D706C656D656E7465720000000000000000000000000000 PUSH1 0x20 DUP3 ADD MSTORE POP JUMP JUMPDEST PUSH1 0x0 PUSH2 0x4B47 PUSH1 0x32 DUP4 PUSH2 0x31FA JUMP JUMPDEST SWAP2 POP PUSH2 0x4B52 DUP3 PUSH2 0x4AEB JUMP JUMPDEST PUSH1 0x40 DUP3 ADD SWAP1 POP SWAP2 SWAP1 POP JUMP JUMPDEST PUSH1 0x0 PUSH1 0x20 DUP3 ADD SWAP1 POP DUP2 DUP2 SUB PUSH1 0x0 DUP4 ADD MSTORE PUSH2 0x4B76 DUP2 PUSH2 0x4B3A JUMP JUMPDEST SWAP1 POP SWAP2 SWAP1 POP JUMP JUMPDEST PUSH32 0x45524337323155524953746F726167653A2055524920736574206F66206E6F6E PUSH1 0x0 DUP3 ADD MSTORE PUSH32 0x6578697374656E7420746F6B656E000000000000000000000000000000000000 PUSH1 0x20 DUP3 ADD MSTORE POP JUMP JUMPDEST PUSH1 0x0 PUSH2 0x4BD9 PUSH1 0x2E DUP4 PUSH2 0x31FA JUMP JUMPDEST SWAP2 POP PUSH2 0x4BE4 DUP3 PUSH2 0x4B7D JUMP JUMPDEST PUSH1 0x40 DUP3 ADD SWAP1 POP SWAP2 SWAP1 POP JUMP JUMPDEST PUSH1 0x0 PUSH1 0x20 DUP3 ADD SWAP1 POP DUP2 DUP2 SUB PUSH1 0x0 DUP4 ADD MSTORE PUSH2 0x4C08 DUP2 PUSH2 0x4BCC JUMP JUMPDEST SWAP1 POP SWAP2 SWAP1 POP JUMP JUMPDEST PUSH32 0x5061757361626C653A206E6F7420706175736564000000000000000000000000 PUSH1 0x0 DUP3 ADD MSTORE POP JUMP JUMPDEST PUSH1 0x0 PUSH2 0x4C45 PUSH1 0x14 DUP4 PUSH2 0x31FA JUMP JUMPDEST SWAP2 POP PUSH2 0x4C50 DUP3 PUSH2 0x4C0F JUMP JUMPDEST PUSH1 0x20 DUP3 ADD SWAP1 POP SWAP2 SWAP1 POP JUMP JUMPDEST PUSH1 0x0 PUSH1 0x20 DUP3 ADD SWAP1 POP DUP2 DUP2 SUB PUSH1 0x0 DUP4 ADD MSTORE PUSH2 0x4C74 DUP2 PUSH2 0x4C38 JUMP JUMPDEST SWAP1 POP SWAP2 SWAP1 POP JUMP JUMPDEST PUSH1 0x0 DUP2 MLOAD SWAP1 POP SWAP2 SWAP1 POP JUMP JUMPDEST PUSH1 0x0 DUP3 DUP3 MSTORE PUSH1 0x20 DUP3 ADD SWAP1 POP SWAP3 SWAP2 POP POP JUMP JUMPDEST PUSH1 0x0 PUSH2 0x4CA2 DUP3 PUSH2 0x4C7B JUMP JUMPDEST PUSH2 0x4CAC DUP2 DUP6 PUSH2 0x4C86 JUMP JUMPDEST SWAP4 POP PUSH2 0x4CBC DUP2 DUP6 PUSH1 0x20 DUP7 ADD PUSH2 0x320B JUMP JUMPDEST PUSH2 0x4CC5 DUP2 PUSH2 0x3235 JUMP JUMPDEST DUP5 ADD SWAP2 POP POP SWAP3 SWAP2 POP POP JUMP JUMPDEST PUSH1 0x0 PUSH1 0x80 DUP3 ADD SWAP1 POP PUSH2 0x4CE5 PUSH1 0x0 DUP4 ADD DUP8 PUSH2 0x3501 JUMP JUMPDEST PUSH2 0x4CF2 PUSH1 0x20 DUP4 ADD DUP7 PUSH2 0x3501 JUMP JUMPDEST PUSH2 0x4CFF PUSH1 0x40 DUP4 ADD DUP6 PUSH2 0x34AA JUMP JUMPDEST DUP2 DUP2 SUB PUSH1 0x60 DUP4 ADD MSTORE PUSH2 0x4D11 DUP2 DUP5 PUSH2 0x4C97 JUMP JUMPDEST SWAP1 POP SWAP6 SWAP5 POP POP POP POP POP JUMP JUMPDEST PUSH1 0x0 DUP2 MLOAD SWAP1 POP PUSH2 0x4D2B DUP2 PUSH2 0x3160 JUMP JUMPDEST SWAP3 SWAP2 POP POP JUMP JUMPDEST PUSH1 0x0 PUSH1 0x20 DUP3 DUP5 SUB SLT ISZERO PUSH2 0x4D47 JUMPI PUSH2 0x4D46 PUSH2 0x312A JUMP JUMPDEST JUMPDEST PUSH1 0x0 PUSH2 0x4D55 DUP5 DUP3 DUP6 ADD PUSH2 0x4D1C JUMP JUMPDEST SWAP2 POP POP SWAP3 SWAP2 POP POP JUMP JUMPDEST PUSH32 0x4552433732313A206D696E7420746F20746865207A65726F2061646472657373 PUSH1 0x0 DUP3 ADD MSTORE POP JUMP JUMPDEST PUSH1 0x0 PUSH2 0x4D94 PUSH1 0x20 DUP4 PUSH2 0x31FA JUMP JUMPDEST SWAP2 POP PUSH2 0x4D9F DUP3 PUSH2 0x4D5E JUMP JUMPDEST PUSH1 0x20 DUP3 ADD SWAP1 POP SWAP2 SWAP1 POP JUMP JUMPDEST PUSH1 0x0 PUSH1 0x20 DUP3 ADD SWAP1 POP DUP2 DUP2 SUB PUSH1 0x0 DUP4 ADD MSTORE PUSH2 0x4DC3 DUP2 PUSH2 0x4D87 JUMP JUMPDEST SWAP1 POP SWAP2 SWAP1 POP JUMP JUMPDEST PUSH32 0x4552433732313A20746F6B656E20616C7265616479206D696E74656400000000 PUSH1 0x0 DUP3 ADD MSTORE POP JUMP JUMPDEST PUSH1 0x0 PUSH2 0x4E00 PUSH1 0x1C DUP4 PUSH2 0x31FA JUMP JUMPDEST SWAP2 POP PUSH2 0x4E0B DUP3 PUSH2 0x4DCA JUMP JUMPDEST PUSH1 0x20 DUP3 ADD SWAP1 POP SWAP2 SWAP1 POP JUMP JUMPDEST PUSH1 0x0 PUSH1 0x20 DUP3 ADD SWAP1 POP DUP2 DUP2 SUB PUSH1 0x0 DUP4 ADD MSTORE PUSH2 0x4E2F DUP2 PUSH2 0x4DF3 JUMP JUMPDEST SWAP1 POP SWAP2 SWAP1 POP JUMP INVALID LOG2 PUSH5 0x6970667358 0x22 SLT KECCAK256 PUSH13 0x49A8422D3DD5CB119BFA6F1C7C GAS PUSH19 0xDC8402052F6FD93449D46B1A60DF44DA64736F PUSH13 0x63430008140033000000000000 "},"methodIdentifiers":{"approve(address,uint256)":"095ea7b3","aprBps()":"25ac1df2","balanceOf(address)":"70a08231","claimReward()":"b88a802f","emitProjectFunded(uint256,uint256,string)":"09417787","getApproved(uint256)":"081812fc","impactMetadataByTokenId(uint256)":"358bc434","isApprovedForAll(address,address)":"e985e9c5","lockPeriod()":"3fd8b02f","minStakeAmount()":"f1887684","mintImpactNFTForUser(address,uint256,string,string,string,string)":"07dcd9f9","name()":"06fdde03","nextTokenId()":"75794a3c","owner()":"8da5cb5b","ownerOf(uint256)":"6352211e","pause()":"8456cb59","paused()":"5c975abb","pendingReward(address)":"f40f0f52","renounceOwnership()":"715018a6","safeTransferFrom(address,address,uint256)":"42842e0e","safeTransferFrom(address,address,uint256,bytes)":"b88d4fde","setAPR(uint256)":"854303cf","setApprovalForAll(address,bool)":"a22cb465","setLockPeriod(uint256)":"779972da","setMinStakeAmount(uint256)":"eb4af045","stake(uint256)":"a694fc3a","stakes(address)":"16934fc4","stakingToken()":"72f702f3","supportsInterface(bytes4)":"01ffc9a7","symbol()":"95d89b41","tokenURI(uint256)":"c87b56dd","transferFrom(address,address,uint256)":"23b872dd","transferOwnership(address)":"f2fde38b","unpause()":"3f4ba83a","unstake(uint256)":"2e17de78","withdrawPlatformFunds(uint256,address)":"f5842146"}}}}}